{
	"Marketplace.sol": {
		"Marketplace": {
			"abi": [
				{
					"inputs": [
						{
							"internalType": "address",
							"name": "_stablecoin",
							"type": "address"
						}
					],
					"stateMutability": "nonpayable",
					"type": "constructor"
				},
				{
					"anonymous": false,
					"inputs": [
						{
							"indexed": true,
							"internalType": "address",
							"name": "nftContract",
							"type": "address"
						},
						{
							"indexed": true,
							"internalType": "uint256",
							"name": "tokenId",
							"type": "uint256"
						},
						{
							"indexed": true,
							"internalType": "address",
							"name": "seller",
							"type": "address"
						}
					],
					"name": "Cancelled",
					"type": "event"
				},
				{
					"anonymous": false,
					"inputs": [
						{
							"indexed": true,
							"internalType": "address",
							"name": "nftContract",
							"type": "address"
						},
						{
							"indexed": true,
							"internalType": "uint256",
							"name": "tokenId",
							"type": "uint256"
						},
						{
							"indexed": true,
							"internalType": "address",
							"name": "seller",
							"type": "address"
						},
						{
							"indexed": false,
							"internalType": "uint256",
							"name": "price",
							"type": "uint256"
						}
					],
					"name": "Listed",
					"type": "event"
				},
				{
					"anonymous": false,
					"inputs": [
						{
							"indexed": true,
							"internalType": "address",
							"name": "nftContract",
							"type": "address"
						},
						{
							"indexed": true,
							"internalType": "uint256",
							"name": "tokenId",
							"type": "uint256"
						},
						{
							"indexed": true,
							"internalType": "address",
							"name": "buyer",
							"type": "address"
						},
						{
							"indexed": false,
							"internalType": "uint256",
							"name": "price",
							"type": "uint256"
						}
					],
					"name": "Sold",
					"type": "event"
				},
				{
					"inputs": [
						{
							"internalType": "address",
							"name": "nftContract",
							"type": "address"
						},
						{
							"internalType": "uint256",
							"name": "tokenId",
							"type": "uint256"
						}
					],
					"name": "buyNFT",
					"outputs": [],
					"stateMutability": "nonpayable",
					"type": "function"
				},
				{
					"inputs": [
						{
							"internalType": "address",
							"name": "nftContract",
							"type": "address"
						},
						{
							"internalType": "uint256",
							"name": "tokenId",
							"type": "uint256"
						}
					],
					"name": "cancelListing",
					"outputs": [],
					"stateMutability": "nonpayable",
					"type": "function"
				},
				{
					"inputs": [
						{
							"internalType": "address",
							"name": "nftContract",
							"type": "address"
						},
						{
							"internalType": "uint256",
							"name": "tokenId",
							"type": "uint256"
						},
						{
							"internalType": "uint256",
							"name": "price",
							"type": "uint256"
						}
					],
					"name": "listNFT",
					"outputs": [],
					"stateMutability": "nonpayable",
					"type": "function"
				},
				{
					"inputs": [
						{
							"internalType": "address",
							"name": "",
							"type": "address"
						},
						{
							"internalType": "uint256",
							"name": "",
							"type": "uint256"
						}
					],
					"name": "listings",
					"outputs": [
						{
							"internalType": "address",
							"name": "seller",
							"type": "address"
						},
						{
							"internalType": "uint256",
							"name": "price",
							"type": "uint256"
						},
						{
							"internalType": "bool",
							"name": "active",
							"type": "bool"
						}
					],
					"stateMutability": "view",
					"type": "function"
				},
				{
					"inputs": [
						{
							"internalType": "address",
							"name": "",
							"type": "address"
						},
						{
							"internalType": "address",
							"name": "",
							"type": "address"
						},
						{
							"internalType": "uint256",
							"name": "",
							"type": "uint256"
						},
						{
							"internalType": "bytes",
							"name": "",
							"type": "bytes"
						}
					],
					"name": "onERC721Received",
					"outputs": [
						{
							"internalType": "bytes4",
							"name": "",
							"type": "bytes4"
						}
					],
					"stateMutability": "pure",
					"type": "function"
				},
				{
					"inputs": [],
					"name": "stablecoin",
					"outputs": [
						{
							"internalType": "contract IERC20",
							"name": "",
							"type": "address"
						}
					],
					"stateMutability": "view",
					"type": "function"
				}
			],
			"devdoc": {
				"kind": "dev",
				"methods": {},
				"version": 1
			},
			"evm": {
				"assembly": "    /* \"Marketplace.sol\":242:2685  contract Marketplace is IERC721Receiver {... */\n  mstore(0x40, 0x80)\n    /* \"Marketplace.sol\":804:886  constructor(address _stablecoin) {... */\n  callvalue\n  dup1\n  iszero\n  tag_1\n  jumpi\n  revert(0x00, 0x00)\ntag_1:\n  pop\n  mload(0x40)\n  sub(codesize, bytecodeSize)\n  dup1\n  bytecodeSize\n  dup4\n  codecopy\n  dup2\n  dup2\n  add\n  0x40\n  mstore\n  dup2\n  add\n  swap1\n  tag_2\n  swap2\n  swap1\n  tag_3\n  jump\t// in\ntag_2:\n    /* \"Marketplace.sol\":867:878  _stablecoin */\n  dup1\n    /* \"Marketplace.sol\":847:857  stablecoin */\n  0x00\n  0x00\n    /* \"Marketplace.sol\":847:879  stablecoin = IERC20(_stablecoin) */\n  0x0100\n  exp\n  dup2\n  sload\n  dup2\n  0xffffffffffffffffffffffffffffffffffffffff\n  mul\n  not\n  and\n  swap1\n  dup4\n  0xffffffffffffffffffffffffffffffffffffffff\n  and\n  mul\n  or\n  swap1\n  sstore\n  pop\n    /* \"Marketplace.sol\":804:886  constructor(address _stablecoin) {... */\n  pop\n    /* \"Marketplace.sol\":242:2685  contract Marketplace is IERC721Receiver {... */\n  jump(tag_6)\n    /* \"#utility.yul\":88:205   */\ntag_8:\n    /* \"#utility.yul\":197:198   */\n  0x00\n    /* \"#utility.yul\":194:195   */\n  0x00\n    /* \"#utility.yul\":187:199   */\n  revert\n    /* \"#utility.yul\":334:460   */\ntag_10:\n    /* \"#utility.yul\":371:378   */\n  0x00\n    /* \"#utility.yul\":411:453   */\n  0xffffffffffffffffffffffffffffffffffffffff\n    /* \"#utility.yul\":404:409   */\n  dup3\n    /* \"#utility.yul\":400:454   */\n  and\n    /* \"#utility.yul\":389:454   */\n  swap1\n  pop\n    /* \"#utility.yul\":334:460   */\n  swap2\n  swap1\n  pop\n  jump\t// out\n    /* \"#utility.yul\":466:562   */\ntag_11:\n    /* \"#utility.yul\":503:510   */\n  0x00\n    /* \"#utility.yul\":532:556   */\n  tag_20\n    /* \"#utility.yul\":550:555   */\n  dup3\n    /* \"#utility.yul\":532:556   */\n  tag_10\n  jump\t// in\ntag_20:\n    /* \"#utility.yul\":521:556   */\n  swap1\n  pop\n    /* \"#utility.yul\":466:562   */\n  swap2\n  swap1\n  pop\n  jump\t// out\n    /* \"#utility.yul\":568:690   */\ntag_12:\n    /* \"#utility.yul\":641:665   */\n  tag_22\n    /* \"#utility.yul\":659:664   */\n  dup2\n    /* \"#utility.yul\":641:665   */\n  tag_11\n  jump\t// in\ntag_22:\n    /* \"#utility.yul\":634:639   */\n  dup2\n    /* \"#utility.yul\":631:666   */\n  eq\n    /* \"#utility.yul\":621:684   */\n  tag_23\n  jumpi\n    /* \"#utility.yul\":680:681   */\n  0x00\n    /* \"#utility.yul\":677:678   */\n  0x00\n    /* \"#utility.yul\":670:682   */\n  revert\n    /* \"#utility.yul\":621:684   */\ntag_23:\n    /* \"#utility.yul\":568:690   */\n  pop\n  jump\t// out\n    /* \"#utility.yul\":696:839   */\ntag_13:\n    /* \"#utility.yul\":753:758   */\n  0x00\n    /* \"#utility.yul\":784:790   */\n  dup2\n    /* \"#utility.yul\":778:791   */\n  mload\n    /* \"#utility.yul\":769:791   */\n  swap1\n  pop\n    /* \"#utility.yul\":800:833   */\n  tag_25\n    /* \"#utility.yul\":827:832   */\n  dup2\n    /* \"#utility.yul\":800:833   */\n  tag_12\n  jump\t// in\ntag_25:\n    /* \"#utility.yul\":696:839   */\n  swap3\n  swap2\n  pop\n  pop\n  jump\t// out\n    /* \"#utility.yul\":845:1196   */\ntag_3:\n    /* \"#utility.yul\":915:921   */\n  0x00\n    /* \"#utility.yul\":964:966   */\n  0x20\n    /* \"#utility.yul\":952:961   */\n  dup3\n    /* \"#utility.yul\":943:950   */\n  dup5\n    /* \"#utility.yul\":939:962   */\n  sub\n    /* \"#utility.yul\":935:967   */\n  slt\n    /* \"#utility.yul\":932:1051   */\n  iszero\n  tag_27\n  jumpi\n    /* \"#utility.yul\":970:1049   */\n  tag_28\n  tag_8\n  jump\t// in\ntag_28:\n    /* \"#utility.yul\":932:1051   */\ntag_27:\n    /* \"#utility.yul\":1090:1091   */\n  0x00\n    /* \"#utility.yul\":1115:1179   */\n  tag_29\n    /* \"#utility.yul\":1171:1178   */\n  dup5\n    /* \"#utility.yul\":1162:1168   */\n  dup3\n    /* \"#utility.yul\":1151:1160   */\n  dup6\n    /* \"#utility.yul\":1147:1169   */\n  add\n    /* \"#utility.yul\":1115:1179   */\n  tag_13\n  jump\t// in\ntag_29:\n    /* \"#utility.yul\":1105:1179   */\n  swap2\n  pop\n    /* \"#utility.yul\":1061:1189   */\n  pop\n    /* \"#utility.yul\":845:1196   */\n  swap3\n  swap2\n  pop\n  pop\n  jump\t// out\n    /* \"Marketplace.sol\":242:2685  contract Marketplace is IERC721Receiver {... */\ntag_6:\n  dataSize(sub_0)\n  dup1\n  dataOffset(sub_0)\n  0x00\n  codecopy\n  0x00\n  return\nstop\n\nsub_0: assembly {\n        /* \"Marketplace.sol\":242:2685  contract Marketplace is IERC721Receiver {... */\n      mstore(0x40, 0x80)\n      callvalue\n      dup1\n      iszero\n      tag_1\n      jumpi\n      revert(0x00, 0x00)\n    tag_1:\n      pop\n      jumpi(tag_2, lt(calldatasize, 0x04))\n      shr(0xe0, calldataload(0x00))\n      dup1\n      0x07df30\n      eq\n      tag_3\n      jumpi\n      dup1\n      0x150b7a02\n      eq\n      tag_4\n      jumpi\n      dup1\n      0xa82ba76f\n      eq\n      tag_5\n      jumpi\n      dup1\n      0xad05f1b4\n      eq\n      tag_6\n      jumpi\n      dup1\n      0xb2ddee06\n      eq\n      tag_7\n      jumpi\n      dup1\n      0xe9cbd822\n      eq\n      tag_8\n      jumpi\n    tag_2:\n      revert(0x00, 0x00)\n        /* \"Marketplace.sol\":415:478  mapping(address => mapping(uint256 => Listing)) public listings */\n    tag_3:\n      tag_9\n      0x04\n      dup1\n      calldatasize\n      sub\n      dup2\n      add\n      swap1\n      tag_10\n      swap2\n      swap1\n      tag_11\n      jump\t// in\n    tag_10:\n      tag_12\n      jump\t// in\n    tag_9:\n      mload(0x40)\n      tag_13\n      swap4\n      swap3\n      swap2\n      swap1\n      tag_14\n      jump\t// in\n    tag_13:\n      mload(0x40)\n      dup1\n      swap2\n      sub\n      swap1\n      return\n        /* \"Marketplace.sol\":2491:2683  function onERC721Received(... */\n    tag_4:\n      tag_15\n      0x04\n      dup1\n      calldatasize\n      sub\n      dup2\n      add\n      swap1\n      tag_16\n      swap2\n      swap1\n      tag_17\n      jump\t// in\n    tag_16:\n      tag_18\n      jump\t// in\n    tag_15:\n      mload(0x40)\n      tag_19\n      swap2\n      swap1\n      tag_20\n      jump\t// in\n    tag_19:\n      mload(0x40)\n      dup1\n      swap2\n      sub\n      swap1\n      return\n        /* \"Marketplace.sol\":1494:2036  function buyNFT(address nftContract, uint256 tokenId) public {... */\n    tag_5:\n      tag_21\n      0x04\n      dup1\n      calldatasize\n      sub\n      dup2\n      add\n      swap1\n      tag_22\n      swap2\n      swap1\n      tag_11\n      jump\t// in\n    tag_22:\n      tag_23\n      jump\t// in\n    tag_21:\n      stop\n        /* \"Marketplace.sol\":892:1488  function listNFT(address nftContract, uint256 tokenId, uint256 price) public {... */\n    tag_6:\n      tag_24\n      0x04\n      dup1\n      calldatasize\n      sub\n      dup2\n      add\n      swap1\n      tag_25\n      swap2\n      swap1\n      tag_26\n      jump\t// in\n    tag_25:\n      tag_27\n      jump\t// in\n    tag_24:\n      stop\n        /* \"Marketplace.sol\":2042:2485  function cancelListing(address nftContract, uint256 tokenId) public {... */\n    tag_7:\n      tag_28\n      0x04\n      dup1\n      calldatasize\n      sub\n      dup2\n      add\n      swap1\n      tag_29\n      swap2\n      swap1\n      tag_11\n      jump\t// in\n    tag_29:\n      tag_30\n      jump\t// in\n    tag_28:\n      stop\n        /* \"Marketplace.sol\":288:312  IERC20 public stablecoin */\n    tag_8:\n      tag_31\n      tag_32\n      jump\t// in\n    tag_31:\n      mload(0x40)\n      tag_33\n      swap2\n      swap1\n      tag_34\n      jump\t// in\n    tag_33:\n      mload(0x40)\n      dup1\n      swap2\n      sub\n      swap1\n      return\n        /* \"Marketplace.sol\":415:478  mapping(address => mapping(uint256 => Listing)) public listings */\n    tag_12:\n      mstore(0x20, 0x01)\n      dup2\n      0x00\n      mstore\n      mstore(0x20, keccak256(0x00, 0x40))\n      dup1\n      0x00\n      mstore\n      keccak256(0x00, 0x40)\n      0x00\n      swap2\n      pop\n      swap2\n      pop\n      pop\n      dup1\n      0x00\n      add\n      0x00\n      swap1\n      sload\n      swap1\n      0x0100\n      exp\n      swap1\n      div\n      0xffffffffffffffffffffffffffffffffffffffff\n      and\n      swap1\n      dup1\n      0x01\n      add\n      sload\n      swap1\n      dup1\n      0x02\n      add\n      0x00\n      swap1\n      sload\n      swap1\n      0x0100\n      exp\n      swap1\n      div\n      0xff\n      and\n      swap1\n      pop\n      dup4\n      jump\t// out\n        /* \"Marketplace.sol\":2491:2683  function onERC721Received(... */\n    tag_18:\n        /* \"Marketplace.sol\":2621:2627  bytes4 */\n      0x00\n        /* \"Marketplace.sol\":2646:2676  this.onERC721Received.selector */\n      shl(0xe0, 0x150b7a02)\n        /* \"Marketplace.sol\":2639:2676  return this.onERC721Received.selector */\n      swap1\n      pop\n        /* \"Marketplace.sol\":2491:2683  function onERC721Received(... */\n      swap6\n      swap5\n      pop\n      pop\n      pop\n      pop\n      pop\n      jump\t// out\n        /* \"Marketplace.sol\":1494:2036  function buyNFT(address nftContract, uint256 tokenId) public {... */\n    tag_23:\n        /* \"Marketplace.sol\":1565:1588  Listing storage listing */\n      0x00\n        /* \"Marketplace.sol\":1591:1599  listings */\n      0x01\n        /* \"Marketplace.sol\":1591:1612  listings[nftContract] */\n      0x00\n        /* \"Marketplace.sol\":1600:1611  nftContract */\n      dup5\n        /* \"Marketplace.sol\":1591:1612  listings[nftContract] */\n      0xffffffffffffffffffffffffffffffffffffffff\n      and\n      0xffffffffffffffffffffffffffffffffffffffff\n      and\n      dup2\n      mstore\n      0x20\n      add\n      swap1\n      dup2\n      mstore\n      0x20\n      add\n      0x00\n      keccak256\n        /* \"Marketplace.sol\":1591:1621  listings[nftContract][tokenId] */\n      0x00\n        /* \"Marketplace.sol\":1613:1620  tokenId */\n      dup4\n        /* \"Marketplace.sol\":1591:1621  listings[nftContract][tokenId] */\n      dup2\n      mstore\n      0x20\n      add\n      swap1\n      dup2\n      mstore\n      0x20\n      add\n      0x00\n      keccak256\n        /* \"Marketplace.sol\":1565:1621  Listing storage listing = listings[nftContract][tokenId] */\n      swap1\n      pop\n        /* \"Marketplace.sol\":1639:1646  listing */\n      dup1\n        /* \"Marketplace.sol\":1639:1653  listing.active */\n      0x02\n      add\n      0x00\n      swap1\n      sload\n      swap1\n      0x0100\n      exp\n      swap1\n      div\n      0xff\n      and\n        /* \"Marketplace.sol\":1631:1672  require(listing.active, \"NFT not listed\") */\n      tag_37\n      jumpi\n      mload(0x40)\n      0x08c379a000000000000000000000000000000000000000000000000000000000\n      dup2\n      mstore\n      0x04\n      add\n      tag_38\n      swap1\n      tag_39\n      jump\t// in\n    tag_38:\n      mload(0x40)\n      dup1\n      swap2\n      sub\n      swap1\n      revert\n    tag_37:\n        /* \"Marketplace.sol\":1683:1697  address seller */\n      0x00\n        /* \"Marketplace.sol\":1700:1707  listing */\n      dup2\n        /* \"Marketplace.sol\":1700:1714  listing.seller */\n      0x00\n      add\n      0x00\n      swap1\n      sload\n      swap1\n      0x0100\n      exp\n      swap1\n      div\n      0xffffffffffffffffffffffffffffffffffffffff\n      and\n        /* \"Marketplace.sol\":1683:1714  address seller = listing.seller */\n      swap1\n      pop\n        /* \"Marketplace.sol\":1724:1737  uint256 price */\n      0x00\n        /* \"Marketplace.sol\":1740:1747  listing */\n      dup3\n        /* \"Marketplace.sol\":1740:1753  listing.price */\n      0x01\n      add\n      sload\n        /* \"Marketplace.sol\":1724:1753  uint256 price = listing.price */\n      swap1\n      pop\n        /* \"Marketplace.sol\":1771:1779  listings */\n      0x01\n        /* \"Marketplace.sol\":1771:1792  listings[nftContract] */\n      0x00\n        /* \"Marketplace.sol\":1780:1791  nftContract */\n      dup7\n        /* \"Marketplace.sol\":1771:1792  listings[nftContract] */\n      0xffffffffffffffffffffffffffffffffffffffff\n      and\n      0xffffffffffffffffffffffffffffffffffffffff\n      and\n      dup2\n      mstore\n      0x20\n      add\n      swap1\n      dup2\n      mstore\n      0x20\n      add\n      0x00\n      keccak256\n        /* \"Marketplace.sol\":1771:1801  listings[nftContract][tokenId] */\n      0x00\n        /* \"Marketplace.sol\":1793:1800  tokenId */\n      dup6\n        /* \"Marketplace.sol\":1771:1801  listings[nftContract][tokenId] */\n      dup2\n      mstore\n      0x20\n      add\n      swap1\n      dup2\n      mstore\n      0x20\n      add\n      0x00\n      keccak256\n      0x00\n        /* \"Marketplace.sol\":1764:1801  delete listings[nftContract][tokenId] */\n      0x00\n      dup3\n      add\n      exp(0x0100, 0x00)\n      dup2\n      sload\n      swap1\n      0xffffffffffffffffffffffffffffffffffffffff\n      mul\n      not\n      and\n      swap1\n      sstore\n      0x01\n      dup3\n      add\n      0x00\n      swap1\n      sstore\n      0x02\n      dup3\n      add\n      exp(0x0100, 0x00)\n      dup2\n      sload\n      swap1\n      0xff\n      mul\n      not\n      and\n      swap1\n      sstore\n      pop\n      pop\n        /* \"Marketplace.sol\":1820:1830  stablecoin */\n      0x00\n      0x00\n      swap1\n      sload\n      swap1\n      0x0100\n      exp\n      swap1\n      div\n      0xffffffffffffffffffffffffffffffffffffffff\n      and\n        /* \"Marketplace.sol\":1820:1843  stablecoin.transferFrom */\n      0xffffffffffffffffffffffffffffffffffffffff\n      and\n      0x23b872dd\n        /* \"Marketplace.sol\":1844:1854  msg.sender */\n      caller\n        /* \"Marketplace.sol\":1856:1862  seller */\n      dup5\n        /* \"Marketplace.sol\":1864:1869  price */\n      dup5\n        /* \"Marketplace.sol\":1820:1870  stablecoin.transferFrom(msg.sender, seller, price) */\n      mload(0x40)\n      dup5\n      0xffffffff\n      and\n      0xe0\n      shl\n      dup2\n      mstore\n      0x04\n      add\n      tag_40\n      swap4\n      swap3\n      swap2\n      swap1\n      tag_41\n      jump\t// in\n    tag_40:\n      0x20\n      mload(0x40)\n      dup1\n      dup4\n      sub\n      dup2\n      0x00\n      dup8\n      gas\n      call\n      iszero\n      dup1\n      iszero\n      tag_43\n      jumpi\n      returndatacopy(0x00, 0x00, returndatasize)\n      revert(0x00, returndatasize)\n    tag_43:\n      pop\n      pop\n      pop\n      pop\n      mload(0x40)\n      returndatasize\n      not(0x1f)\n      0x1f\n      dup3\n      add\n      and\n      dup3\n      add\n      dup1\n      0x40\n      mstore\n      pop\n      dup2\n      add\n      swap1\n      tag_44\n      swap2\n      swap1\n      tag_45\n      jump\t// in\n    tag_44:\n        /* \"Marketplace.sol\":1812:1889  require(stablecoin.transferFrom(msg.sender, seller, price), \"Payment failed\") */\n      tag_46\n      jumpi\n      mload(0x40)\n      0x08c379a000000000000000000000000000000000000000000000000000000000\n      dup2\n      mstore\n      0x04\n      add\n      tag_47\n      swap1\n      tag_48\n      jump\t// in\n    tag_47:\n      mload(0x40)\n      dup1\n      swap2\n      sub\n      swap1\n      revert\n    tag_46:\n        /* \"Marketplace.sol\":1907:1918  nftContract */\n      dup5\n        /* \"Marketplace.sol\":1899:1932  IERC721(nftContract).transferFrom */\n      0xffffffffffffffffffffffffffffffffffffffff\n      and\n      0x23b872dd\n        /* \"Marketplace.sol\":1941:1945  this */\n      address\n        /* \"Marketplace.sol\":1948:1958  msg.sender */\n      caller\n        /* \"Marketplace.sol\":1960:1967  tokenId */\n      dup8\n        /* \"Marketplace.sol\":1899:1968  IERC721(nftContract).transferFrom(address(this), msg.sender, tokenId) */\n      mload(0x40)\n      dup5\n      0xffffffff\n      and\n      0xe0\n      shl\n      dup2\n      mstore\n      0x04\n      add\n      tag_49\n      swap4\n      swap3\n      swap2\n      swap1\n      tag_41\n      jump\t// in\n    tag_49:\n      0x00\n      mload(0x40)\n      dup1\n      dup4\n      sub\n      dup2\n      0x00\n      dup8\n      dup1\n      extcodesize\n      iszero\n      dup1\n      iszero\n      tag_50\n      jumpi\n      revert(0x00, 0x00)\n    tag_50:\n      pop\n      gas\n      call\n      iszero\n      dup1\n      iszero\n      tag_52\n      jumpi\n      returndatacopy(0x00, 0x00, returndatasize)\n      revert(0x00, returndatasize)\n    tag_52:\n      pop\n      pop\n      pop\n      pop\n        /* \"Marketplace.sol\":2011:2021  msg.sender */\n      caller\n        /* \"Marketplace.sol\":1984:2029  Sold(nftContract, tokenId, msg.sender, price) */\n      0xffffffffffffffffffffffffffffffffffffffff\n      and\n        /* \"Marketplace.sol\":2002:2009  tokenId */\n      dup5\n        /* \"Marketplace.sol\":1989:2000  nftContract */\n      dup7\n        /* \"Marketplace.sol\":1984:2029  Sold(nftContract, tokenId, msg.sender, price) */\n      0xffffffffffffffffffffffffffffffffffffffff\n      and\n      0x5320a7a9b87f79d5f7316ef1338262f16072733cc053d083f0cd2018928ded64\n        /* \"Marketplace.sol\":2023:2028  price */\n      dup5\n        /* \"Marketplace.sol\":1984:2029  Sold(nftContract, tokenId, msg.sender, price) */\n      mload(0x40)\n      tag_53\n      swap2\n      swap1\n      tag_54\n      jump\t// in\n    tag_53:\n      mload(0x40)\n      dup1\n      swap2\n      sub\n      swap1\n      log4\n        /* \"Marketplace.sol\":1555:2036  {... */\n      pop\n      pop\n      pop\n        /* \"Marketplace.sol\":1494:2036  function buyNFT(address nftContract, uint256 tokenId) public {... */\n      pop\n      pop\n      jump\t// out\n        /* \"Marketplace.sol\":892:1488  function listNFT(address nftContract, uint256 tokenId, uint256 price) public {... */\n    tag_27:\n        /* \"Marketplace.sol\":995:996  0 */\n      0x00\n        /* \"Marketplace.sol\":987:992  price */\n      dup2\n        /* \"Marketplace.sol\":987:996  price > 0 */\n      gt\n        /* \"Marketplace.sol\":979:1029  require(price > 0, \"Price must be greater than 0\") */\n      tag_56\n      jumpi\n      mload(0x40)\n      0x08c379a000000000000000000000000000000000000000000000000000000000\n      dup2\n      mstore\n      0x04\n      add\n      tag_57\n      swap1\n      tag_58\n      jump\t// in\n    tag_57:\n      mload(0x40)\n      dup1\n      swap2\n      sub\n      swap1\n      revert\n    tag_56:\n        /* \"Marketplace.sol\":1088:1098  msg.sender */\n      caller\n        /* \"Marketplace.sol\":1047:1098  IERC721(nftContract).ownerOf(tokenId) == msg.sender */\n      0xffffffffffffffffffffffffffffffffffffffff\n      and\n        /* \"Marketplace.sol\":1055:1066  nftContract */\n      dup4\n        /* \"Marketplace.sol\":1047:1075  IERC721(nftContract).ownerOf */\n      0xffffffffffffffffffffffffffffffffffffffff\n      and\n      0x6352211e\n        /* \"Marketplace.sol\":1076:1083  tokenId */\n      dup5\n        /* \"Marketplace.sol\":1047:1084  IERC721(nftContract).ownerOf(tokenId) */\n      mload(0x40)\n      dup3\n      0xffffffff\n      and\n      0xe0\n      shl\n      dup2\n      mstore\n      0x04\n      add\n      tag_59\n      swap2\n      swap1\n      tag_54\n      jump\t// in\n    tag_59:\n      0x20\n      mload(0x40)\n      dup1\n      dup4\n      sub\n      dup2\n      dup7\n      gas\n      staticcall\n      iszero\n      dup1\n      iszero\n      tag_61\n      jumpi\n      returndatacopy(0x00, 0x00, returndatasize)\n      revert(0x00, returndatasize)\n    tag_61:\n      pop\n      pop\n      pop\n      pop\n      mload(0x40)\n      returndatasize\n      not(0x1f)\n      0x1f\n      dup3\n      add\n      and\n      dup3\n      add\n      dup1\n      0x40\n      mstore\n      pop\n      dup2\n      add\n      swap1\n      tag_62\n      swap2\n      swap1\n      tag_63\n      jump\t// in\n    tag_62:\n        /* \"Marketplace.sol\":1047:1098  IERC721(nftContract).ownerOf(tokenId) == msg.sender */\n      0xffffffffffffffffffffffffffffffffffffffff\n      and\n      eq\n        /* \"Marketplace.sol\":1039:1116  require(IERC721(nftContract).ownerOf(tokenId) == msg.sender, \"Not the owner\") */\n      tag_64\n      jumpi\n      mload(0x40)\n      0x08c379a000000000000000000000000000000000000000000000000000000000\n      dup2\n      mstore\n      0x04\n      add\n      tag_65\n      swap1\n      tag_66\n      jump\t// in\n    tag_65:\n      mload(0x40)\n      dup1\n      swap2\n      sub\n      swap1\n      revert\n    tag_64:\n        /* \"Marketplace.sol\":1135:1143  listings */\n      0x01\n        /* \"Marketplace.sol\":1135:1156  listings[nftContract] */\n      0x00\n        /* \"Marketplace.sol\":1144:1155  nftContract */\n      dup5\n        /* \"Marketplace.sol\":1135:1156  listings[nftContract] */\n      0xffffffffffffffffffffffffffffffffffffffff\n      and\n      0xffffffffffffffffffffffffffffffffffffffff\n      and\n      dup2\n      mstore\n      0x20\n      add\n      swap1\n      dup2\n      mstore\n      0x20\n      add\n      0x00\n      keccak256\n        /* \"Marketplace.sol\":1135:1165  listings[nftContract][tokenId] */\n      0x00\n        /* \"Marketplace.sol\":1157:1164  tokenId */\n      dup4\n        /* \"Marketplace.sol\":1135:1165  listings[nftContract][tokenId] */\n      dup2\n      mstore\n      0x20\n      add\n      swap1\n      dup2\n      mstore\n      0x20\n      add\n      0x00\n      keccak256\n        /* \"Marketplace.sol\":1135:1172  listings[nftContract][tokenId].active */\n      0x02\n      add\n      0x00\n      swap1\n      sload\n      swap1\n      0x0100\n      exp\n      swap1\n      div\n      0xff\n      and\n        /* \"Marketplace.sol\":1134:1172  !listings[nftContract][tokenId].active */\n      iszero\n        /* \"Marketplace.sol\":1126:1191  require(!listings[nftContract][tokenId].active, \"Already listed\") */\n      tag_67\n      jumpi\n      mload(0x40)\n      0x08c379a000000000000000000000000000000000000000000000000000000000\n      dup2\n      mstore\n      0x04\n      add\n      tag_68\n      swap1\n      tag_69\n      jump\t// in\n    tag_68:\n      mload(0x40)\n      dup1\n      swap2\n      sub\n      swap1\n      revert\n    tag_67:\n        /* \"Marketplace.sol\":1210:1221  nftContract */\n      dup3\n        /* \"Marketplace.sol\":1202:1235  IERC721(nftContract).transferFrom */\n      0xffffffffffffffffffffffffffffffffffffffff\n      and\n      0x23b872dd\n        /* \"Marketplace.sol\":1236:1246  msg.sender */\n      caller\n        /* \"Marketplace.sol\":1256:1260  this */\n      address\n        /* \"Marketplace.sol\":1263:1270  tokenId */\n      dup6\n        /* \"Marketplace.sol\":1202:1271  IERC721(nftContract).transferFrom(msg.sender, address(this), tokenId) */\n      mload(0x40)\n      dup5\n      0xffffffff\n      and\n      0xe0\n      shl\n      dup2\n      mstore\n      0x04\n      add\n      tag_70\n      swap4\n      swap3\n      swap2\n      swap1\n      tag_41\n      jump\t// in\n    tag_70:\n      0x00\n      mload(0x40)\n      dup1\n      dup4\n      sub\n      dup2\n      0x00\n      dup8\n      dup1\n      extcodesize\n      iszero\n      dup1\n      iszero\n      tag_71\n      jumpi\n      revert(0x00, 0x00)\n    tag_71:\n      pop\n      gas\n      call\n      iszero\n      dup1\n      iszero\n      tag_73\n      jumpi\n      returndatacopy(0x00, 0x00, returndatasize)\n      revert(0x00, returndatasize)\n    tag_73:\n      pop\n      pop\n      pop\n      pop\n        /* \"Marketplace.sol\":1315:1418  Listing({... */\n      mload(0x40)\n      dup1\n      0x60\n      add\n      0x40\n      mstore\n      dup1\n        /* \"Marketplace.sol\":1345:1355  msg.sender */\n      caller\n        /* \"Marketplace.sol\":1315:1418  Listing({... */\n      0xffffffffffffffffffffffffffffffffffffffff\n      and\n      dup2\n      mstore\n      0x20\n      add\n        /* \"Marketplace.sol\":1376:1381  price */\n      dup3\n        /* \"Marketplace.sol\":1315:1418  Listing({... */\n      dup2\n      mstore\n      0x20\n      add\n        /* \"Marketplace.sol\":1403:1407  true */\n      0x01\n        /* \"Marketplace.sol\":1315:1418  Listing({... */\n      iszero\n      iszero\n      dup2\n      mstore\n      pop\n        /* \"Marketplace.sol\":1282:1290  listings */\n      0x01\n        /* \"Marketplace.sol\":1282:1303  listings[nftContract] */\n      0x00\n        /* \"Marketplace.sol\":1291:1302  nftContract */\n      dup6\n        /* \"Marketplace.sol\":1282:1303  listings[nftContract] */\n      0xffffffffffffffffffffffffffffffffffffffff\n      and\n      0xffffffffffffffffffffffffffffffffffffffff\n      and\n      dup2\n      mstore\n      0x20\n      add\n      swap1\n      dup2\n      mstore\n      0x20\n      add\n      0x00\n      keccak256\n        /* \"Marketplace.sol\":1282:1312  listings[nftContract][tokenId] */\n      0x00\n        /* \"Marketplace.sol\":1304:1311  tokenId */\n      dup5\n        /* \"Marketplace.sol\":1282:1312  listings[nftContract][tokenId] */\n      dup2\n      mstore\n      0x20\n      add\n      swap1\n      dup2\n      mstore\n      0x20\n      add\n      0x00\n      keccak256\n        /* \"Marketplace.sol\":1282:1418  listings[nftContract][tokenId] = Listing({... */\n      0x00\n      dup3\n      add\n      mload\n      dup2\n      0x00\n      add\n      exp(0x0100, 0x00)\n      dup2\n      sload\n      dup2\n      0xffffffffffffffffffffffffffffffffffffffff\n      mul\n      not\n      and\n      swap1\n      dup4\n      0xffffffffffffffffffffffffffffffffffffffff\n      and\n      mul\n      or\n      swap1\n      sstore\n      pop\n      0x20\n      dup3\n      add\n      mload\n      dup2\n      0x01\n      add\n      sstore\n      0x40\n      dup3\n      add\n      mload\n      dup2\n      0x02\n      add\n      exp(0x0100, 0x00)\n      dup2\n      sload\n      dup2\n      0xff\n      mul\n      not\n      and\n      swap1\n      dup4\n      iszero\n      iszero\n      mul\n      or\n      swap1\n      sstore\n      pop\n      swap1\n      pop\n      pop\n        /* \"Marketplace.sol\":1463:1473  msg.sender */\n      caller\n        /* \"Marketplace.sol\":1434:1481  Listed(nftContract, tokenId, msg.sender, price) */\n      0xffffffffffffffffffffffffffffffffffffffff\n      and\n        /* \"Marketplace.sol\":1454:1461  tokenId */\n      dup3\n        /* \"Marketplace.sol\":1441:1452  nftContract */\n      dup5\n        /* \"Marketplace.sol\":1434:1481  Listed(nftContract, tokenId, msg.sender, price) */\n      0xffffffffffffffffffffffffffffffffffffffff\n      and\n      0x8b06cda60618abf2b2d07227f9dd63ec6349ca3269ce0eb18d49122a48362ad8\n        /* \"Marketplace.sol\":1475:1480  price */\n      dup5\n        /* \"Marketplace.sol\":1434:1481  Listed(nftContract, tokenId, msg.sender, price) */\n      mload(0x40)\n      tag_74\n      swap2\n      swap1\n      tag_54\n      jump\t// in\n    tag_74:\n      mload(0x40)\n      dup1\n      swap2\n      sub\n      swap1\n      log4\n        /* \"Marketplace.sol\":892:1488  function listNFT(address nftContract, uint256 tokenId, uint256 price) public {... */\n      pop\n      pop\n      pop\n      jump\t// out\n        /* \"Marketplace.sol\":2042:2485  function cancelListing(address nftContract, uint256 tokenId) public {... */\n    tag_30:\n        /* \"Marketplace.sol\":2120:2143  Listing storage listing */\n      0x00\n        /* \"Marketplace.sol\":2146:2154  listings */\n      0x01\n        /* \"Marketplace.sol\":2146:2167  listings[nftContract] */\n      0x00\n        /* \"Marketplace.sol\":2155:2166  nftContract */\n      dup5\n        /* \"Marketplace.sol\":2146:2167  listings[nftContract] */\n      0xffffffffffffffffffffffffffffffffffffffff\n      and\n      0xffffffffffffffffffffffffffffffffffffffff\n      and\n      dup2\n      mstore\n      0x20\n      add\n      swap1\n      dup2\n      mstore\n      0x20\n      add\n      0x00\n      keccak256\n        /* \"Marketplace.sol\":2146:2176  listings[nftContract][tokenId] */\n      0x00\n        /* \"Marketplace.sol\":2168:2175  tokenId */\n      dup4\n        /* \"Marketplace.sol\":2146:2176  listings[nftContract][tokenId] */\n      dup2\n      mstore\n      0x20\n      add\n      swap1\n      dup2\n      mstore\n      0x20\n      add\n      0x00\n      keccak256\n        /* \"Marketplace.sol\":2120:2176  Listing storage listing = listings[nftContract][tokenId] */\n      swap1\n      pop\n        /* \"Marketplace.sol\":2194:2201  listing */\n      dup1\n        /* \"Marketplace.sol\":2194:2208  listing.active */\n      0x02\n      add\n      0x00\n      swap1\n      sload\n      swap1\n      0x0100\n      exp\n      swap1\n      div\n      0xff\n      and\n        /* \"Marketplace.sol\":2186:2227  require(listing.active, \"NFT not listed\") */\n      tag_76\n      jumpi\n      mload(0x40)\n      0x08c379a000000000000000000000000000000000000000000000000000000000\n      dup2\n      mstore\n      0x04\n      add\n      tag_77\n      swap1\n      tag_39\n      jump\t// in\n    tag_77:\n      mload(0x40)\n      dup1\n      swap2\n      sub\n      swap1\n      revert\n    tag_76:\n        /* \"Marketplace.sol\":2263:2273  msg.sender */\n      caller\n        /* \"Marketplace.sol\":2245:2273  listing.seller == msg.sender */\n      0xffffffffffffffffffffffffffffffffffffffff\n      and\n        /* \"Marketplace.sol\":2245:2252  listing */\n      dup2\n        /* \"Marketplace.sol\":2245:2259  listing.seller */\n      0x00\n      add\n      0x00\n      swap1\n      sload\n      swap1\n      0x0100\n      exp\n      swap1\n      div\n      0xffffffffffffffffffffffffffffffffffffffff\n      and\n        /* \"Marketplace.sol\":2245:2273  listing.seller == msg.sender */\n      0xffffffffffffffffffffffffffffffffffffffff\n      and\n      eq\n        /* \"Marketplace.sol\":2237:2292  require(listing.seller == msg.sender, \"Not the seller\") */\n      tag_78\n      jumpi\n      mload(0x40)\n      0x08c379a000000000000000000000000000000000000000000000000000000000\n      dup2\n      mstore\n      0x04\n      add\n      tag_79\n      swap1\n      tag_80\n      jump\t// in\n    tag_79:\n      mload(0x40)\n      dup1\n      swap2\n      sub\n      swap1\n      revert\n    tag_78:\n        /* \"Marketplace.sol\":2310:2318  listings */\n      0x01\n        /* \"Marketplace.sol\":2310:2331  listings[nftContract] */\n      0x00\n        /* \"Marketplace.sol\":2319:2330  nftContract */\n      dup5\n        /* \"Marketplace.sol\":2310:2331  listings[nftContract] */\n      0xffffffffffffffffffffffffffffffffffffffff\n      and\n      0xffffffffffffffffffffffffffffffffffffffff\n      and\n      dup2\n      mstore\n      0x20\n      add\n      swap1\n      dup2\n      mstore\n      0x20\n      add\n      0x00\n      keccak256\n        /* \"Marketplace.sol\":2310:2340  listings[nftContract][tokenId] */\n      0x00\n        /* \"Marketplace.sol\":2332:2339  tokenId */\n      dup4\n        /* \"Marketplace.sol\":2310:2340  listings[nftContract][tokenId] */\n      dup2\n      mstore\n      0x20\n      add\n      swap1\n      dup2\n      mstore\n      0x20\n      add\n      0x00\n      keccak256\n      0x00\n        /* \"Marketplace.sol\":2303:2340  delete listings[nftContract][tokenId] */\n      0x00\n      dup3\n      add\n      exp(0x0100, 0x00)\n      dup2\n      sload\n      swap1\n      0xffffffffffffffffffffffffffffffffffffffff\n      mul\n      not\n      and\n      swap1\n      sstore\n      0x01\n      dup3\n      add\n      0x00\n      swap1\n      sstore\n      0x02\n      dup3\n      add\n      exp(0x0100, 0x00)\n      dup2\n      sload\n      swap1\n      0xff\n      mul\n      not\n      and\n      swap1\n      sstore\n      pop\n      pop\n        /* \"Marketplace.sol\":2358:2369  nftContract */\n      dup3\n        /* \"Marketplace.sol\":2350:2383  IERC721(nftContract).transferFrom */\n      0xffffffffffffffffffffffffffffffffffffffff\n      and\n      0x23b872dd\n        /* \"Marketplace.sol\":2392:2396  this */\n      address\n        /* \"Marketplace.sol\":2399:2409  msg.sender */\n      caller\n        /* \"Marketplace.sol\":2411:2418  tokenId */\n      dup6\n        /* \"Marketplace.sol\":2350:2419  IERC721(nftContract).transferFrom(address(this), msg.sender, tokenId) */\n      mload(0x40)\n      dup5\n      0xffffffff\n      and\n      0xe0\n      shl\n      dup2\n      mstore\n      0x04\n      add\n      tag_81\n      swap4\n      swap3\n      swap2\n      swap1\n      tag_41\n      jump\t// in\n    tag_81:\n      0x00\n      mload(0x40)\n      dup1\n      dup4\n      sub\n      dup2\n      0x00\n      dup8\n      dup1\n      extcodesize\n      iszero\n      dup1\n      iszero\n      tag_82\n      jumpi\n      revert(0x00, 0x00)\n    tag_82:\n      pop\n      gas\n      call\n      iszero\n      dup1\n      iszero\n      tag_84\n      jumpi\n      returndatacopy(0x00, 0x00, returndatasize)\n      revert(0x00, returndatasize)\n    tag_84:\n      pop\n      pop\n      pop\n      pop\n        /* \"Marketplace.sol\":2467:2477  msg.sender */\n      caller\n        /* \"Marketplace.sol\":2435:2478  Cancelled(nftContract, tokenId, msg.sender) */\n      0xffffffffffffffffffffffffffffffffffffffff\n      and\n        /* \"Marketplace.sol\":2458:2465  tokenId */\n      dup3\n        /* \"Marketplace.sol\":2445:2456  nftContract */\n      dup5\n        /* \"Marketplace.sol\":2435:2478  Cancelled(nftContract, tokenId, msg.sender) */\n      0xffffffffffffffffffffffffffffffffffffffff\n      and\n      0x0c8fde439b4e72d175ffeb3c5f3c15c6f70f473413f4c2d68f8971c0d629b60d\n      mload(0x40)\n      mload(0x40)\n      dup1\n      swap2\n      sub\n      swap1\n      log4\n        /* \"Marketplace.sol\":2110:2485  {... */\n      pop\n        /* \"Marketplace.sol\":2042:2485  function cancelListing(address nftContract, uint256 tokenId) public {... */\n      pop\n      pop\n      jump\t// out\n        /* \"Marketplace.sol\":288:312  IERC20 public stablecoin */\n    tag_32:\n      0x00\n      0x00\n      swap1\n      sload\n      swap1\n      0x0100\n      exp\n      swap1\n      div\n      0xffffffffffffffffffffffffffffffffffffffff\n      and\n      dup2\n      jump\t// out\n        /* \"#utility.yul\":88:205   */\n    tag_86:\n        /* \"#utility.yul\":197:198   */\n      0x00\n        /* \"#utility.yul\":194:195   */\n      0x00\n        /* \"#utility.yul\":187:199   */\n      revert\n        /* \"#utility.yul\":211:328   */\n    tag_87:\n        /* \"#utility.yul\":320:321   */\n      0x00\n        /* \"#utility.yul\":317:318   */\n      0x00\n        /* \"#utility.yul\":310:322   */\n      revert\n        /* \"#utility.yul\":334:460   */\n    tag_88:\n        /* \"#utility.yul\":371:378   */\n      0x00\n        /* \"#utility.yul\":411:453   */\n      0xffffffffffffffffffffffffffffffffffffffff\n        /* \"#utility.yul\":404:409   */\n      dup3\n        /* \"#utility.yul\":400:454   */\n      and\n        /* \"#utility.yul\":389:454   */\n      swap1\n      pop\n        /* \"#utility.yul\":334:460   */\n      swap2\n      swap1\n      pop\n      jump\t// out\n        /* \"#utility.yul\":466:562   */\n    tag_89:\n        /* \"#utility.yul\":503:510   */\n      0x00\n        /* \"#utility.yul\":532:556   */\n      tag_132\n        /* \"#utility.yul\":550:555   */\n      dup3\n        /* \"#utility.yul\":532:556   */\n      tag_88\n      jump\t// in\n    tag_132:\n        /* \"#utility.yul\":521:556   */\n      swap1\n      pop\n        /* \"#utility.yul\":466:562   */\n      swap2\n      swap1\n      pop\n      jump\t// out\n        /* \"#utility.yul\":568:690   */\n    tag_90:\n        /* \"#utility.yul\":641:665   */\n      tag_134\n        /* \"#utility.yul\":659:664   */\n      dup2\n        /* \"#utility.yul\":641:665   */\n      tag_89\n      jump\t// in\n    tag_134:\n        /* \"#utility.yul\":634:639   */\n      dup2\n        /* \"#utility.yul\":631:666   */\n      eq\n        /* \"#utility.yul\":621:684   */\n      tag_135\n      jumpi\n        /* \"#utility.yul\":680:681   */\n      0x00\n        /* \"#utility.yul\":677:678   */\n      0x00\n        /* \"#utility.yul\":670:682   */\n      revert\n        /* \"#utility.yul\":621:684   */\n    tag_135:\n        /* \"#utility.yul\":568:690   */\n      pop\n      jump\t// out\n        /* \"#utility.yul\":696:835   */\n    tag_91:\n        /* \"#utility.yul\":742:747   */\n      0x00\n        /* \"#utility.yul\":780:786   */\n      dup2\n        /* \"#utility.yul\":767:787   */\n      calldataload\n        /* \"#utility.yul\":758:787   */\n      swap1\n      pop\n        /* \"#utility.yul\":796:829   */\n      tag_137\n        /* \"#utility.yul\":823:828   */\n      dup2\n        /* \"#utility.yul\":796:829   */\n      tag_90\n      jump\t// in\n    tag_137:\n        /* \"#utility.yul\":696:835   */\n      swap3\n      swap2\n      pop\n      pop\n      jump\t// out\n        /* \"#utility.yul\":841:918   */\n    tag_92:\n        /* \"#utility.yul\":878:885   */\n      0x00\n        /* \"#utility.yul\":907:912   */\n      dup2\n        /* \"#utility.yul\":896:912   */\n      swap1\n      pop\n        /* \"#utility.yul\":841:918   */\n      swap2\n      swap1\n      pop\n      jump\t// out\n        /* \"#utility.yul\":924:1046   */\n    tag_93:\n        /* \"#utility.yul\":997:1021   */\n      tag_140\n        /* \"#utility.yul\":1015:1020   */\n      dup2\n        /* \"#utility.yul\":997:1021   */\n      tag_92\n      jump\t// in\n    tag_140:\n        /* \"#utility.yul\":990:995   */\n      dup2\n        /* \"#utility.yul\":987:1022   */\n      eq\n        /* \"#utility.yul\":977:1040   */\n      tag_141\n      jumpi\n        /* \"#utility.yul\":1036:1037   */\n      0x00\n        /* \"#utility.yul\":1033:1034   */\n      0x00\n        /* \"#utility.yul\":1026:1038   */\n      revert\n        /* \"#utility.yul\":977:1040   */\n    tag_141:\n        /* \"#utility.yul\":924:1046   */\n      pop\n      jump\t// out\n        /* \"#utility.yul\":1052:1191   */\n    tag_94:\n        /* \"#utility.yul\":1098:1103   */\n      0x00\n        /* \"#utility.yul\":1136:1142   */\n      dup2\n        /* \"#utility.yul\":1123:1143   */\n      calldataload\n        /* \"#utility.yul\":1114:1143   */\n      swap1\n      pop\n        /* \"#utility.yul\":1152:1185   */\n      tag_143\n        /* \"#utility.yul\":1179:1184   */\n      dup2\n        /* \"#utility.yul\":1152:1185   */\n      tag_93\n      jump\t// in\n    tag_143:\n        /* \"#utility.yul\":1052:1191   */\n      swap3\n      swap2\n      pop\n      pop\n      jump\t// out\n        /* \"#utility.yul\":1197:1671   */\n    tag_11:\n        /* \"#utility.yul\":1265:1271   */\n      0x00\n        /* \"#utility.yul\":1273:1279   */\n      0x00\n        /* \"#utility.yul\":1322:1324   */\n      0x40\n        /* \"#utility.yul\":1310:1319   */\n      dup4\n        /* \"#utility.yul\":1301:1308   */\n      dup6\n        /* \"#utility.yul\":1297:1320   */\n      sub\n        /* \"#utility.yul\":1293:1325   */\n      slt\n        /* \"#utility.yul\":1290:1409   */\n      iszero\n      tag_145\n      jumpi\n        /* \"#utility.yul\":1328:1407   */\n      tag_146\n      tag_86\n      jump\t// in\n    tag_146:\n        /* \"#utility.yul\":1290:1409   */\n    tag_145:\n        /* \"#utility.yul\":1448:1449   */\n      0x00\n        /* \"#utility.yul\":1473:1526   */\n      tag_147\n        /* \"#utility.yul\":1518:1525   */\n      dup6\n        /* \"#utility.yul\":1509:1515   */\n      dup3\n        /* \"#utility.yul\":1498:1507   */\n      dup7\n        /* \"#utility.yul\":1494:1516   */\n      add\n        /* \"#utility.yul\":1473:1526   */\n      tag_91\n      jump\t// in\n    tag_147:\n        /* \"#utility.yul\":1463:1526   */\n      swap3\n      pop\n        /* \"#utility.yul\":1419:1536   */\n      pop\n        /* \"#utility.yul\":1575:1577   */\n      0x20\n        /* \"#utility.yul\":1601:1654   */\n      tag_148\n        /* \"#utility.yul\":1646:1653   */\n      dup6\n        /* \"#utility.yul\":1637:1643   */\n      dup3\n        /* \"#utility.yul\":1626:1635   */\n      dup7\n        /* \"#utility.yul\":1622:1644   */\n      add\n        /* \"#utility.yul\":1601:1654   */\n      tag_94\n      jump\t// in\n    tag_148:\n        /* \"#utility.yul\":1591:1654   */\n      swap2\n      pop\n        /* \"#utility.yul\":1546:1664   */\n      pop\n        /* \"#utility.yul\":1197:1671   */\n      swap3\n      pop\n      swap3\n      swap1\n      pop\n      jump\t// out\n        /* \"#utility.yul\":1677:1795   */\n    tag_95:\n        /* \"#utility.yul\":1764:1788   */\n      tag_150\n        /* \"#utility.yul\":1782:1787   */\n      dup2\n        /* \"#utility.yul\":1764:1788   */\n      tag_89\n      jump\t// in\n    tag_150:\n        /* \"#utility.yul\":1759:1762   */\n      dup3\n        /* \"#utility.yul\":1752:1789   */\n      mstore\n        /* \"#utility.yul\":1677:1795   */\n      pop\n      pop\n      jump\t// out\n        /* \"#utility.yul\":1801:1919   */\n    tag_96:\n        /* \"#utility.yul\":1888:1912   */\n      tag_152\n        /* \"#utility.yul\":1906:1911   */\n      dup2\n        /* \"#utility.yul\":1888:1912   */\n      tag_92\n      jump\t// in\n    tag_152:\n        /* \"#utility.yul\":1883:1886   */\n      dup3\n        /* \"#utility.yul\":1876:1913   */\n      mstore\n        /* \"#utility.yul\":1801:1919   */\n      pop\n      pop\n      jump\t// out\n        /* \"#utility.yul\":1925:2015   */\n    tag_97:\n        /* \"#utility.yul\":1959:1966   */\n      0x00\n        /* \"#utility.yul\":2002:2007   */\n      dup2\n        /* \"#utility.yul\":1995:2008   */\n      iszero\n        /* \"#utility.yul\":1988:2009   */\n      iszero\n        /* \"#utility.yul\":1977:2009   */\n      swap1\n      pop\n        /* \"#utility.yul\":1925:2015   */\n      swap2\n      swap1\n      pop\n      jump\t// out\n        /* \"#utility.yul\":2021:2130   */\n    tag_98:\n        /* \"#utility.yul\":2102:2123   */\n      tag_155\n        /* \"#utility.yul\":2117:2122   */\n      dup2\n        /* \"#utility.yul\":2102:2123   */\n      tag_97\n      jump\t// in\n    tag_155:\n        /* \"#utility.yul\":2097:2100   */\n      dup3\n        /* \"#utility.yul\":2090:2124   */\n      mstore\n        /* \"#utility.yul\":2021:2130   */\n      pop\n      pop\n      jump\t// out\n        /* \"#utility.yul\":2136:2566   */\n    tag_14:\n        /* \"#utility.yul\":2279:2283   */\n      0x00\n        /* \"#utility.yul\":2317:2319   */\n      0x60\n        /* \"#utility.yul\":2306:2315   */\n      dup3\n        /* \"#utility.yul\":2302:2320   */\n      add\n        /* \"#utility.yul\":2294:2320   */\n      swap1\n      pop\n        /* \"#utility.yul\":2330:2401   */\n      tag_157\n        /* \"#utility.yul\":2398:2399   */\n      0x00\n        /* \"#utility.yul\":2387:2396   */\n      dup4\n        /* \"#utility.yul\":2383:2400   */\n      add\n        /* \"#utility.yul\":2374:2380   */\n      dup7\n        /* \"#utility.yul\":2330:2401   */\n      tag_95\n      jump\t// in\n    tag_157:\n        /* \"#utility.yul\":2411:2483   */\n      tag_158\n        /* \"#utility.yul\":2479:2481   */\n      0x20\n        /* \"#utility.yul\":2468:2477   */\n      dup4\n        /* \"#utility.yul\":2464:2482   */\n      add\n        /* \"#utility.yul\":2455:2461   */\n      dup6\n        /* \"#utility.yul\":2411:2483   */\n      tag_96\n      jump\t// in\n    tag_158:\n        /* \"#utility.yul\":2493:2559   */\n      tag_159\n        /* \"#utility.yul\":2555:2557   */\n      0x40\n        /* \"#utility.yul\":2544:2553   */\n      dup4\n        /* \"#utility.yul\":2540:2558   */\n      add\n        /* \"#utility.yul\":2531:2537   */\n      dup5\n        /* \"#utility.yul\":2493:2559   */\n      tag_98\n      jump\t// in\n    tag_159:\n        /* \"#utility.yul\":2136:2566   */\n      swap5\n      swap4\n      pop\n      pop\n      pop\n      pop\n      jump\t// out\n        /* \"#utility.yul\":2572:2689   */\n    tag_99:\n        /* \"#utility.yul\":2681:2682   */\n      0x00\n        /* \"#utility.yul\":2678:2679   */\n      0x00\n        /* \"#utility.yul\":2671:2683   */\n      revert\n        /* \"#utility.yul\":2695:2812   */\n    tag_100:\n        /* \"#utility.yul\":2804:2805   */\n      0x00\n        /* \"#utility.yul\":2801:2802   */\n      0x00\n        /* \"#utility.yul\":2794:2806   */\n      revert\n        /* \"#utility.yul\":2818:2935   */\n    tag_101:\n        /* \"#utility.yul\":2927:2928   */\n      0x00\n        /* \"#utility.yul\":2924:2925   */\n      0x00\n        /* \"#utility.yul\":2917:2929   */\n      revert\n        /* \"#utility.yul\":2954:3506   */\n    tag_102:\n        /* \"#utility.yul\":3011:3019   */\n      0x00\n        /* \"#utility.yul\":3021:3027   */\n      0x00\n        /* \"#utility.yul\":3071:3074   */\n      dup4\n        /* \"#utility.yul\":3064:3068   */\n      0x1f\n        /* \"#utility.yul\":3056:3062   */\n      dup5\n        /* \"#utility.yul\":3052:3069   */\n      add\n        /* \"#utility.yul\":3048:3075   */\n      slt\n        /* \"#utility.yul\":3038:3160   */\n      tag_164\n      jumpi\n        /* \"#utility.yul\":3079:3158   */\n      tag_165\n      tag_99\n      jump\t// in\n    tag_165:\n        /* \"#utility.yul\":3038:3160   */\n    tag_164:\n        /* \"#utility.yul\":3192:3198   */\n      dup3\n        /* \"#utility.yul\":3179:3199   */\n      calldataload\n        /* \"#utility.yul\":3169:3199   */\n      swap1\n      pop\n        /* \"#utility.yul\":3222:3240   */\n      0xffffffffffffffff\n        /* \"#utility.yul\":3214:3220   */\n      dup2\n        /* \"#utility.yul\":3211:3241   */\n      gt\n        /* \"#utility.yul\":3208:3325   */\n      iszero\n      tag_166\n      jumpi\n        /* \"#utility.yul\":3244:3323   */\n      tag_167\n      tag_100\n      jump\t// in\n    tag_167:\n        /* \"#utility.yul\":3208:3325   */\n    tag_166:\n        /* \"#utility.yul\":3358:3362   */\n      0x20\n        /* \"#utility.yul\":3350:3356   */\n      dup4\n        /* \"#utility.yul\":3346:3363   */\n      add\n        /* \"#utility.yul\":3334:3363   */\n      swap2\n      pop\n        /* \"#utility.yul\":3412:3415   */\n      dup4\n        /* \"#utility.yul\":3404:3408   */\n      0x01\n        /* \"#utility.yul\":3396:3402   */\n      dup3\n        /* \"#utility.yul\":3392:3409   */\n      mul\n        /* \"#utility.yul\":3382:3390   */\n      dup4\n        /* \"#utility.yul\":3378:3410   */\n      add\n        /* \"#utility.yul\":3375:3416   */\n      gt\n        /* \"#utility.yul\":3372:3500   */\n      iszero\n      tag_168\n      jumpi\n        /* \"#utility.yul\":3419:3498   */\n      tag_169\n      tag_101\n      jump\t// in\n    tag_169:\n        /* \"#utility.yul\":3372:3500   */\n    tag_168:\n        /* \"#utility.yul\":2954:3506   */\n      swap3\n      pop\n      swap3\n      swap1\n      pop\n      jump\t// out\n        /* \"#utility.yul\":3512:4475   */\n    tag_17:\n        /* \"#utility.yul\":3609:3615   */\n      0x00\n        /* \"#utility.yul\":3617:3623   */\n      0x00\n        /* \"#utility.yul\":3625:3631   */\n      0x00\n        /* \"#utility.yul\":3633:3639   */\n      0x00\n        /* \"#utility.yul\":3641:3647   */\n      0x00\n        /* \"#utility.yul\":3690:3693   */\n      0x80\n        /* \"#utility.yul\":3678:3687   */\n      dup7\n        /* \"#utility.yul\":3669:3676   */\n      dup9\n        /* \"#utility.yul\":3665:3688   */\n      sub\n        /* \"#utility.yul\":3661:3694   */\n      slt\n        /* \"#utility.yul\":3658:3778   */\n      iszero\n      tag_171\n      jumpi\n        /* \"#utility.yul\":3697:3776   */\n      tag_172\n      tag_86\n      jump\t// in\n    tag_172:\n        /* \"#utility.yul\":3658:3778   */\n    tag_171:\n        /* \"#utility.yul\":3817:3818   */\n      0x00\n        /* \"#utility.yul\":3842:3895   */\n      tag_173\n        /* \"#utility.yul\":3887:3894   */\n      dup9\n        /* \"#utility.yul\":3878:3884   */\n      dup3\n        /* \"#utility.yul\":3867:3876   */\n      dup10\n        /* \"#utility.yul\":3863:3885   */\n      add\n        /* \"#utility.yul\":3842:3895   */\n      tag_91\n      jump\t// in\n    tag_173:\n        /* \"#utility.yul\":3832:3895   */\n      swap6\n      pop\n        /* \"#utility.yul\":3788:3905   */\n      pop\n        /* \"#utility.yul\":3944:3946   */\n      0x20\n        /* \"#utility.yul\":3970:4023   */\n      tag_174\n        /* \"#utility.yul\":4015:4022   */\n      dup9\n        /* \"#utility.yul\":4006:4012   */\n      dup3\n        /* \"#utility.yul\":3995:4004   */\n      dup10\n        /* \"#utility.yul\":3991:4013   */\n      add\n        /* \"#utility.yul\":3970:4023   */\n      tag_91\n      jump\t// in\n    tag_174:\n        /* \"#utility.yul\":3960:4023   */\n      swap5\n      pop\n        /* \"#utility.yul\":3915:4033   */\n      pop\n        /* \"#utility.yul\":4072:4074   */\n      0x40\n        /* \"#utility.yul\":4098:4151   */\n      tag_175\n        /* \"#utility.yul\":4143:4150   */\n      dup9\n        /* \"#utility.yul\":4134:4140   */\n      dup3\n        /* \"#utility.yul\":4123:4132   */\n      dup10\n        /* \"#utility.yul\":4119:4141   */\n      add\n        /* \"#utility.yul\":4098:4151   */\n      tag_94\n      jump\t// in\n    tag_175:\n        /* \"#utility.yul\":4088:4151   */\n      swap4\n      pop\n        /* \"#utility.yul\":4043:4161   */\n      pop\n        /* \"#utility.yul\":4228:4230   */\n      0x60\n        /* \"#utility.yul\":4217:4226   */\n      dup7\n        /* \"#utility.yul\":4213:4231   */\n      add\n        /* \"#utility.yul\":4200:4232   */\n      calldataload\n        /* \"#utility.yul\":4259:4277   */\n      0xffffffffffffffff\n        /* \"#utility.yul\":4251:4257   */\n      dup2\n        /* \"#utility.yul\":4248:4278   */\n      gt\n        /* \"#utility.yul\":4245:4362   */\n      iszero\n      tag_176\n      jumpi\n        /* \"#utility.yul\":4281:4360   */\n      tag_177\n      tag_87\n      jump\t// in\n    tag_177:\n        /* \"#utility.yul\":4245:4362   */\n    tag_176:\n        /* \"#utility.yul\":4394:4458   */\n      tag_178\n        /* \"#utility.yul\":4450:4457   */\n      dup9\n        /* \"#utility.yul\":4441:4447   */\n      dup3\n        /* \"#utility.yul\":4430:4439   */\n      dup10\n        /* \"#utility.yul\":4426:4448   */\n      add\n        /* \"#utility.yul\":4394:4458   */\n      tag_102\n      jump\t// in\n    tag_178:\n        /* \"#utility.yul\":4376:4458   */\n      swap3\n      pop\n      swap3\n      pop\n        /* \"#utility.yul\":4171:4468   */\n      pop\n        /* \"#utility.yul\":3512:4475   */\n      swap3\n      swap6\n      pop\n      swap3\n      swap6\n      swap1\n      swap4\n      pop\n      jump\t// out\n        /* \"#utility.yul\":4481:4630   */\n    tag_103:\n        /* \"#utility.yul\":4517:4524   */\n      0x00\n        /* \"#utility.yul\":4557:4623   */\n      0xffffffff00000000000000000000000000000000000000000000000000000000\n        /* \"#utility.yul\":4550:4555   */\n      dup3\n        /* \"#utility.yul\":4546:4624   */\n      and\n        /* \"#utility.yul\":4535:4624   */\n      swap1\n      pop\n        /* \"#utility.yul\":4481:4630   */\n      swap2\n      swap1\n      pop\n      jump\t// out\n        /* \"#utility.yul\":4636:4751   */\n    tag_104:\n        /* \"#utility.yul\":4721:4744   */\n      tag_181\n        /* \"#utility.yul\":4738:4743   */\n      dup2\n        /* \"#utility.yul\":4721:4744   */\n      tag_103\n      jump\t// in\n    tag_181:\n        /* \"#utility.yul\":4716:4719   */\n      dup3\n        /* \"#utility.yul\":4709:4745   */\n      mstore\n        /* \"#utility.yul\":4636:4751   */\n      pop\n      pop\n      jump\t// out\n        /* \"#utility.yul\":4757:4975   */\n    tag_20:\n        /* \"#utility.yul\":4848:4852   */\n      0x00\n        /* \"#utility.yul\":4886:4888   */\n      0x20\n        /* \"#utility.yul\":4875:4884   */\n      dup3\n        /* \"#utility.yul\":4871:4889   */\n      add\n        /* \"#utility.yul\":4863:4889   */\n      swap1\n      pop\n        /* \"#utility.yul\":4899:4968   */\n      tag_183\n        /* \"#utility.yul\":4965:4966   */\n      0x00\n        /* \"#utility.yul\":4954:4963   */\n      dup4\n        /* \"#utility.yul\":4950:4967   */\n      add\n        /* \"#utility.yul\":4941:4947   */\n      dup5\n        /* \"#utility.yul\":4899:4968   */\n      tag_104\n      jump\t// in\n    tag_183:\n        /* \"#utility.yul\":4757:4975   */\n      swap3\n      swap2\n      pop\n      pop\n      jump\t// out\n        /* \"#utility.yul\":4981:5600   */\n    tag_26:\n        /* \"#utility.yul\":5058:5064   */\n      0x00\n        /* \"#utility.yul\":5066:5072   */\n      0x00\n        /* \"#utility.yul\":5074:5080   */\n      0x00\n        /* \"#utility.yul\":5123:5125   */\n      0x60\n        /* \"#utility.yul\":5111:5120   */\n      dup5\n        /* \"#utility.yul\":5102:5109   */\n      dup7\n        /* \"#utility.yul\":5098:5121   */\n      sub\n        /* \"#utility.yul\":5094:5126   */\n      slt\n        /* \"#utility.yul\":5091:5210   */\n      iszero\n      tag_185\n      jumpi\n        /* \"#utility.yul\":5129:5208   */\n      tag_186\n      tag_86\n      jump\t// in\n    tag_186:\n        /* \"#utility.yul\":5091:5210   */\n    tag_185:\n        /* \"#utility.yul\":5249:5250   */\n      0x00\n        /* \"#utility.yul\":5274:5327   */\n      tag_187\n        /* \"#utility.yul\":5319:5326   */\n      dup7\n        /* \"#utility.yul\":5310:5316   */\n      dup3\n        /* \"#utility.yul\":5299:5308   */\n      dup8\n        /* \"#utility.yul\":5295:5317   */\n      add\n        /* \"#utility.yul\":5274:5327   */\n      tag_91\n      jump\t// in\n    tag_187:\n        /* \"#utility.yul\":5264:5327   */\n      swap4\n      pop\n        /* \"#utility.yul\":5220:5337   */\n      pop\n        /* \"#utility.yul\":5376:5378   */\n      0x20\n        /* \"#utility.yul\":5402:5455   */\n      tag_188\n        /* \"#utility.yul\":5447:5454   */\n      dup7\n        /* \"#utility.yul\":5438:5444   */\n      dup3\n        /* \"#utility.yul\":5427:5436   */\n      dup8\n        /* \"#utility.yul\":5423:5445   */\n      add\n        /* \"#utility.yul\":5402:5455   */\n      tag_94\n      jump\t// in\n    tag_188:\n        /* \"#utility.yul\":5392:5455   */\n      swap3\n      pop\n        /* \"#utility.yul\":5347:5465   */\n      pop\n        /* \"#utility.yul\":5504:5506   */\n      0x40\n        /* \"#utility.yul\":5530:5583   */\n      tag_189\n        /* \"#utility.yul\":5575:5582   */\n      dup7\n        /* \"#utility.yul\":5566:5572   */\n      dup3\n        /* \"#utility.yul\":5555:5564   */\n      dup8\n        /* \"#utility.yul\":5551:5573   */\n      add\n        /* \"#utility.yul\":5530:5583   */\n      tag_94\n      jump\t// in\n    tag_189:\n        /* \"#utility.yul\":5520:5583   */\n      swap2\n      pop\n        /* \"#utility.yul\":5475:5593   */\n      pop\n        /* \"#utility.yul\":4981:5600   */\n      swap3\n      pop\n      swap3\n      pop\n      swap3\n      jump\t// out\n        /* \"#utility.yul\":5606:5666   */\n    tag_105:\n        /* \"#utility.yul\":5634:5637   */\n      0x00\n        /* \"#utility.yul\":5655:5660   */\n      dup2\n        /* \"#utility.yul\":5648:5660   */\n      swap1\n      pop\n        /* \"#utility.yul\":5606:5666   */\n      swap2\n      swap1\n      pop\n      jump\t// out\n        /* \"#utility.yul\":5672:5814   */\n    tag_106:\n        /* \"#utility.yul\":5722:5731   */\n      0x00\n        /* \"#utility.yul\":5755:5808   */\n      tag_192\n        /* \"#utility.yul\":5773:5807   */\n      tag_193\n        /* \"#utility.yul\":5782:5806   */\n      tag_194\n        /* \"#utility.yul\":5800:5805   */\n      dup5\n        /* \"#utility.yul\":5782:5806   */\n      tag_88\n      jump\t// in\n    tag_194:\n        /* \"#utility.yul\":5773:5807   */\n      tag_105\n      jump\t// in\n    tag_193:\n        /* \"#utility.yul\":5755:5808   */\n      tag_88\n      jump\t// in\n    tag_192:\n        /* \"#utility.yul\":5742:5808   */\n      swap1\n      pop\n        /* \"#utility.yul\":5672:5814   */\n      swap2\n      swap1\n      pop\n      jump\t// out\n        /* \"#utility.yul\":5820:5946   */\n    tag_107:\n        /* \"#utility.yul\":5870:5879   */\n      0x00\n        /* \"#utility.yul\":5903:5940   */\n      tag_196\n        /* \"#utility.yul\":5934:5939   */\n      dup3\n        /* \"#utility.yul\":5903:5940   */\n      tag_106\n      jump\t// in\n    tag_196:\n        /* \"#utility.yul\":5890:5940   */\n      swap1\n      pop\n        /* \"#utility.yul\":5820:5946   */\n      swap2\n      swap1\n      pop\n      jump\t// out\n        /* \"#utility.yul\":5952:6091   */\n    tag_108:\n        /* \"#utility.yul\":6015:6024   */\n      0x00\n        /* \"#utility.yul\":6048:6085   */\n      tag_198\n        /* \"#utility.yul\":6079:6084   */\n      dup3\n        /* \"#utility.yul\":6048:6085   */\n      tag_107\n      jump\t// in\n    tag_198:\n        /* \"#utility.yul\":6035:6085   */\n      swap1\n      pop\n        /* \"#utility.yul\":5952:6091   */\n      swap2\n      swap1\n      pop\n      jump\t// out\n        /* \"#utility.yul\":6097:6254   */\n    tag_109:\n        /* \"#utility.yul\":6197:6247   */\n      tag_200\n        /* \"#utility.yul\":6241:6246   */\n      dup2\n        /* \"#utility.yul\":6197:6247   */\n      tag_108\n      jump\t// in\n    tag_200:\n        /* \"#utility.yul\":6192:6195   */\n      dup3\n        /* \"#utility.yul\":6185:6248   */\n      mstore\n        /* \"#utility.yul\":6097:6254   */\n      pop\n      pop\n      jump\t// out\n        /* \"#utility.yul\":6260:6508   */\n    tag_34:\n        /* \"#utility.yul\":6366:6370   */\n      0x00\n        /* \"#utility.yul\":6404:6406   */\n      0x20\n        /* \"#utility.yul\":6393:6402   */\n      dup3\n        /* \"#utility.yul\":6389:6407   */\n      add\n        /* \"#utility.yul\":6381:6407   */\n      swap1\n      pop\n        /* \"#utility.yul\":6417:6501   */\n      tag_202\n        /* \"#utility.yul\":6498:6499   */\n      0x00\n        /* \"#utility.yul\":6487:6496   */\n      dup4\n        /* \"#utility.yul\":6483:6500   */\n      add\n        /* \"#utility.yul\":6474:6480   */\n      dup5\n        /* \"#utility.yul\":6417:6501   */\n      tag_109\n      jump\t// in\n    tag_202:\n        /* \"#utility.yul\":6260:6508   */\n      swap3\n      swap2\n      pop\n      pop\n      jump\t// out\n        /* \"#utility.yul\":6514:6683   */\n    tag_110:\n        /* \"#utility.yul\":6598:6609   */\n      0x00\n        /* \"#utility.yul\":6632:6638   */\n      dup3\n        /* \"#utility.yul\":6627:6630   */\n      dup3\n        /* \"#utility.yul\":6620:6639   */\n      mstore\n        /* \"#utility.yul\":6672:6676   */\n      0x20\n        /* \"#utility.yul\":6667:6670   */\n      dup3\n        /* \"#utility.yul\":6663:6677   */\n      add\n        /* \"#utility.yul\":6648:6677   */\n      swap1\n      pop\n        /* \"#utility.yul\":6514:6683   */\n      swap3\n      swap2\n      pop\n      pop\n      jump\t// out\n        /* \"#utility.yul\":6689:6853   */\n    tag_111:\n        /* \"#utility.yul\":6829:6845   */\n      0x4e4654206e6f74206c6973746564000000000000000000000000000000000000\n        /* \"#utility.yul\":6825:6826   */\n      0x00\n        /* \"#utility.yul\":6817:6823   */\n      dup3\n        /* \"#utility.yul\":6813:6827   */\n      add\n        /* \"#utility.yul\":6806:6846   */\n      mstore\n        /* \"#utility.yul\":6689:6853   */\n      pop\n      jump\t// out\n        /* \"#utility.yul\":6859:7225   */\n    tag_112:\n        /* \"#utility.yul\":7001:7004   */\n      0x00\n        /* \"#utility.yul\":7022:7089   */\n      tag_206\n        /* \"#utility.yul\":7086:7088   */\n      0x0e\n        /* \"#utility.yul\":7081:7084   */\n      dup4\n        /* \"#utility.yul\":7022:7089   */\n      tag_110\n      jump\t// in\n    tag_206:\n        /* \"#utility.yul\":7015:7089   */\n      swap2\n      pop\n        /* \"#utility.yul\":7098:7191   */\n      tag_207\n        /* \"#utility.yul\":7187:7190   */\n      dup3\n        /* \"#utility.yul\":7098:7191   */\n      tag_111\n      jump\t// in\n    tag_207:\n        /* \"#utility.yul\":7216:7218   */\n      0x20\n        /* \"#utility.yul\":7211:7214   */\n      dup3\n        /* \"#utility.yul\":7207:7219   */\n      add\n        /* \"#utility.yul\":7200:7219   */\n      swap1\n      pop\n        /* \"#utility.yul\":6859:7225   */\n      swap2\n      swap1\n      pop\n      jump\t// out\n        /* \"#utility.yul\":7231:7650   */\n    tag_39:\n        /* \"#utility.yul\":7397:7401   */\n      0x00\n        /* \"#utility.yul\":7435:7437   */\n      0x20\n        /* \"#utility.yul\":7424:7433   */\n      dup3\n        /* \"#utility.yul\":7420:7438   */\n      add\n        /* \"#utility.yul\":7412:7438   */\n      swap1\n      pop\n        /* \"#utility.yul\":7484:7493   */\n      dup2\n        /* \"#utility.yul\":7478:7482   */\n      dup2\n        /* \"#utility.yul\":7474:7494   */\n      sub\n        /* \"#utility.yul\":7470:7471   */\n      0x00\n        /* \"#utility.yul\":7459:7468   */\n      dup4\n        /* \"#utility.yul\":7455:7472   */\n      add\n        /* \"#utility.yul\":7448:7495   */\n      mstore\n        /* \"#utility.yul\":7512:7643   */\n      tag_209\n        /* \"#utility.yul\":7638:7642   */\n      dup2\n        /* \"#utility.yul\":7512:7643   */\n      tag_112\n      jump\t// in\n    tag_209:\n        /* \"#utility.yul\":7504:7643   */\n      swap1\n      pop\n        /* \"#utility.yul\":7231:7650   */\n      swap2\n      swap1\n      pop\n      jump\t// out\n        /* \"#utility.yul\":7656:8098   */\n    tag_41:\n        /* \"#utility.yul\":7805:7809   */\n      0x00\n        /* \"#utility.yul\":7843:7845   */\n      0x60\n        /* \"#utility.yul\":7832:7841   */\n      dup3\n        /* \"#utility.yul\":7828:7846   */\n      add\n        /* \"#utility.yul\":7820:7846   */\n      swap1\n      pop\n        /* \"#utility.yul\":7856:7927   */\n      tag_211\n        /* \"#utility.yul\":7924:7925   */\n      0x00\n        /* \"#utility.yul\":7913:7922   */\n      dup4\n        /* \"#utility.yul\":7909:7926   */\n      add\n        /* \"#utility.yul\":7900:7906   */\n      dup7\n        /* \"#utility.yul\":7856:7927   */\n      tag_95\n      jump\t// in\n    tag_211:\n        /* \"#utility.yul\":7937:8009   */\n      tag_212\n        /* \"#utility.yul\":8005:8007   */\n      0x20\n        /* \"#utility.yul\":7994:8003   */\n      dup4\n        /* \"#utility.yul\":7990:8008   */\n      add\n        /* \"#utility.yul\":7981:7987   */\n      dup6\n        /* \"#utility.yul\":7937:8009   */\n      tag_95\n      jump\t// in\n    tag_212:\n        /* \"#utility.yul\":8019:8091   */\n      tag_213\n        /* \"#utility.yul\":8087:8089   */\n      0x40\n        /* \"#utility.yul\":8076:8085   */\n      dup4\n        /* \"#utility.yul\":8072:8090   */\n      add\n        /* \"#utility.yul\":8063:8069   */\n      dup5\n        /* \"#utility.yul\":8019:8091   */\n      tag_96\n      jump\t// in\n    tag_213:\n        /* \"#utility.yul\":7656:8098   */\n      swap5\n      swap4\n      pop\n      pop\n      pop\n      pop\n      jump\t// out\n        /* \"#utility.yul\":8104:8220   */\n    tag_113:\n        /* \"#utility.yul\":8174:8195   */\n      tag_215\n        /* \"#utility.yul\":8189:8194   */\n      dup2\n        /* \"#utility.yul\":8174:8195   */\n      tag_97\n      jump\t// in\n    tag_215:\n        /* \"#utility.yul\":8167:8172   */\n      dup2\n        /* \"#utility.yul\":8164:8196   */\n      eq\n        /* \"#utility.yul\":8154:8214   */\n      tag_216\n      jumpi\n        /* \"#utility.yul\":8210:8211   */\n      0x00\n        /* \"#utility.yul\":8207:8208   */\n      0x00\n        /* \"#utility.yul\":8200:8212   */\n      revert\n        /* \"#utility.yul\":8154:8214   */\n    tag_216:\n        /* \"#utility.yul\":8104:8220   */\n      pop\n      jump\t// out\n        /* \"#utility.yul\":8226:8363   */\n    tag_114:\n        /* \"#utility.yul\":8280:8285   */\n      0x00\n        /* \"#utility.yul\":8311:8317   */\n      dup2\n        /* \"#utility.yul\":8305:8318   */\n      mload\n        /* \"#utility.yul\":8296:8318   */\n      swap1\n      pop\n        /* \"#utility.yul\":8327:8357   */\n      tag_218\n        /* \"#utility.yul\":8351:8356   */\n      dup2\n        /* \"#utility.yul\":8327:8357   */\n      tag_113\n      jump\t// in\n    tag_218:\n        /* \"#utility.yul\":8226:8363   */\n      swap3\n      swap2\n      pop\n      pop\n      jump\t// out\n        /* \"#utility.yul\":8369:8714   */\n    tag_45:\n        /* \"#utility.yul\":8436:8442   */\n      0x00\n        /* \"#utility.yul\":8485:8487   */\n      0x20\n        /* \"#utility.yul\":8473:8482   */\n      dup3\n        /* \"#utility.yul\":8464:8471   */\n      dup5\n        /* \"#utility.yul\":8460:8483   */\n      sub\n        /* \"#utility.yul\":8456:8488   */\n      slt\n        /* \"#utility.yul\":8453:8572   */\n      iszero\n      tag_220\n      jumpi\n        /* \"#utility.yul\":8491:8570   */\n      tag_221\n      tag_86\n      jump\t// in\n    tag_221:\n        /* \"#utility.yul\":8453:8572   */\n    tag_220:\n        /* \"#utility.yul\":8611:8612   */\n      0x00\n        /* \"#utility.yul\":8636:8697   */\n      tag_222\n        /* \"#utility.yul\":8689:8696   */\n      dup5\n        /* \"#utility.yul\":8680:8686   */\n      dup3\n        /* \"#utility.yul\":8669:8678   */\n      dup6\n        /* \"#utility.yul\":8665:8687   */\n      add\n        /* \"#utility.yul\":8636:8697   */\n      tag_114\n      jump\t// in\n    tag_222:\n        /* \"#utility.yul\":8626:8697   */\n      swap2\n      pop\n        /* \"#utility.yul\":8582:8707   */\n      pop\n        /* \"#utility.yul\":8369:8714   */\n      swap3\n      swap2\n      pop\n      pop\n      jump\t// out\n        /* \"#utility.yul\":8720:8884   */\n    tag_115:\n        /* \"#utility.yul\":8860:8876   */\n      0x5061796d656e74206661696c6564000000000000000000000000000000000000\n        /* \"#utility.yul\":8856:8857   */\n      0x00\n        /* \"#utility.yul\":8848:8854   */\n      dup3\n        /* \"#utility.yul\":8844:8858   */\n      add\n        /* \"#utility.yul\":8837:8877   */\n      mstore\n        /* \"#utility.yul\":8720:8884   */\n      pop\n      jump\t// out\n        /* \"#utility.yul\":8890:9256   */\n    tag_116:\n        /* \"#utility.yul\":9032:9035   */\n      0x00\n        /* \"#utility.yul\":9053:9120   */\n      tag_225\n        /* \"#utility.yul\":9117:9119   */\n      0x0e\n        /* \"#utility.yul\":9112:9115   */\n      dup4\n        /* \"#utility.yul\":9053:9120   */\n      tag_110\n      jump\t// in\n    tag_225:\n        /* \"#utility.yul\":9046:9120   */\n      swap2\n      pop\n        /* \"#utility.yul\":9129:9222   */\n      tag_226\n        /* \"#utility.yul\":9218:9221   */\n      dup3\n        /* \"#utility.yul\":9129:9222   */\n      tag_115\n      jump\t// in\n    tag_226:\n        /* \"#utility.yul\":9247:9249   */\n      0x20\n        /* \"#utility.yul\":9242:9245   */\n      dup3\n        /* \"#utility.yul\":9238:9250   */\n      add\n        /* \"#utility.yul\":9231:9250   */\n      swap1\n      pop\n        /* \"#utility.yul\":8890:9256   */\n      swap2\n      swap1\n      pop\n      jump\t// out\n        /* \"#utility.yul\":9262:9681   */\n    tag_48:\n        /* \"#utility.yul\":9428:9432   */\n      0x00\n        /* \"#utility.yul\":9466:9468   */\n      0x20\n        /* \"#utility.yul\":9455:9464   */\n      dup3\n        /* \"#utility.yul\":9451:9469   */\n      add\n        /* \"#utility.yul\":9443:9469   */\n      swap1\n      pop\n        /* \"#utility.yul\":9515:9524   */\n      dup2\n        /* \"#utility.yul\":9509:9513   */\n      dup2\n        /* \"#utility.yul\":9505:9525   */\n      sub\n        /* \"#utility.yul\":9501:9502   */\n      0x00\n        /* \"#utility.yul\":9490:9499   */\n      dup4\n        /* \"#utility.yul\":9486:9503   */\n      add\n        /* \"#utility.yul\":9479:9526   */\n      mstore\n        /* \"#utility.yul\":9543:9674   */\n      tag_228\n        /* \"#utility.yul\":9669:9673   */\n      dup2\n        /* \"#utility.yul\":9543:9674   */\n      tag_116\n      jump\t// in\n    tag_228:\n        /* \"#utility.yul\":9535:9674   */\n      swap1\n      pop\n        /* \"#utility.yul\":9262:9681   */\n      swap2\n      swap1\n      pop\n      jump\t// out\n        /* \"#utility.yul\":9687:9909   */\n    tag_54:\n        /* \"#utility.yul\":9780:9784   */\n      0x00\n        /* \"#utility.yul\":9818:9820   */\n      0x20\n        /* \"#utility.yul\":9807:9816   */\n      dup3\n        /* \"#utility.yul\":9803:9821   */\n      add\n        /* \"#utility.yul\":9795:9821   */\n      swap1\n      pop\n        /* \"#utility.yul\":9831:9902   */\n      tag_230\n        /* \"#utility.yul\":9899:9900   */\n      0x00\n        /* \"#utility.yul\":9888:9897   */\n      dup4\n        /* \"#utility.yul\":9884:9901   */\n      add\n        /* \"#utility.yul\":9875:9881   */\n      dup5\n        /* \"#utility.yul\":9831:9902   */\n      tag_96\n      jump\t// in\n    tag_230:\n        /* \"#utility.yul\":9687:9909   */\n      swap3\n      swap2\n      pop\n      pop\n      jump\t// out\n        /* \"#utility.yul\":9915:10093   */\n    tag_117:\n        /* \"#utility.yul\":10055:10085   */\n      0x5072696365206d7573742062652067726561746572207468616e203000000000\n        /* \"#utility.yul\":10051:10052   */\n      0x00\n        /* \"#utility.yul\":10043:10049   */\n      dup3\n        /* \"#utility.yul\":10039:10053   */\n      add\n        /* \"#utility.yul\":10032:10086   */\n      mstore\n        /* \"#utility.yul\":9915:10093   */\n      pop\n      jump\t// out\n        /* \"#utility.yul\":10099:10465   */\n    tag_118:\n        /* \"#utility.yul\":10241:10244   */\n      0x00\n        /* \"#utility.yul\":10262:10329   */\n      tag_233\n        /* \"#utility.yul\":10326:10328   */\n      0x1c\n        /* \"#utility.yul\":10321:10324   */\n      dup4\n        /* \"#utility.yul\":10262:10329   */\n      tag_110\n      jump\t// in\n    tag_233:\n        /* \"#utility.yul\":10255:10329   */\n      swap2\n      pop\n        /* \"#utility.yul\":10338:10431   */\n      tag_234\n        /* \"#utility.yul\":10427:10430   */\n      dup3\n        /* \"#utility.yul\":10338:10431   */\n      tag_117\n      jump\t// in\n    tag_234:\n        /* \"#utility.yul\":10456:10458   */\n      0x20\n        /* \"#utility.yul\":10451:10454   */\n      dup3\n        /* \"#utility.yul\":10447:10459   */\n      add\n        /* \"#utility.yul\":10440:10459   */\n      swap1\n      pop\n        /* \"#utility.yul\":10099:10465   */\n      swap2\n      swap1\n      pop\n      jump\t// out\n        /* \"#utility.yul\":10471:10890   */\n    tag_58:\n        /* \"#utility.yul\":10637:10641   */\n      0x00\n        /* \"#utility.yul\":10675:10677   */\n      0x20\n        /* \"#utility.yul\":10664:10673   */\n      dup3\n        /* \"#utility.yul\":10660:10678   */\n      add\n        /* \"#utility.yul\":10652:10678   */\n      swap1\n      pop\n        /* \"#utility.yul\":10724:10733   */\n      dup2\n        /* \"#utility.yul\":10718:10722   */\n      dup2\n        /* \"#utility.yul\":10714:10734   */\n      sub\n        /* \"#utility.yul\":10710:10711   */\n      0x00\n        /* \"#utility.yul\":10699:10708   */\n      dup4\n        /* \"#utility.yul\":10695:10712   */\n      add\n        /* \"#utility.yul\":10688:10735   */\n      mstore\n        /* \"#utility.yul\":10752:10883   */\n      tag_236\n        /* \"#utility.yul\":10878:10882   */\n      dup2\n        /* \"#utility.yul\":10752:10883   */\n      tag_118\n      jump\t// in\n    tag_236:\n        /* \"#utility.yul\":10744:10883   */\n      swap1\n      pop\n        /* \"#utility.yul\":10471:10890   */\n      swap2\n      swap1\n      pop\n      jump\t// out\n        /* \"#utility.yul\":10896:11039   */\n    tag_119:\n        /* \"#utility.yul\":10953:10958   */\n      0x00\n        /* \"#utility.yul\":10984:10990   */\n      dup2\n        /* \"#utility.yul\":10978:10991   */\n      mload\n        /* \"#utility.yul\":10969:10991   */\n      swap1\n      pop\n        /* \"#utility.yul\":11000:11033   */\n      tag_238\n        /* \"#utility.yul\":11027:11032   */\n      dup2\n        /* \"#utility.yul\":11000:11033   */\n      tag_90\n      jump\t// in\n    tag_238:\n        /* \"#utility.yul\":10896:11039   */\n      swap3\n      swap2\n      pop\n      pop\n      jump\t// out\n        /* \"#utility.yul\":11045:11396   */\n    tag_63:\n        /* \"#utility.yul\":11115:11121   */\n      0x00\n        /* \"#utility.yul\":11164:11166   */\n      0x20\n        /* \"#utility.yul\":11152:11161   */\n      dup3\n        /* \"#utility.yul\":11143:11150   */\n      dup5\n        /* \"#utility.yul\":11139:11162   */\n      sub\n        /* \"#utility.yul\":11135:11167   */\n      slt\n        /* \"#utility.yul\":11132:11251   */\n      iszero\n      tag_240\n      jumpi\n        /* \"#utility.yul\":11170:11249   */\n      tag_241\n      tag_86\n      jump\t// in\n    tag_241:\n        /* \"#utility.yul\":11132:11251   */\n    tag_240:\n        /* \"#utility.yul\":11290:11291   */\n      0x00\n        /* \"#utility.yul\":11315:11379   */\n      tag_242\n        /* \"#utility.yul\":11371:11378   */\n      dup5\n        /* \"#utility.yul\":11362:11368   */\n      dup3\n        /* \"#utility.yul\":11351:11360   */\n      dup6\n        /* \"#utility.yul\":11347:11369   */\n      add\n        /* \"#utility.yul\":11315:11379   */\n      tag_119\n      jump\t// in\n    tag_242:\n        /* \"#utility.yul\":11305:11379   */\n      swap2\n      pop\n        /* \"#utility.yul\":11261:11389   */\n      pop\n        /* \"#utility.yul\":11045:11396   */\n      swap3\n      swap2\n      pop\n      pop\n      jump\t// out\n        /* \"#utility.yul\":11402:11565   */\n    tag_120:\n        /* \"#utility.yul\":11542:11557   */\n      0x4e6f7420746865206f776e657200000000000000000000000000000000000000\n        /* \"#utility.yul\":11538:11539   */\n      0x00\n        /* \"#utility.yul\":11530:11536   */\n      dup3\n        /* \"#utility.yul\":11526:11540   */\n      add\n        /* \"#utility.yul\":11519:11558   */\n      mstore\n        /* \"#utility.yul\":11402:11565   */\n      pop\n      jump\t// out\n        /* \"#utility.yul\":11571:11937   */\n    tag_121:\n        /* \"#utility.yul\":11713:11716   */\n      0x00\n        /* \"#utility.yul\":11734:11801   */\n      tag_245\n        /* \"#utility.yul\":11798:11800   */\n      0x0d\n        /* \"#utility.yul\":11793:11796   */\n      dup4\n        /* \"#utility.yul\":11734:11801   */\n      tag_110\n      jump\t// in\n    tag_245:\n        /* \"#utility.yul\":11727:11801   */\n      swap2\n      pop\n        /* \"#utility.yul\":11810:11903   */\n      tag_246\n        /* \"#utility.yul\":11899:11902   */\n      dup3\n        /* \"#utility.yul\":11810:11903   */\n      tag_120\n      jump\t// in\n    tag_246:\n        /* \"#utility.yul\":11928:11930   */\n      0x20\n        /* \"#utility.yul\":11923:11926   */\n      dup3\n        /* \"#utility.yul\":11919:11931   */\n      add\n        /* \"#utility.yul\":11912:11931   */\n      swap1\n      pop\n        /* \"#utility.yul\":11571:11937   */\n      swap2\n      swap1\n      pop\n      jump\t// out\n        /* \"#utility.yul\":11943:12362   */\n    tag_66:\n        /* \"#utility.yul\":12109:12113   */\n      0x00\n        /* \"#utility.yul\":12147:12149   */\n      0x20\n        /* \"#utility.yul\":12136:12145   */\n      dup3\n        /* \"#utility.yul\":12132:12150   */\n      add\n        /* \"#utility.yul\":12124:12150   */\n      swap1\n      pop\n        /* \"#utility.yul\":12196:12205   */\n      dup2\n        /* \"#utility.yul\":12190:12194   */\n      dup2\n        /* \"#utility.yul\":12186:12206   */\n      sub\n        /* \"#utility.yul\":12182:12183   */\n      0x00\n        /* \"#utility.yul\":12171:12180   */\n      dup4\n        /* \"#utility.yul\":12167:12184   */\n      add\n        /* \"#utility.yul\":12160:12207   */\n      mstore\n        /* \"#utility.yul\":12224:12355   */\n      tag_248\n        /* \"#utility.yul\":12350:12354   */\n      dup2\n        /* \"#utility.yul\":12224:12355   */\n      tag_121\n      jump\t// in\n    tag_248:\n        /* \"#utility.yul\":12216:12355   */\n      swap1\n      pop\n        /* \"#utility.yul\":11943:12362   */\n      swap2\n      swap1\n      pop\n      jump\t// out\n        /* \"#utility.yul\":12368:12532   */\n    tag_122:\n        /* \"#utility.yul\":12508:12524   */\n      0x416c7265616479206c6973746564000000000000000000000000000000000000\n        /* \"#utility.yul\":12504:12505   */\n      0x00\n        /* \"#utility.yul\":12496:12502   */\n      dup3\n        /* \"#utility.yul\":12492:12506   */\n      add\n        /* \"#utility.yul\":12485:12525   */\n      mstore\n        /* \"#utility.yul\":12368:12532   */\n      pop\n      jump\t// out\n        /* \"#utility.yul\":12538:12904   */\n    tag_123:\n        /* \"#utility.yul\":12680:12683   */\n      0x00\n        /* \"#utility.yul\":12701:12768   */\n      tag_251\n        /* \"#utility.yul\":12765:12767   */\n      0x0e\n        /* \"#utility.yul\":12760:12763   */\n      dup4\n        /* \"#utility.yul\":12701:12768   */\n      tag_110\n      jump\t// in\n    tag_251:\n        /* \"#utility.yul\":12694:12768   */\n      swap2\n      pop\n        /* \"#utility.yul\":12777:12870   */\n      tag_252\n        /* \"#utility.yul\":12866:12869   */\n      dup3\n        /* \"#utility.yul\":12777:12870   */\n      tag_122\n      jump\t// in\n    tag_252:\n        /* \"#utility.yul\":12895:12897   */\n      0x20\n        /* \"#utility.yul\":12890:12893   */\n      dup3\n        /* \"#utility.yul\":12886:12898   */\n      add\n        /* \"#utility.yul\":12879:12898   */\n      swap1\n      pop\n        /* \"#utility.yul\":12538:12904   */\n      swap2\n      swap1\n      pop\n      jump\t// out\n        /* \"#utility.yul\":12910:13329   */\n    tag_69:\n        /* \"#utility.yul\":13076:13080   */\n      0x00\n        /* \"#utility.yul\":13114:13116   */\n      0x20\n        /* \"#utility.yul\":13103:13112   */\n      dup3\n        /* \"#utility.yul\":13099:13117   */\n      add\n        /* \"#utility.yul\":13091:13117   */\n      swap1\n      pop\n        /* \"#utility.yul\":13163:13172   */\n      dup2\n        /* \"#utility.yul\":13157:13161   */\n      dup2\n        /* \"#utility.yul\":13153:13173   */\n      sub\n        /* \"#utility.yul\":13149:13150   */\n      0x00\n        /* \"#utility.yul\":13138:13147   */\n      dup4\n        /* \"#utility.yul\":13134:13151   */\n      add\n        /* \"#utility.yul\":13127:13174   */\n      mstore\n        /* \"#utility.yul\":13191:13322   */\n      tag_254\n        /* \"#utility.yul\":13317:13321   */\n      dup2\n        /* \"#utility.yul\":13191:13322   */\n      tag_123\n      jump\t// in\n    tag_254:\n        /* \"#utility.yul\":13183:13322   */\n      swap1\n      pop\n        /* \"#utility.yul\":12910:13329   */\n      swap2\n      swap1\n      pop\n      jump\t// out\n        /* \"#utility.yul\":13335:13499   */\n    tag_124:\n        /* \"#utility.yul\":13475:13491   */\n      0x4e6f74207468652073656c6c6572000000000000000000000000000000000000\n        /* \"#utility.yul\":13471:13472   */\n      0x00\n        /* \"#utility.yul\":13463:13469   */\n      dup3\n        /* \"#utility.yul\":13459:13473   */\n      add\n        /* \"#utility.yul\":13452:13492   */\n      mstore\n        /* \"#utility.yul\":13335:13499   */\n      pop\n      jump\t// out\n        /* \"#utility.yul\":13505:13871   */\n    tag_125:\n        /* \"#utility.yul\":13647:13650   */\n      0x00\n        /* \"#utility.yul\":13668:13735   */\n      tag_257\n        /* \"#utility.yul\":13732:13734   */\n      0x0e\n        /* \"#utility.yul\":13727:13730   */\n      dup4\n        /* \"#utility.yul\":13668:13735   */\n      tag_110\n      jump\t// in\n    tag_257:\n        /* \"#utility.yul\":13661:13735   */\n      swap2\n      pop\n        /* \"#utility.yul\":13744:13837   */\n      tag_258\n        /* \"#utility.yul\":13833:13836   */\n      dup3\n        /* \"#utility.yul\":13744:13837   */\n      tag_124\n      jump\t// in\n    tag_258:\n        /* \"#utility.yul\":13862:13864   */\n      0x20\n        /* \"#utility.yul\":13857:13860   */\n      dup3\n        /* \"#utility.yul\":13853:13865   */\n      add\n        /* \"#utility.yul\":13846:13865   */\n      swap1\n      pop\n        /* \"#utility.yul\":13505:13871   */\n      swap2\n      swap1\n      pop\n      jump\t// out\n        /* \"#utility.yul\":13877:14296   */\n    tag_80:\n        /* \"#utility.yul\":14043:14047   */\n      0x00\n        /* \"#utility.yul\":14081:14083   */\n      0x20\n        /* \"#utility.yul\":14070:14079   */\n      dup3\n        /* \"#utility.yul\":14066:14084   */\n      add\n        /* \"#utility.yul\":14058:14084   */\n      swap1\n      pop\n        /* \"#utility.yul\":14130:14139   */\n      dup2\n        /* \"#utility.yul\":14124:14128   */\n      dup2\n        /* \"#utility.yul\":14120:14140   */\n      sub\n        /* \"#utility.yul\":14116:14117   */\n      0x00\n        /* \"#utility.yul\":14105:14114   */\n      dup4\n        /* \"#utility.yul\":14101:14118   */\n      add\n        /* \"#utility.yul\":14094:14141   */\n      mstore\n        /* \"#utility.yul\":14158:14289   */\n      tag_260\n        /* \"#utility.yul\":14284:14288   */\n      dup2\n        /* \"#utility.yul\":14158:14289   */\n      tag_125\n      jump\t// in\n    tag_260:\n        /* \"#utility.yul\":14150:14289   */\n      swap1\n      pop\n        /* \"#utility.yul\":13877:14296   */\n      swap2\n      swap1\n      pop\n      jump\t// out\n\n    auxdata: 0xa2646970667358221220c0020741779b3c0f075cd70798985470083546e8fd18a92dc2cd0cfc5e45f8d664736f6c634300081e0033\n}\n",
				"bytecode": {
					"linkReferences": {},
					"object": "608060405234801561000f575f5ffd5b506040516112c83803806112c8833981810160405281019061003191906100d4565b805f5f6101000a81548173ffffffffffffffffffffffffffffffffffffffff021916908373ffffffffffffffffffffffffffffffffffffffff160217905550506100ff565b5f5ffd5b5f73ffffffffffffffffffffffffffffffffffffffff82169050919050565b5f6100a38261007a565b9050919050565b6100b381610099565b81146100bd575f5ffd5b50565b5f815190506100ce816100aa565b92915050565b5f602082840312156100e9576100e8610076565b5b5f6100f6848285016100c0565b91505092915050565b6111bc8061010c5f395ff3fe608060405234801561000f575f5ffd5b506004361061005f575f3560e01c806207df3014610063578063150b7a0214610095578063a82ba76f146100c5578063ad05f1b4146100e1578063b2ddee06146100fd578063e9cbd82214610119575b5f5ffd5b61007d60048036038101906100789190610b7d565b610137565b60405161008c93929190610bf3565b60405180910390f35b6100af60048036038101906100aa9190610c89565b610193565b6040516100bc9190610d47565b60405180910390f35b6100df60048036038101906100da9190610b7d565b6101a7565b005b6100fb60048036038101906100f69190610d60565b6104b5565b005b61011760048036038101906101129190610b7d565b61083d565b005b610121610ac4565b60405161012e9190610e0b565b60405180910390f35b6001602052815f5260405f20602052805f5260405f205f9150915050805f015f9054906101000a900473ffffffffffffffffffffffffffffffffffffffff1690806001015490806002015f9054906101000a900460ff16905083565b5f63150b7a0260e01b905095945050505050565b5f60015f8473ffffffffffffffffffffffffffffffffffffffff1673ffffffffffffffffffffffffffffffffffffffff1681526020019081526020015f205f8381526020019081526020015f209050806002015f9054906101000a900460ff16610246576040517f08c379a000000000000000000000000000000000000000000000000000000000815260040161023d90610e7e565b60405180910390fd5b5f815f015f9054906101000a900473ffffffffffffffffffffffffffffffffffffffff1690505f8260010154905060015f8673ffffffffffffffffffffffffffffffffffffffff1673ffffffffffffffffffffffffffffffffffffffff1681526020019081526020015f205f8581526020019081526020015f205f5f82015f6101000a81549073ffffffffffffffffffffffffffffffffffffffff0219169055600182015f9055600282015f6101000a81549060ff021916905550505f5f9054906101000a900473ffffffffffffffffffffffffffffffffffffffff1673ffffffffffffffffffffffffffffffffffffffff166323b872dd3384846040518463ffffffff1660e01b815260040161035f93929190610e9c565b6020604051808303815f875af115801561037b573d5f5f3e3d5ffd5b505050506040513d601f19601f8201168201806040525081019061039f9190610efb565b6103de576040517f08c379a00000000000000000000000000000000000000000000000000000000081526004016103d590610f70565b60405180910390fd5b8473ffffffffffffffffffffffffffffffffffffffff166323b872dd3033876040518463ffffffff1660e01b815260040161041b93929190610e9c565b5f604051808303815f87803b158015610432575f5ffd5b505af1158015610444573d5f5f3e3d5ffd5b505050503373ffffffffffffffffffffffffffffffffffffffff16848673ffffffffffffffffffffffffffffffffffffffff167f5320a7a9b87f79d5f7316ef1338262f16072733cc053d083f0cd2018928ded64846040516104a69190610f8e565b60405180910390a45050505050565b5f81116104f7576040517f08c379a00000000000000000000000000000000000000000000000000000000081526004016104ee90610ff1565b60405180910390fd5b3373ffffffffffffffffffffffffffffffffffffffff168373ffffffffffffffffffffffffffffffffffffffff16636352211e846040518263ffffffff1660e01b81526004016105479190610f8e565b602060405180830381865afa158015610562573d5f5f3e3d5ffd5b505050506040513d601f19601f820116820180604052508101906105869190611023565b73ffffffffffffffffffffffffffffffffffffffff16146105dc576040517f08c379a00000000000000000000000000000000000000000000000000000000081526004016105d390611098565b60405180910390fd5b60015f8473ffffffffffffffffffffffffffffffffffffffff1673ffffffffffffffffffffffffffffffffffffffff1681526020019081526020015f205f8381526020019081526020015f206002015f9054906101000a900460ff1615610678576040517f08c379a000000000000000000000000000000000000000000000000000000000815260040161066f90611100565b60405180910390fd5b8273ffffffffffffffffffffffffffffffffffffffff166323b872dd3330856040518463ffffffff1660e01b81526004016106b593929190610e9c565b5f604051808303815f87803b1580156106cc575f5ffd5b505af11580156106de573d5f5f3e3d5ffd5b5050505060405180606001604052803373ffffffffffffffffffffffffffffffffffffffff1681526020018281526020016001151581525060015f8573ffffffffffffffffffffffffffffffffffffffff1673ffffffffffffffffffffffffffffffffffffffff1681526020019081526020015f205f8481526020019081526020015f205f820151815f015f6101000a81548173ffffffffffffffffffffffffffffffffffffffff021916908373ffffffffffffffffffffffffffffffffffffffff160217905550602082015181600101556040820151816002015f6101000a81548160ff0219169083151502179055509050503373ffffffffffffffffffffffffffffffffffffffff16828473ffffffffffffffffffffffffffffffffffffffff167f8b06cda60618abf2b2d07227f9dd63ec6349ca3269ce0eb18d49122a48362ad8846040516108309190610f8e565b60405180910390a4505050565b5f60015f8473ffffffffffffffffffffffffffffffffffffffff1673ffffffffffffffffffffffffffffffffffffffff1681526020019081526020015f205f8381526020019081526020015f209050806002015f9054906101000a900460ff166108dc576040517f08c379a00000000000000000000000000000000000000000000000000000000081526004016108d390610e7e565b60405180910390fd5b3373ffffffffffffffffffffffffffffffffffffffff16815f015f9054906101000a900473ffffffffffffffffffffffffffffffffffffffff1673ffffffffffffffffffffffffffffffffffffffff161461096c576040517f08c379a000000000000000000000000000000000000000000000000000000000815260040161096390611168565b60405180910390fd5b60015f8473ffffffffffffffffffffffffffffffffffffffff1673ffffffffffffffffffffffffffffffffffffffff1681526020019081526020015f205f8381526020019081526020015f205f5f82015f6101000a81549073ffffffffffffffffffffffffffffffffffffffff0219169055600182015f9055600282015f6101000a81549060ff021916905550508273ffffffffffffffffffffffffffffffffffffffff166323b872dd3033856040518463ffffffff1660e01b8152600401610a3793929190610e9c565b5f604051808303815f87803b158015610a4e575f5ffd5b505af1158015610a60573d5f5f3e3d5ffd5b505050503373ffffffffffffffffffffffffffffffffffffffff16828473ffffffffffffffffffffffffffffffffffffffff167f0c8fde439b4e72d175ffeb3c5f3c15c6f70f473413f4c2d68f8971c0d629b60d60405160405180910390a4505050565b5f5f9054906101000a900473ffffffffffffffffffffffffffffffffffffffff1681565b5f5ffd5b5f5ffd5b5f73ffffffffffffffffffffffffffffffffffffffff82169050919050565b5f610b1982610af0565b9050919050565b610b2981610b0f565b8114610b33575f5ffd5b50565b5f81359050610b4481610b20565b92915050565b5f819050919050565b610b5c81610b4a565b8114610b66575f5ffd5b50565b5f81359050610b7781610b53565b92915050565b5f5f60408385031215610b9357610b92610ae8565b5b5f610ba085828601610b36565b9250506020610bb185828601610b69565b9150509250929050565b610bc481610b0f565b82525050565b610bd381610b4a565b82525050565b5f8115159050919050565b610bed81610bd9565b82525050565b5f606082019050610c065f830186610bbb565b610c136020830185610bca565b610c206040830184610be4565b949350505050565b5f5ffd5b5f5ffd5b5f5ffd5b5f5f83601f840112610c4957610c48610c28565b5b8235905067ffffffffffffffff811115610c6657610c65610c2c565b5b602083019150836001820283011115610c8257610c81610c30565b5b9250929050565b5f5f5f5f5f60808688031215610ca257610ca1610ae8565b5b5f610caf88828901610b36565b9550506020610cc088828901610b36565b9450506040610cd188828901610b69565b935050606086013567ffffffffffffffff811115610cf257610cf1610aec565b5b610cfe88828901610c34565b92509250509295509295909350565b5f7fffffffff0000000000000000000000000000000000000000000000000000000082169050919050565b610d4181610d0d565b82525050565b5f602082019050610d5a5f830184610d38565b92915050565b5f5f5f60608486031215610d7757610d76610ae8565b5b5f610d8486828701610b36565b9350506020610d9586828701610b69565b9250506040610da686828701610b69565b9150509250925092565b5f819050919050565b5f610dd3610dce610dc984610af0565b610db0565b610af0565b9050919050565b5f610de482610db9565b9050919050565b5f610df582610dda565b9050919050565b610e0581610deb565b82525050565b5f602082019050610e1e5f830184610dfc565b92915050565b5f82825260208201905092915050565b7f4e4654206e6f74206c69737465640000000000000000000000000000000000005f82015250565b5f610e68600e83610e24565b9150610e7382610e34565b602082019050919050565b5f6020820190508181035f830152610e9581610e5c565b9050919050565b5f606082019050610eaf5f830186610bbb565b610ebc6020830185610bbb565b610ec96040830184610bca565b949350505050565b610eda81610bd9565b8114610ee4575f5ffd5b50565b5f81519050610ef581610ed1565b92915050565b5f60208284031215610f1057610f0f610ae8565b5b5f610f1d84828501610ee7565b91505092915050565b7f5061796d656e74206661696c65640000000000000000000000000000000000005f82015250565b5f610f5a600e83610e24565b9150610f6582610f26565b602082019050919050565b5f6020820190508181035f830152610f8781610f4e565b9050919050565b5f602082019050610fa15f830184610bca565b92915050565b7f5072696365206d7573742062652067726561746572207468616e2030000000005f82015250565b5f610fdb601c83610e24565b9150610fe682610fa7565b602082019050919050565b5f6020820190508181035f83015261100881610fcf565b9050919050565b5f8151905061101d81610b20565b92915050565b5f6020828403121561103857611037610ae8565b5b5f6110458482850161100f565b91505092915050565b7f4e6f7420746865206f776e6572000000000000000000000000000000000000005f82015250565b5f611082600d83610e24565b915061108d8261104e565b602082019050919050565b5f6020820190508181035f8301526110af81611076565b9050919050565b7f416c7265616479206c69737465640000000000000000000000000000000000005f82015250565b5f6110ea600e83610e24565b91506110f5826110b6565b602082019050919050565b5f6020820190508181035f830152611117816110de565b9050919050565b7f4e6f74207468652073656c6c65720000000000000000000000000000000000005f82015250565b5f611152600e83610e24565b915061115d8261111e565b602082019050919050565b5f6020820190508181035f83015261117f81611146565b905091905056fea2646970667358221220c0020741779b3c0f075cd70798985470083546e8fd18a92dc2cd0cfc5e45f8d664736f6c634300081e0033",
					"opcodes": "PUSH1 0x80 PUSH1 0x40 MSTORE CALLVALUE DUP1 ISZERO PUSH2 0xF JUMPI PUSH0 PUSH0 REVERT JUMPDEST POP PUSH1 0x40 MLOAD PUSH2 0x12C8 CODESIZE SUB DUP1 PUSH2 0x12C8 DUP4 CODECOPY DUP2 DUP2 ADD PUSH1 0x40 MSTORE DUP2 ADD SWAP1 PUSH2 0x31 SWAP2 SWAP1 PUSH2 0xD4 JUMP JUMPDEST DUP1 PUSH0 PUSH0 PUSH2 0x100 EXP DUP2 SLOAD DUP2 PUSH20 0xFFFFFFFFFFFFFFFFFFFFFFFFFFFFFFFFFFFFFFFF MUL NOT AND SWAP1 DUP4 PUSH20 0xFFFFFFFFFFFFFFFFFFFFFFFFFFFFFFFFFFFFFFFF AND MUL OR SWAP1 SSTORE POP POP PUSH2 0xFF JUMP JUMPDEST PUSH0 PUSH0 REVERT JUMPDEST PUSH0 PUSH20 0xFFFFFFFFFFFFFFFFFFFFFFFFFFFFFFFFFFFFFFFF DUP3 AND SWAP1 POP SWAP2 SWAP1 POP JUMP JUMPDEST PUSH0 PUSH2 0xA3 DUP3 PUSH2 0x7A JUMP JUMPDEST SWAP1 POP SWAP2 SWAP1 POP JUMP JUMPDEST PUSH2 0xB3 DUP2 PUSH2 0x99 JUMP JUMPDEST DUP2 EQ PUSH2 0xBD JUMPI PUSH0 PUSH0 REVERT JUMPDEST POP JUMP JUMPDEST PUSH0 DUP2 MLOAD SWAP1 POP PUSH2 0xCE DUP2 PUSH2 0xAA JUMP JUMPDEST SWAP3 SWAP2 POP POP JUMP JUMPDEST PUSH0 PUSH1 0x20 DUP3 DUP5 SUB SLT ISZERO PUSH2 0xE9 JUMPI PUSH2 0xE8 PUSH2 0x76 JUMP JUMPDEST JUMPDEST PUSH0 PUSH2 0xF6 DUP5 DUP3 DUP6 ADD PUSH2 0xC0 JUMP JUMPDEST SWAP2 POP POP SWAP3 SWAP2 POP POP JUMP JUMPDEST PUSH2 0x11BC DUP1 PUSH2 0x10C PUSH0 CODECOPY PUSH0 RETURN INVALID PUSH1 0x80 PUSH1 0x40 MSTORE CALLVALUE DUP1 ISZERO PUSH2 0xF JUMPI PUSH0 PUSH0 REVERT JUMPDEST POP PUSH1 0x4 CALLDATASIZE LT PUSH2 0x5F JUMPI PUSH0 CALLDATALOAD PUSH1 0xE0 SHR DUP1 PUSH3 0x7DF30 EQ PUSH2 0x63 JUMPI DUP1 PUSH4 0x150B7A02 EQ PUSH2 0x95 JUMPI DUP1 PUSH4 0xA82BA76F EQ PUSH2 0xC5 JUMPI DUP1 PUSH4 0xAD05F1B4 EQ PUSH2 0xE1 JUMPI DUP1 PUSH4 0xB2DDEE06 EQ PUSH2 0xFD JUMPI DUP1 PUSH4 0xE9CBD822 EQ PUSH2 0x119 JUMPI JUMPDEST PUSH0 PUSH0 REVERT JUMPDEST PUSH2 0x7D PUSH1 0x4 DUP1 CALLDATASIZE SUB DUP2 ADD SWAP1 PUSH2 0x78 SWAP2 SWAP1 PUSH2 0xB7D JUMP JUMPDEST PUSH2 0x137 JUMP JUMPDEST PUSH1 0x40 MLOAD PUSH2 0x8C SWAP4 SWAP3 SWAP2 SWAP1 PUSH2 0xBF3 JUMP JUMPDEST PUSH1 0x40 MLOAD DUP1 SWAP2 SUB SWAP1 RETURN JUMPDEST PUSH2 0xAF PUSH1 0x4 DUP1 CALLDATASIZE SUB DUP2 ADD SWAP1 PUSH2 0xAA SWAP2 SWAP1 PUSH2 0xC89 JUMP JUMPDEST PUSH2 0x193 JUMP JUMPDEST PUSH1 0x40 MLOAD PUSH2 0xBC SWAP2 SWAP1 PUSH2 0xD47 JUMP JUMPDEST PUSH1 0x40 MLOAD DUP1 SWAP2 SUB SWAP1 RETURN JUMPDEST PUSH2 0xDF PUSH1 0x4 DUP1 CALLDATASIZE SUB DUP2 ADD SWAP1 PUSH2 0xDA SWAP2 SWAP1 PUSH2 0xB7D JUMP JUMPDEST PUSH2 0x1A7 JUMP JUMPDEST STOP JUMPDEST PUSH2 0xFB PUSH1 0x4 DUP1 CALLDATASIZE SUB DUP2 ADD SWAP1 PUSH2 0xF6 SWAP2 SWAP1 PUSH2 0xD60 JUMP JUMPDEST PUSH2 0x4B5 JUMP JUMPDEST STOP JUMPDEST PUSH2 0x117 PUSH1 0x4 DUP1 CALLDATASIZE SUB DUP2 ADD SWAP1 PUSH2 0x112 SWAP2 SWAP1 PUSH2 0xB7D JUMP JUMPDEST PUSH2 0x83D JUMP JUMPDEST STOP JUMPDEST PUSH2 0x121 PUSH2 0xAC4 JUMP JUMPDEST PUSH1 0x40 MLOAD PUSH2 0x12E SWAP2 SWAP1 PUSH2 0xE0B JUMP JUMPDEST PUSH1 0x40 MLOAD DUP1 SWAP2 SUB SWAP1 RETURN JUMPDEST PUSH1 0x1 PUSH1 0x20 MSTORE DUP2 PUSH0 MSTORE PUSH1 0x40 PUSH0 KECCAK256 PUSH1 0x20 MSTORE DUP1 PUSH0 MSTORE PUSH1 0x40 PUSH0 KECCAK256 PUSH0 SWAP2 POP SWAP2 POP POP DUP1 PUSH0 ADD PUSH0 SWAP1 SLOAD SWAP1 PUSH2 0x100 EXP SWAP1 DIV PUSH20 0xFFFFFFFFFFFFFFFFFFFFFFFFFFFFFFFFFFFFFFFF AND SWAP1 DUP1 PUSH1 0x1 ADD SLOAD SWAP1 DUP1 PUSH1 0x2 ADD PUSH0 SWAP1 SLOAD SWAP1 PUSH2 0x100 EXP SWAP1 DIV PUSH1 0xFF AND SWAP1 POP DUP4 JUMP JUMPDEST PUSH0 PUSH4 0x150B7A02 PUSH1 0xE0 SHL SWAP1 POP SWAP6 SWAP5 POP POP POP POP POP JUMP JUMPDEST PUSH0 PUSH1 0x1 PUSH0 DUP5 PUSH20 0xFFFFFFFFFFFFFFFFFFFFFFFFFFFFFFFFFFFFFFFF AND PUSH20 0xFFFFFFFFFFFFFFFFFFFFFFFFFFFFFFFFFFFFFFFF AND DUP2 MSTORE PUSH1 0x20 ADD SWAP1 DUP2 MSTORE PUSH1 0x20 ADD PUSH0 KECCAK256 PUSH0 DUP4 DUP2 MSTORE PUSH1 0x20 ADD SWAP1 DUP2 MSTORE PUSH1 0x20 ADD PUSH0 KECCAK256 SWAP1 POP DUP1 PUSH1 0x2 ADD PUSH0 SWAP1 SLOAD SWAP1 PUSH2 0x100 EXP SWAP1 DIV PUSH1 0xFF AND PUSH2 0x246 JUMPI PUSH1 0x40 MLOAD PUSH32 0x8C379A000000000000000000000000000000000000000000000000000000000 DUP2 MSTORE PUSH1 0x4 ADD PUSH2 0x23D SWAP1 PUSH2 0xE7E JUMP JUMPDEST PUSH1 0x40 MLOAD DUP1 SWAP2 SUB SWAP1 REVERT JUMPDEST PUSH0 DUP2 PUSH0 ADD PUSH0 SWAP1 SLOAD SWAP1 PUSH2 0x100 EXP SWAP1 DIV PUSH20 0xFFFFFFFFFFFFFFFFFFFFFFFFFFFFFFFFFFFFFFFF AND SWAP1 POP PUSH0 DUP3 PUSH1 0x1 ADD SLOAD SWAP1 POP PUSH1 0x1 PUSH0 DUP7 PUSH20 0xFFFFFFFFFFFFFFFFFFFFFFFFFFFFFFFFFFFFFFFF AND PUSH20 0xFFFFFFFFFFFFFFFFFFFFFFFFFFFFFFFFFFFFFFFF AND DUP2 MSTORE PUSH1 0x20 ADD SWAP1 DUP2 MSTORE PUSH1 0x20 ADD PUSH0 KECCAK256 PUSH0 DUP6 DUP2 MSTORE PUSH1 0x20 ADD SWAP1 DUP2 MSTORE PUSH1 0x20 ADD PUSH0 KECCAK256 PUSH0 PUSH0 DUP3 ADD PUSH0 PUSH2 0x100 EXP DUP2 SLOAD SWAP1 PUSH20 0xFFFFFFFFFFFFFFFFFFFFFFFFFFFFFFFFFFFFFFFF MUL NOT AND SWAP1 SSTORE PUSH1 0x1 DUP3 ADD PUSH0 SWAP1 SSTORE PUSH1 0x2 DUP3 ADD PUSH0 PUSH2 0x100 EXP DUP2 SLOAD SWAP1 PUSH1 0xFF MUL NOT AND SWAP1 SSTORE POP POP PUSH0 PUSH0 SWAP1 SLOAD SWAP1 PUSH2 0x100 EXP SWAP1 DIV PUSH20 0xFFFFFFFFFFFFFFFFFFFFFFFFFFFFFFFFFFFFFFFF AND PUSH20 0xFFFFFFFFFFFFFFFFFFFFFFFFFFFFFFFFFFFFFFFF AND PUSH4 0x23B872DD CALLER DUP5 DUP5 PUSH1 0x40 MLOAD DUP5 PUSH4 0xFFFFFFFF AND PUSH1 0xE0 SHL DUP2 MSTORE PUSH1 0x4 ADD PUSH2 0x35F SWAP4 SWAP3 SWAP2 SWAP1 PUSH2 0xE9C JUMP JUMPDEST PUSH1 0x20 PUSH1 0x40 MLOAD DUP1 DUP4 SUB DUP2 PUSH0 DUP8 GAS CALL ISZERO DUP1 ISZERO PUSH2 0x37B JUMPI RETURNDATASIZE PUSH0 PUSH0 RETURNDATACOPY RETURNDATASIZE PUSH0 REVERT JUMPDEST POP POP POP POP PUSH1 0x40 MLOAD RETURNDATASIZE PUSH1 0x1F NOT PUSH1 0x1F DUP3 ADD AND DUP3 ADD DUP1 PUSH1 0x40 MSTORE POP DUP2 ADD SWAP1 PUSH2 0x39F SWAP2 SWAP1 PUSH2 0xEFB JUMP JUMPDEST PUSH2 0x3DE JUMPI PUSH1 0x40 MLOAD PUSH32 0x8C379A000000000000000000000000000000000000000000000000000000000 DUP2 MSTORE PUSH1 0x4 ADD PUSH2 0x3D5 SWAP1 PUSH2 0xF70 JUMP JUMPDEST PUSH1 0x40 MLOAD DUP1 SWAP2 SUB SWAP1 REVERT JUMPDEST DUP5 PUSH20 0xFFFFFFFFFFFFFFFFFFFFFFFFFFFFFFFFFFFFFFFF AND PUSH4 0x23B872DD ADDRESS CALLER DUP8 PUSH1 0x40 MLOAD DUP5 PUSH4 0xFFFFFFFF AND PUSH1 0xE0 SHL DUP2 MSTORE PUSH1 0x4 ADD PUSH2 0x41B SWAP4 SWAP3 SWAP2 SWAP1 PUSH2 0xE9C JUMP JUMPDEST PUSH0 PUSH1 0x40 MLOAD DUP1 DUP4 SUB DUP2 PUSH0 DUP8 DUP1 EXTCODESIZE ISZERO DUP1 ISZERO PUSH2 0x432 JUMPI PUSH0 PUSH0 REVERT JUMPDEST POP GAS CALL ISZERO DUP1 ISZERO PUSH2 0x444 JUMPI RETURNDATASIZE PUSH0 PUSH0 RETURNDATACOPY RETURNDATASIZE PUSH0 REVERT JUMPDEST POP POP POP POP CALLER PUSH20 0xFFFFFFFFFFFFFFFFFFFFFFFFFFFFFFFFFFFFFFFF AND DUP5 DUP7 PUSH20 0xFFFFFFFFFFFFFFFFFFFFFFFFFFFFFFFFFFFFFFFF AND PUSH32 0x5320A7A9B87F79D5F7316EF1338262F16072733CC053D083F0CD2018928DED64 DUP5 PUSH1 0x40 MLOAD PUSH2 0x4A6 SWAP2 SWAP1 PUSH2 0xF8E JUMP JUMPDEST PUSH1 0x40 MLOAD DUP1 SWAP2 SUB SWAP1 LOG4 POP POP POP POP POP JUMP JUMPDEST PUSH0 DUP2 GT PUSH2 0x4F7 JUMPI PUSH1 0x40 MLOAD PUSH32 0x8C379A000000000000000000000000000000000000000000000000000000000 DUP2 MSTORE PUSH1 0x4 ADD PUSH2 0x4EE SWAP1 PUSH2 0xFF1 JUMP JUMPDEST PUSH1 0x40 MLOAD DUP1 SWAP2 SUB SWAP1 REVERT JUMPDEST CALLER PUSH20 0xFFFFFFFFFFFFFFFFFFFFFFFFFFFFFFFFFFFFFFFF AND DUP4 PUSH20 0xFFFFFFFFFFFFFFFFFFFFFFFFFFFFFFFFFFFFFFFF AND PUSH4 0x6352211E DUP5 PUSH1 0x40 MLOAD DUP3 PUSH4 0xFFFFFFFF AND PUSH1 0xE0 SHL DUP2 MSTORE PUSH1 0x4 ADD PUSH2 0x547 SWAP2 SWAP1 PUSH2 0xF8E JUMP JUMPDEST PUSH1 0x20 PUSH1 0x40 MLOAD DUP1 DUP4 SUB DUP2 DUP7 GAS STATICCALL ISZERO DUP1 ISZERO PUSH2 0x562 JUMPI RETURNDATASIZE PUSH0 PUSH0 RETURNDATACOPY RETURNDATASIZE PUSH0 REVERT JUMPDEST POP POP POP POP PUSH1 0x40 MLOAD RETURNDATASIZE PUSH1 0x1F NOT PUSH1 0x1F DUP3 ADD AND DUP3 ADD DUP1 PUSH1 0x40 MSTORE POP DUP2 ADD SWAP1 PUSH2 0x586 SWAP2 SWAP1 PUSH2 0x1023 JUMP JUMPDEST PUSH20 0xFFFFFFFFFFFFFFFFFFFFFFFFFFFFFFFFFFFFFFFF AND EQ PUSH2 0x5DC JUMPI PUSH1 0x40 MLOAD PUSH32 0x8C379A000000000000000000000000000000000000000000000000000000000 DUP2 MSTORE PUSH1 0x4 ADD PUSH2 0x5D3 SWAP1 PUSH2 0x1098 JUMP JUMPDEST PUSH1 0x40 MLOAD DUP1 SWAP2 SUB SWAP1 REVERT JUMPDEST PUSH1 0x1 PUSH0 DUP5 PUSH20 0xFFFFFFFFFFFFFFFFFFFFFFFFFFFFFFFFFFFFFFFF AND PUSH20 0xFFFFFFFFFFFFFFFFFFFFFFFFFFFFFFFFFFFFFFFF AND DUP2 MSTORE PUSH1 0x20 ADD SWAP1 DUP2 MSTORE PUSH1 0x20 ADD PUSH0 KECCAK256 PUSH0 DUP4 DUP2 MSTORE PUSH1 0x20 ADD SWAP1 DUP2 MSTORE PUSH1 0x20 ADD PUSH0 KECCAK256 PUSH1 0x2 ADD PUSH0 SWAP1 SLOAD SWAP1 PUSH2 0x100 EXP SWAP1 DIV PUSH1 0xFF AND ISZERO PUSH2 0x678 JUMPI PUSH1 0x40 MLOAD PUSH32 0x8C379A000000000000000000000000000000000000000000000000000000000 DUP2 MSTORE PUSH1 0x4 ADD PUSH2 0x66F SWAP1 PUSH2 0x1100 JUMP JUMPDEST PUSH1 0x40 MLOAD DUP1 SWAP2 SUB SWAP1 REVERT JUMPDEST DUP3 PUSH20 0xFFFFFFFFFFFFFFFFFFFFFFFFFFFFFFFFFFFFFFFF AND PUSH4 0x23B872DD CALLER ADDRESS DUP6 PUSH1 0x40 MLOAD DUP5 PUSH4 0xFFFFFFFF AND PUSH1 0xE0 SHL DUP2 MSTORE PUSH1 0x4 ADD PUSH2 0x6B5 SWAP4 SWAP3 SWAP2 SWAP1 PUSH2 0xE9C JUMP JUMPDEST PUSH0 PUSH1 0x40 MLOAD DUP1 DUP4 SUB DUP2 PUSH0 DUP8 DUP1 EXTCODESIZE ISZERO DUP1 ISZERO PUSH2 0x6CC JUMPI PUSH0 PUSH0 REVERT JUMPDEST POP GAS CALL ISZERO DUP1 ISZERO PUSH2 0x6DE JUMPI RETURNDATASIZE PUSH0 PUSH0 RETURNDATACOPY RETURNDATASIZE PUSH0 REVERT JUMPDEST POP POP POP POP PUSH1 0x40 MLOAD DUP1 PUSH1 0x60 ADD PUSH1 0x40 MSTORE DUP1 CALLER PUSH20 0xFFFFFFFFFFFFFFFFFFFFFFFFFFFFFFFFFFFFFFFF AND DUP2 MSTORE PUSH1 0x20 ADD DUP3 DUP2 MSTORE PUSH1 0x20 ADD PUSH1 0x1 ISZERO ISZERO DUP2 MSTORE POP PUSH1 0x1 PUSH0 DUP6 PUSH20 0xFFFFFFFFFFFFFFFFFFFFFFFFFFFFFFFFFFFFFFFF AND PUSH20 0xFFFFFFFFFFFFFFFFFFFFFFFFFFFFFFFFFFFFFFFF AND DUP2 MSTORE PUSH1 0x20 ADD SWAP1 DUP2 MSTORE PUSH1 0x20 ADD PUSH0 KECCAK256 PUSH0 DUP5 DUP2 MSTORE PUSH1 0x20 ADD SWAP1 DUP2 MSTORE PUSH1 0x20 ADD PUSH0 KECCAK256 PUSH0 DUP3 ADD MLOAD DUP2 PUSH0 ADD PUSH0 PUSH2 0x100 EXP DUP2 SLOAD DUP2 PUSH20 0xFFFFFFFFFFFFFFFFFFFFFFFFFFFFFFFFFFFFFFFF MUL NOT AND SWAP1 DUP4 PUSH20 0xFFFFFFFFFFFFFFFFFFFFFFFFFFFFFFFFFFFFFFFF AND MUL OR SWAP1 SSTORE POP PUSH1 0x20 DUP3 ADD MLOAD DUP2 PUSH1 0x1 ADD SSTORE PUSH1 0x40 DUP3 ADD MLOAD DUP2 PUSH1 0x2 ADD PUSH0 PUSH2 0x100 EXP DUP2 SLOAD DUP2 PUSH1 0xFF MUL NOT AND SWAP1 DUP4 ISZERO ISZERO MUL OR SWAP1 SSTORE POP SWAP1 POP POP CALLER PUSH20 0xFFFFFFFFFFFFFFFFFFFFFFFFFFFFFFFFFFFFFFFF AND DUP3 DUP5 PUSH20 0xFFFFFFFFFFFFFFFFFFFFFFFFFFFFFFFFFFFFFFFF AND PUSH32 0x8B06CDA60618ABF2B2D07227F9DD63EC6349CA3269CE0EB18D49122A48362AD8 DUP5 PUSH1 0x40 MLOAD PUSH2 0x830 SWAP2 SWAP1 PUSH2 0xF8E JUMP JUMPDEST PUSH1 0x40 MLOAD DUP1 SWAP2 SUB SWAP1 LOG4 POP POP POP JUMP JUMPDEST PUSH0 PUSH1 0x1 PUSH0 DUP5 PUSH20 0xFFFFFFFFFFFFFFFFFFFFFFFFFFFFFFFFFFFFFFFF AND PUSH20 0xFFFFFFFFFFFFFFFFFFFFFFFFFFFFFFFFFFFFFFFF AND DUP2 MSTORE PUSH1 0x20 ADD SWAP1 DUP2 MSTORE PUSH1 0x20 ADD PUSH0 KECCAK256 PUSH0 DUP4 DUP2 MSTORE PUSH1 0x20 ADD SWAP1 DUP2 MSTORE PUSH1 0x20 ADD PUSH0 KECCAK256 SWAP1 POP DUP1 PUSH1 0x2 ADD PUSH0 SWAP1 SLOAD SWAP1 PUSH2 0x100 EXP SWAP1 DIV PUSH1 0xFF AND PUSH2 0x8DC JUMPI PUSH1 0x40 MLOAD PUSH32 0x8C379A000000000000000000000000000000000000000000000000000000000 DUP2 MSTORE PUSH1 0x4 ADD PUSH2 0x8D3 SWAP1 PUSH2 0xE7E JUMP JUMPDEST PUSH1 0x40 MLOAD DUP1 SWAP2 SUB SWAP1 REVERT JUMPDEST CALLER PUSH20 0xFFFFFFFFFFFFFFFFFFFFFFFFFFFFFFFFFFFFFFFF AND DUP2 PUSH0 ADD PUSH0 SWAP1 SLOAD SWAP1 PUSH2 0x100 EXP SWAP1 DIV PUSH20 0xFFFFFFFFFFFFFFFFFFFFFFFFFFFFFFFFFFFFFFFF AND PUSH20 0xFFFFFFFFFFFFFFFFFFFFFFFFFFFFFFFFFFFFFFFF AND EQ PUSH2 0x96C JUMPI PUSH1 0x40 MLOAD PUSH32 0x8C379A000000000000000000000000000000000000000000000000000000000 DUP2 MSTORE PUSH1 0x4 ADD PUSH2 0x963 SWAP1 PUSH2 0x1168 JUMP JUMPDEST PUSH1 0x40 MLOAD DUP1 SWAP2 SUB SWAP1 REVERT JUMPDEST PUSH1 0x1 PUSH0 DUP5 PUSH20 0xFFFFFFFFFFFFFFFFFFFFFFFFFFFFFFFFFFFFFFFF AND PUSH20 0xFFFFFFFFFFFFFFFFFFFFFFFFFFFFFFFFFFFFFFFF AND DUP2 MSTORE PUSH1 0x20 ADD SWAP1 DUP2 MSTORE PUSH1 0x20 ADD PUSH0 KECCAK256 PUSH0 DUP4 DUP2 MSTORE PUSH1 0x20 ADD SWAP1 DUP2 MSTORE PUSH1 0x20 ADD PUSH0 KECCAK256 PUSH0 PUSH0 DUP3 ADD PUSH0 PUSH2 0x100 EXP DUP2 SLOAD SWAP1 PUSH20 0xFFFFFFFFFFFFFFFFFFFFFFFFFFFFFFFFFFFFFFFF MUL NOT AND SWAP1 SSTORE PUSH1 0x1 DUP3 ADD PUSH0 SWAP1 SSTORE PUSH1 0x2 DUP3 ADD PUSH0 PUSH2 0x100 EXP DUP2 SLOAD SWAP1 PUSH1 0xFF MUL NOT AND SWAP1 SSTORE POP POP DUP3 PUSH20 0xFFFFFFFFFFFFFFFFFFFFFFFFFFFFFFFFFFFFFFFF AND PUSH4 0x23B872DD ADDRESS CALLER DUP6 PUSH1 0x40 MLOAD DUP5 PUSH4 0xFFFFFFFF AND PUSH1 0xE0 SHL DUP2 MSTORE PUSH1 0x4 ADD PUSH2 0xA37 SWAP4 SWAP3 SWAP2 SWAP1 PUSH2 0xE9C JUMP JUMPDEST PUSH0 PUSH1 0x40 MLOAD DUP1 DUP4 SUB DUP2 PUSH0 DUP8 DUP1 EXTCODESIZE ISZERO DUP1 ISZERO PUSH2 0xA4E JUMPI PUSH0 PUSH0 REVERT JUMPDEST POP GAS CALL ISZERO DUP1 ISZERO PUSH2 0xA60 JUMPI RETURNDATASIZE PUSH0 PUSH0 RETURNDATACOPY RETURNDATASIZE PUSH0 REVERT JUMPDEST POP POP POP POP CALLER PUSH20 0xFFFFFFFFFFFFFFFFFFFFFFFFFFFFFFFFFFFFFFFF AND DUP3 DUP5 PUSH20 0xFFFFFFFFFFFFFFFFFFFFFFFFFFFFFFFFFFFFFFFF AND PUSH32 0xC8FDE439B4E72D175FFEB3C5F3C15C6F70F473413F4C2D68F8971C0D629B60D PUSH1 0x40 MLOAD PUSH1 0x40 MLOAD DUP1 SWAP2 SUB SWAP1 LOG4 POP POP POP JUMP JUMPDEST PUSH0 PUSH0 SWAP1 SLOAD SWAP1 PUSH2 0x100 EXP SWAP1 DIV PUSH20 0xFFFFFFFFFFFFFFFFFFFFFFFFFFFFFFFFFFFFFFFF AND DUP2 JUMP JUMPDEST PUSH0 PUSH0 REVERT JUMPDEST PUSH0 PUSH0 REVERT JUMPDEST PUSH0 PUSH20 0xFFFFFFFFFFFFFFFFFFFFFFFFFFFFFFFFFFFFFFFF DUP3 AND SWAP1 POP SWAP2 SWAP1 POP JUMP JUMPDEST PUSH0 PUSH2 0xB19 DUP3 PUSH2 0xAF0 JUMP JUMPDEST SWAP1 POP SWAP2 SWAP1 POP JUMP JUMPDEST PUSH2 0xB29 DUP2 PUSH2 0xB0F JUMP JUMPDEST DUP2 EQ PUSH2 0xB33 JUMPI PUSH0 PUSH0 REVERT JUMPDEST POP JUMP JUMPDEST PUSH0 DUP2 CALLDATALOAD SWAP1 POP PUSH2 0xB44 DUP2 PUSH2 0xB20 JUMP JUMPDEST SWAP3 SWAP2 POP POP JUMP JUMPDEST PUSH0 DUP2 SWAP1 POP SWAP2 SWAP1 POP JUMP JUMPDEST PUSH2 0xB5C DUP2 PUSH2 0xB4A JUMP JUMPDEST DUP2 EQ PUSH2 0xB66 JUMPI PUSH0 PUSH0 REVERT JUMPDEST POP JUMP JUMPDEST PUSH0 DUP2 CALLDATALOAD SWAP1 POP PUSH2 0xB77 DUP2 PUSH2 0xB53 JUMP JUMPDEST SWAP3 SWAP2 POP POP JUMP JUMPDEST PUSH0 PUSH0 PUSH1 0x40 DUP4 DUP6 SUB SLT ISZERO PUSH2 0xB93 JUMPI PUSH2 0xB92 PUSH2 0xAE8 JUMP JUMPDEST JUMPDEST PUSH0 PUSH2 0xBA0 DUP6 DUP3 DUP7 ADD PUSH2 0xB36 JUMP JUMPDEST SWAP3 POP POP PUSH1 0x20 PUSH2 0xBB1 DUP6 DUP3 DUP7 ADD PUSH2 0xB69 JUMP JUMPDEST SWAP2 POP POP SWAP3 POP SWAP3 SWAP1 POP JUMP JUMPDEST PUSH2 0xBC4 DUP2 PUSH2 0xB0F JUMP JUMPDEST DUP3 MSTORE POP POP JUMP JUMPDEST PUSH2 0xBD3 DUP2 PUSH2 0xB4A JUMP JUMPDEST DUP3 MSTORE POP POP JUMP JUMPDEST PUSH0 DUP2 ISZERO ISZERO SWAP1 POP SWAP2 SWAP1 POP JUMP JUMPDEST PUSH2 0xBED DUP2 PUSH2 0xBD9 JUMP JUMPDEST DUP3 MSTORE POP POP JUMP JUMPDEST PUSH0 PUSH1 0x60 DUP3 ADD SWAP1 POP PUSH2 0xC06 PUSH0 DUP4 ADD DUP7 PUSH2 0xBBB JUMP JUMPDEST PUSH2 0xC13 PUSH1 0x20 DUP4 ADD DUP6 PUSH2 0xBCA JUMP JUMPDEST PUSH2 0xC20 PUSH1 0x40 DUP4 ADD DUP5 PUSH2 0xBE4 JUMP JUMPDEST SWAP5 SWAP4 POP POP POP POP JUMP JUMPDEST PUSH0 PUSH0 REVERT JUMPDEST PUSH0 PUSH0 REVERT JUMPDEST PUSH0 PUSH0 REVERT JUMPDEST PUSH0 PUSH0 DUP4 PUSH1 0x1F DUP5 ADD SLT PUSH2 0xC49 JUMPI PUSH2 0xC48 PUSH2 0xC28 JUMP JUMPDEST JUMPDEST DUP3 CALLDATALOAD SWAP1 POP PUSH8 0xFFFFFFFFFFFFFFFF DUP2 GT ISZERO PUSH2 0xC66 JUMPI PUSH2 0xC65 PUSH2 0xC2C JUMP JUMPDEST JUMPDEST PUSH1 0x20 DUP4 ADD SWAP2 POP DUP4 PUSH1 0x1 DUP3 MUL DUP4 ADD GT ISZERO PUSH2 0xC82 JUMPI PUSH2 0xC81 PUSH2 0xC30 JUMP JUMPDEST JUMPDEST SWAP3 POP SWAP3 SWAP1 POP JUMP JUMPDEST PUSH0 PUSH0 PUSH0 PUSH0 PUSH0 PUSH1 0x80 DUP7 DUP9 SUB SLT ISZERO PUSH2 0xCA2 JUMPI PUSH2 0xCA1 PUSH2 0xAE8 JUMP JUMPDEST JUMPDEST PUSH0 PUSH2 0xCAF DUP9 DUP3 DUP10 ADD PUSH2 0xB36 JUMP JUMPDEST SWAP6 POP POP PUSH1 0x20 PUSH2 0xCC0 DUP9 DUP3 DUP10 ADD PUSH2 0xB36 JUMP JUMPDEST SWAP5 POP POP PUSH1 0x40 PUSH2 0xCD1 DUP9 DUP3 DUP10 ADD PUSH2 0xB69 JUMP JUMPDEST SWAP4 POP POP PUSH1 0x60 DUP7 ADD CALLDATALOAD PUSH8 0xFFFFFFFFFFFFFFFF DUP2 GT ISZERO PUSH2 0xCF2 JUMPI PUSH2 0xCF1 PUSH2 0xAEC JUMP JUMPDEST JUMPDEST PUSH2 0xCFE DUP9 DUP3 DUP10 ADD PUSH2 0xC34 JUMP JUMPDEST SWAP3 POP SWAP3 POP POP SWAP3 SWAP6 POP SWAP3 SWAP6 SWAP1 SWAP4 POP JUMP JUMPDEST PUSH0 PUSH32 0xFFFFFFFF00000000000000000000000000000000000000000000000000000000 DUP3 AND SWAP1 POP SWAP2 SWAP1 POP JUMP JUMPDEST PUSH2 0xD41 DUP2 PUSH2 0xD0D JUMP JUMPDEST DUP3 MSTORE POP POP JUMP JUMPDEST PUSH0 PUSH1 0x20 DUP3 ADD SWAP1 POP PUSH2 0xD5A PUSH0 DUP4 ADD DUP5 PUSH2 0xD38 JUMP JUMPDEST SWAP3 SWAP2 POP POP JUMP JUMPDEST PUSH0 PUSH0 PUSH0 PUSH1 0x60 DUP5 DUP7 SUB SLT ISZERO PUSH2 0xD77 JUMPI PUSH2 0xD76 PUSH2 0xAE8 JUMP JUMPDEST JUMPDEST PUSH0 PUSH2 0xD84 DUP7 DUP3 DUP8 ADD PUSH2 0xB36 JUMP JUMPDEST SWAP4 POP POP PUSH1 0x20 PUSH2 0xD95 DUP7 DUP3 DUP8 ADD PUSH2 0xB69 JUMP JUMPDEST SWAP3 POP POP PUSH1 0x40 PUSH2 0xDA6 DUP7 DUP3 DUP8 ADD PUSH2 0xB69 JUMP JUMPDEST SWAP2 POP POP SWAP3 POP SWAP3 POP SWAP3 JUMP JUMPDEST PUSH0 DUP2 SWAP1 POP SWAP2 SWAP1 POP JUMP JUMPDEST PUSH0 PUSH2 0xDD3 PUSH2 0xDCE PUSH2 0xDC9 DUP5 PUSH2 0xAF0 JUMP JUMPDEST PUSH2 0xDB0 JUMP JUMPDEST PUSH2 0xAF0 JUMP JUMPDEST SWAP1 POP SWAP2 SWAP1 POP JUMP JUMPDEST PUSH0 PUSH2 0xDE4 DUP3 PUSH2 0xDB9 JUMP JUMPDEST SWAP1 POP SWAP2 SWAP1 POP JUMP JUMPDEST PUSH0 PUSH2 0xDF5 DUP3 PUSH2 0xDDA JUMP JUMPDEST SWAP1 POP SWAP2 SWAP1 POP JUMP JUMPDEST PUSH2 0xE05 DUP2 PUSH2 0xDEB JUMP JUMPDEST DUP3 MSTORE POP POP JUMP JUMPDEST PUSH0 PUSH1 0x20 DUP3 ADD SWAP1 POP PUSH2 0xE1E PUSH0 DUP4 ADD DUP5 PUSH2 0xDFC JUMP JUMPDEST SWAP3 SWAP2 POP POP JUMP JUMPDEST PUSH0 DUP3 DUP3 MSTORE PUSH1 0x20 DUP3 ADD SWAP1 POP SWAP3 SWAP2 POP POP JUMP JUMPDEST PUSH32 0x4E4654206E6F74206C6973746564000000000000000000000000000000000000 PUSH0 DUP3 ADD MSTORE POP JUMP JUMPDEST PUSH0 PUSH2 0xE68 PUSH1 0xE DUP4 PUSH2 0xE24 JUMP JUMPDEST SWAP2 POP PUSH2 0xE73 DUP3 PUSH2 0xE34 JUMP JUMPDEST PUSH1 0x20 DUP3 ADD SWAP1 POP SWAP2 SWAP1 POP JUMP JUMPDEST PUSH0 PUSH1 0x20 DUP3 ADD SWAP1 POP DUP2 DUP2 SUB PUSH0 DUP4 ADD MSTORE PUSH2 0xE95 DUP2 PUSH2 0xE5C JUMP JUMPDEST SWAP1 POP SWAP2 SWAP1 POP JUMP JUMPDEST PUSH0 PUSH1 0x60 DUP3 ADD SWAP1 POP PUSH2 0xEAF PUSH0 DUP4 ADD DUP7 PUSH2 0xBBB JUMP JUMPDEST PUSH2 0xEBC PUSH1 0x20 DUP4 ADD DUP6 PUSH2 0xBBB JUMP JUMPDEST PUSH2 0xEC9 PUSH1 0x40 DUP4 ADD DUP5 PUSH2 0xBCA JUMP JUMPDEST SWAP5 SWAP4 POP POP POP POP JUMP JUMPDEST PUSH2 0xEDA DUP2 PUSH2 0xBD9 JUMP JUMPDEST DUP2 EQ PUSH2 0xEE4 JUMPI PUSH0 PUSH0 REVERT JUMPDEST POP JUMP JUMPDEST PUSH0 DUP2 MLOAD SWAP1 POP PUSH2 0xEF5 DUP2 PUSH2 0xED1 JUMP JUMPDEST SWAP3 SWAP2 POP POP JUMP JUMPDEST PUSH0 PUSH1 0x20 DUP3 DUP5 SUB SLT ISZERO PUSH2 0xF10 JUMPI PUSH2 0xF0F PUSH2 0xAE8 JUMP JUMPDEST JUMPDEST PUSH0 PUSH2 0xF1D DUP5 DUP3 DUP6 ADD PUSH2 0xEE7 JUMP JUMPDEST SWAP2 POP POP SWAP3 SWAP2 POP POP JUMP JUMPDEST PUSH32 0x5061796D656E74206661696C6564000000000000000000000000000000000000 PUSH0 DUP3 ADD MSTORE POP JUMP JUMPDEST PUSH0 PUSH2 0xF5A PUSH1 0xE DUP4 PUSH2 0xE24 JUMP JUMPDEST SWAP2 POP PUSH2 0xF65 DUP3 PUSH2 0xF26 JUMP JUMPDEST PUSH1 0x20 DUP3 ADD SWAP1 POP SWAP2 SWAP1 POP JUMP JUMPDEST PUSH0 PUSH1 0x20 DUP3 ADD SWAP1 POP DUP2 DUP2 SUB PUSH0 DUP4 ADD MSTORE PUSH2 0xF87 DUP2 PUSH2 0xF4E JUMP JUMPDEST SWAP1 POP SWAP2 SWAP1 POP JUMP JUMPDEST PUSH0 PUSH1 0x20 DUP3 ADD SWAP1 POP PUSH2 0xFA1 PUSH0 DUP4 ADD DUP5 PUSH2 0xBCA JUMP JUMPDEST SWAP3 SWAP2 POP POP JUMP JUMPDEST PUSH32 0x5072696365206D7573742062652067726561746572207468616E203000000000 PUSH0 DUP3 ADD MSTORE POP JUMP JUMPDEST PUSH0 PUSH2 0xFDB PUSH1 0x1C DUP4 PUSH2 0xE24 JUMP JUMPDEST SWAP2 POP PUSH2 0xFE6 DUP3 PUSH2 0xFA7 JUMP JUMPDEST PUSH1 0x20 DUP3 ADD SWAP1 POP SWAP2 SWAP1 POP JUMP JUMPDEST PUSH0 PUSH1 0x20 DUP3 ADD SWAP1 POP DUP2 DUP2 SUB PUSH0 DUP4 ADD MSTORE PUSH2 0x1008 DUP2 PUSH2 0xFCF JUMP JUMPDEST SWAP1 POP SWAP2 SWAP1 POP JUMP JUMPDEST PUSH0 DUP2 MLOAD SWAP1 POP PUSH2 0x101D DUP2 PUSH2 0xB20 JUMP JUMPDEST SWAP3 SWAP2 POP POP JUMP JUMPDEST PUSH0 PUSH1 0x20 DUP3 DUP5 SUB SLT ISZERO PUSH2 0x1038 JUMPI PUSH2 0x1037 PUSH2 0xAE8 JUMP JUMPDEST JUMPDEST PUSH0 PUSH2 0x1045 DUP5 DUP3 DUP6 ADD PUSH2 0x100F JUMP JUMPDEST SWAP2 POP POP SWAP3 SWAP2 POP POP JUMP JUMPDEST PUSH32 0x4E6F7420746865206F776E657200000000000000000000000000000000000000 PUSH0 DUP3 ADD MSTORE POP JUMP JUMPDEST PUSH0 PUSH2 0x1082 PUSH1 0xD DUP4 PUSH2 0xE24 JUMP JUMPDEST SWAP2 POP PUSH2 0x108D DUP3 PUSH2 0x104E JUMP JUMPDEST PUSH1 0x20 DUP3 ADD SWAP1 POP SWAP2 SWAP1 POP JUMP JUMPDEST PUSH0 PUSH1 0x20 DUP3 ADD SWAP1 POP DUP2 DUP2 SUB PUSH0 DUP4 ADD MSTORE PUSH2 0x10AF DUP2 PUSH2 0x1076 JUMP JUMPDEST SWAP1 POP SWAP2 SWAP1 POP JUMP JUMPDEST PUSH32 0x416C7265616479206C6973746564000000000000000000000000000000000000 PUSH0 DUP3 ADD MSTORE POP JUMP JUMPDEST PUSH0 PUSH2 0x10EA PUSH1 0xE DUP4 PUSH2 0xE24 JUMP JUMPDEST SWAP2 POP PUSH2 0x10F5 DUP3 PUSH2 0x10B6 JUMP JUMPDEST PUSH1 0x20 DUP3 ADD SWAP1 POP SWAP2 SWAP1 POP JUMP JUMPDEST PUSH0 PUSH1 0x20 DUP3 ADD SWAP1 POP DUP2 DUP2 SUB PUSH0 DUP4 ADD MSTORE PUSH2 0x1117 DUP2 PUSH2 0x10DE JUMP JUMPDEST SWAP1 POP SWAP2 SWAP1 POP JUMP JUMPDEST PUSH32 0x4E6F74207468652073656C6C6572000000000000000000000000000000000000 PUSH0 DUP3 ADD MSTORE POP JUMP JUMPDEST PUSH0 PUSH2 0x1152 PUSH1 0xE DUP4 PUSH2 0xE24 JUMP JUMPDEST SWAP2 POP PUSH2 0x115D DUP3 PUSH2 0x111E JUMP JUMPDEST PUSH1 0x20 DUP3 ADD SWAP1 POP SWAP2 SWAP1 POP JUMP JUMPDEST PUSH0 PUSH1 0x20 DUP3 ADD SWAP1 POP DUP2 DUP2 SUB PUSH0 DUP4 ADD MSTORE PUSH2 0x117F DUP2 PUSH2 0x1146 JUMP JUMPDEST SWAP1 POP SWAP2 SWAP1 POP JUMP INVALID LOG2 PUSH5 0x6970667358 0x22 SLT KECCAK256 0xC0 MUL SMOD COINBASE PUSH24 0x9B3C0F075CD70798985470083546E8FD18A92DC2CD0CFC5E GASLIMIT EXTCALL 0xD6 PUSH5 0x736F6C6343 STOP ADDMOD 0x1E STOP CALLER "
				},
				"gasEstimates": {
					"creation": {
						"codeDepositCost": "908000",
						"executionCost": "infinite",
						"totalCost": "infinite"
					},
					"external": {
						"buyNFT(address,uint256)": "infinite",
						"cancelListing(address,uint256)": "infinite",
						"listNFT(address,uint256,uint256)": "infinite",
						"listings(address,uint256)": "infinite",
						"onERC721Received(address,address,uint256,bytes)": "infinite",
						"stablecoin()": "infinite"
					}
				},
				"methodIdentifiers": {
					"buyNFT(address,uint256)": "a82ba76f",
					"cancelListing(address,uint256)": "b2ddee06",
					"listNFT(address,uint256,uint256)": "ad05f1b4",
					"listings(address,uint256)": "0007df30",
					"onERC721Received(address,address,uint256,bytes)": "150b7a02",
					"stablecoin()": "e9cbd822"
				}
			},
			"storageLayout": {
				"storage": [
					{
						"astId": 234,
						"contract": "Marketplace.sol:Marketplace",
						"label": "stablecoin",
						"offset": 0,
						"slot": "0",
						"type": "t_contract(IERC20)77"
					},
					{
						"astId": 248,
						"contract": "Marketplace.sol:Marketplace",
						"label": "listings",
						"offset": 0,
						"slot": "1",
						"type": "t_mapping(t_address,t_mapping(t_uint256,t_struct(Listing)241_storage))"
					}
				],
				"types": {
					"t_address": {
						"encoding": "inplace",
						"label": "address",
						"numberOfBytes": "20"
					},
					"t_bool": {
						"encoding": "inplace",
						"label": "bool",
						"numberOfBytes": "1"
					},
					"t_contract(IERC20)77": {
						"encoding": "inplace",
						"label": "contract IERC20",
						"numberOfBytes": "20"
					},
					"t_mapping(t_address,t_mapping(t_uint256,t_struct(Listing)241_storage))": {
						"encoding": "mapping",
						"key": "t_address",
						"label": "mapping(address => mapping(uint256 => struct Marketplace.Listing))",
						"numberOfBytes": "32",
						"value": "t_mapping(t_uint256,t_struct(Listing)241_storage)"
					},
					"t_mapping(t_uint256,t_struct(Listing)241_storage)": {
						"encoding": "mapping",
						"key": "t_uint256",
						"label": "mapping(uint256 => struct Marketplace.Listing)",
						"numberOfBytes": "32",
						"value": "t_struct(Listing)241_storage"
					},
					"t_struct(Listing)241_storage": {
						"encoding": "inplace",
						"label": "struct Marketplace.Listing",
						"members": [
							{
								"astId": 236,
								"contract": "Marketplace.sol:Marketplace",
								"label": "seller",
								"offset": 0,
								"slot": "0",
								"type": "t_address"
							},
							{
								"astId": 238,
								"contract": "Marketplace.sol:Marketplace",
								"label": "price",
								"offset": 0,
								"slot": "1",
								"type": "t_uint256"
							},
							{
								"astId": 240,
								"contract": "Marketplace.sol:Marketplace",
								"label": "active",
								"offset": 0,
								"slot": "2",
								"type": "t_bool"
							}
						],
						"numberOfBytes": "96"
					},
					"t_uint256": {
						"encoding": "inplace",
						"label": "uint256",
						"numberOfBytes": "32"
					}
				}
			},
			"userdoc": {
				"kind": "user",
				"methods": {},
				"version": 1
			}
		}
	}
}