{"contracts/LendingPool.sol":{"LendingPool":{"abi":[{"inputs":[],"stateMutability":"nonpayable","type":"constructor"},{"inputs":[{"internalType":"address","name":"owner","type":"address"}],"name":"OwnableInvalidOwner","type":"error"},{"inputs":[{"internalType":"address","name":"account","type":"address"}],"name":"OwnableUnauthorizedAccount","type":"error"},{"inputs":[],"name":"ReentrancyGuardReentrantCall","type":"error"},{"anonymous":false,"inputs":[{"indexed":true,"internalType":"address","name":"user","type":"address"},{"indexed":true,"internalType":"address","name":"token","type":"address"},{"indexed":false,"internalType":"uint256","name":"amount","type":"uint256"}],"name":"Borrow","type":"event"},{"anonymous":false,"inputs":[{"indexed":true,"internalType":"address","name":"user","type":"address"},{"indexed":true,"internalType":"address","name":"token","type":"address"},{"indexed":false,"internalType":"uint256","name":"amount","type":"uint256"}],"name":"Deposit","type":"event"},{"anonymous":false,"inputs":[{"indexed":true,"internalType":"address","name":"previousOwner","type":"address"},{"indexed":true,"internalType":"address","name":"newOwner","type":"address"}],"name":"OwnershipTransferred","type":"event"},{"anonymous":false,"inputs":[{"indexed":true,"internalType":"address","name":"token","type":"address"},{"indexed":false,"internalType":"uint256","name":"newPrice","type":"uint256"}],"name":"PriceUpdated","type":"event"},{"anonymous":false,"inputs":[{"indexed":true,"internalType":"address","name":"user","type":"address"},{"indexed":true,"internalType":"address","name":"token","type":"address"},{"indexed":false,"internalType":"uint256","name":"amount","type":"uint256"}],"name":"Repay","type":"event"},{"anonymous":false,"inputs":[{"indexed":true,"internalType":"address","name":"user","type":"address"},{"indexed":true,"internalType":"address","name":"token","type":"address"},{"indexed":false,"internalType":"uint256","name":"amount","type":"uint256"}],"name":"Withdraw","type":"event"},{"inputs":[],"name":"BLOCKS_PER_YEAR","outputs":[{"internalType":"uint256","name":"","type":"uint256"}],"stateMutability":"view","type":"function"},{"inputs":[],"name":"PRECISION","outputs":[{"internalType":"uint256","name":"","type":"uint256"}],"stateMutability":"view","type":"function"},{"inputs":[],"name":"RESERVE_FACTOR","outputs":[{"internalType":"uint256","name":"","type":"uint256"}],"stateMutability":"view","type":"function"},{"inputs":[{"internalType":"address","name":"token","type":"address"}],"name":"accrueInterest","outputs":[],"stateMutability":"nonpayable","type":"function"},{"inputs":[{"internalType":"address","name":"token","type":"address"},{"internalType":"uint256","name":"ltv","type":"uint256"},{"internalType":"uint256","name":"liquidationThreshold","type":"uint256"},{"internalType":"uint256","name":"baseRatePerYear","type":"uint256"},{"internalType":"uint256","name":"slopePerYear","type":"uint256"},{"internalType":"uint256","name":"initialPriceUSD","type":"uint256"}],"name":"addSupportedToken","outputs":[],"stateMutability":"nonpayable","type":"function"},{"inputs":[{"internalType":"address","name":"token","type":"address"},{"internalType":"uint256","name":"amount","type":"uint256"}],"name":"borrow","outputs":[],"stateMutability":"nonpayable","type":"function"},{"inputs":[{"internalType":"address","name":"token","type":"address"},{"internalType":"uint256","name":"amount","type":"uint256"}],"name":"deposit","outputs":[],"stateMutability":"nonpayable","type":"function"},{"inputs":[{"internalType":"address","name":"token","type":"address"}],"name":"getBorrowAPY","outputs":[{"internalType":"uint256","name":"","type":"uint256"}],"stateMutability":"view","type":"function"},{"inputs":[{"internalType":"address","name":"user","type":"address"},{"internalType":"address","name":"token","type":"address"}],"name":"getBorrowBalance","outputs":[{"internalType":"uint256","name":"","type":"uint256"}],"stateMutability":"view","type":"function"},{"inputs":[{"internalType":"address","name":"user","type":"address"}],"name":"getHealthFactor","outputs":[{"internalType":"uint256","name":"","type":"uint256"}],"stateMutability":"view","type":"function"},{"inputs":[{"internalType":"address","name":"token","type":"address"}],"name":"getMarketData","outputs":[{"internalType":"uint256","name":"totalSupplied","type":"uint256"},{"internalType":"uint256","name":"totalBorrowed","type":"uint256"},{"internalType":"uint256","name":"utilizationRate","type":"uint256"},{"internalType":"uint256","name":"supplyAPY","type":"uint256"},{"internalType":"uint256","name":"borrowAPY","type":"uint256"},{"internalType":"uint256","name":"price","type":"uint256"}],"stateMutability":"view","type":"function"},{"inputs":[{"internalType":"address","name":"user","type":"address"},{"internalType":"address","name":"borrowToken","type":"address"}],"name":"getMaxBorrow","outputs":[{"internalType":"uint256","name":"","type":"uint256"}],"stateMutability":"view","type":"function"},{"inputs":[{"internalType":"address","name":"token","type":"address"}],"name":"getSupplyAPY","outputs":[{"internalType":"uint256","name":"","type":"uint256"}],"stateMutability":"view","type":"function"},{"inputs":[{"internalType":"address","name":"user","type":"address"},{"internalType":"address","name":"token","type":"address"}],"name":"getSupplyBalance","outputs":[{"internalType":"uint256","name":"","type":"uint256"}],"stateMutability":"view","type":"function"},{"inputs":[],"name":"getSupportedTokens","outputs":[{"internalType":"address[]","name":"","type":"address[]"}],"stateMutability":"view","type":"function"},{"inputs":[{"internalType":"address","name":"user","type":"address"}],"name":"getTotalCollateralUSD","outputs":[{"internalType":"uint256","name":"","type":"uint256"}],"stateMutability":"view","type":"function"},{"inputs":[{"internalType":"address","name":"user","type":"address"}],"name":"getTotalDebtUSD","outputs":[{"internalType":"uint256","name":"","type":"uint256"}],"stateMutability":"view","type":"function"},{"inputs":[{"internalType":"address","name":"user","type":"address"},{"internalType":"address","name":"token","type":"address"}],"name":"getUserData","outputs":[{"internalType":"uint256","name":"supplyBalance","type":"uint256"},{"internalType":"uint256","name":"borrowBalance","type":"uint256"},{"internalType":"uint256","name":"healthFactor","type":"uint256"},{"internalType":"uint256","name":"maxBorrow","type":"uint256"}],"stateMutability":"view","type":"function"},{"inputs":[{"internalType":"address","name":"token","type":"address"}],"name":"getUtilizationRate","outputs":[{"internalType":"uint256","name":"","type":"uint256"}],"stateMutability":"view","type":"function"},{"inputs":[{"internalType":"address","name":"","type":"address"}],"name":"markets","outputs":[{"internalType":"uint256","name":"totalScaledSupply","type":"uint256"},{"internalType":"uint256","name":"totalScaledBorrow","type":"uint256"},{"internalType":"uint256","name":"borrowIndex","type":"uint256"},{"internalType":"uint256","name":"supplyIndex","type":"uint256"},{"internalType":"uint256","name":"lastUpdateBlock","type":"uint256"}],"stateMutability":"view","type":"function"},{"inputs":[],"name":"owner","outputs":[{"internalType":"address","name":"","type":"address"}],"stateMutability":"view","type":"function"},{"inputs":[],"name":"renounceOwnership","outputs":[],"stateMutability":"nonpayable","type":"function"},{"inputs":[{"internalType":"address","name":"token","type":"address"},{"internalType":"uint256","name":"amount","type":"uint256"}],"name":"repay","outputs":[],"stateMutability":"nonpayable","type":"function"},{"inputs":[{"internalType":"address","name":"token","type":"address"},{"internalType":"uint256","name":"priceUSD","type":"uint256"}],"name":"setTokenPrice","outputs":[],"stateMutability":"nonpayable","type":"function"},{"inputs":[{"internalType":"uint256","name":"","type":"uint256"}],"name":"supportedTokens","outputs":[{"internalType":"address","name":"","type":"address"}],"stateMutability":"view","type":"function"},{"inputs":[{"internalType":"address","name":"","type":"address"}],"name":"tokenConfigs","outputs":[{"internalType":"bool","name":"supported","type":"bool"},{"internalType":"uint256","name":"ltv","type":"uint256"},{"internalType":"uint256","name":"liquidationThreshold","type":"uint256"},{"internalType":"uint256","name":"baseRatePerYear","type":"uint256"},{"internalType":"uint256","name":"slopePerYear","type":"uint256"}],"stateMutability":"view","type":"function"},{"inputs":[{"internalType":"address","name":"","type":"address"}],"name":"tokenPricesUSD","outputs":[{"internalType":"uint256","name":"","type":"uint256"}],"stateMutability":"view","type":"function"},{"inputs":[{"internalType":"address","name":"newOwner","type":"address"}],"name":"transferOwnership","outputs":[],"stateMutability":"nonpayable","type":"function"},{"inputs":[{"internalType":"address","name":"","type":"address"},{"internalType":"address","name":"","type":"address"}],"name":"userBorrows","outputs":[{"internalType":"uint256","name":"scaledAmount","type":"uint256"}],"stateMutability":"view","type":"function"},{"inputs":[{"internalType":"address","name":"","type":"address"},{"internalType":"address","name":"","type":"address"}],"name":"userSupplies","outputs":[{"internalType":"uint256","name":"scaledAmount","type":"uint256"}],"stateMutability":"view","type":"function"},{"inputs":[{"internalType":"address","name":"token","type":"address"},{"internalType":"uint256","name":"amount","type":"uint256"}],"name":"withdraw","outputs":[],"stateMutability":"nonpayable","type":"function"}],"evm":{"bytecode":{"linkReferences":{},"object":"608060405234801561001057600080fd5b50338061003757604051631e4fbdf760e01b81526000600482015260240160405180910390fd5b6100408161006a565b5060017f9b779b17422d0df92223018b32b4d1fa46e071723d6817e2486d003becc55f00556100ba565b600080546001600160a01b038381166001600160a01b0319831681178455604051919092169283917f8be0079c531659141344cd1fd0a4f28419497f9722a3daafe3b4186f6b6457e09190a35050565b612496806100c96000396000f3fe608060405234801561001057600080fd5b50600436106101e55760003560e01c80638da5cb5b1161010f578063d37db1d2116100a2578063f3fef3a311610071578063f3fef3a314610506578063f4eeefe914610519578063f91bff571461054c578063fe6bcd7c1461055f57600080fd5b8063d37db1d2146104cc578063d3c7c2c7146104d6578063ea32605b146104eb578063f2fde38b146104f357600080fd5b8063a30c302d116100de578063a30c302d14610457578063aaf5eb6814610497578063ba377731146104a6578063c6255626146104b957600080fd5b80638da5cb5b146103a65780638e8f294b146103cb5780639198e5151461043157806391c39b511461044457600080fd5b80632d27b824116101875780634b8a3529116101565780634b8a3529146103655780634fe2cf9014610378578063715018a61461038b5780637b6aa8bd1461039357600080fd5b80632d27b824146103195780633842ea421461032c578063431f63c91461033f57806347e7ef241461035257600080fd5b80631b69dc5f116101c35780631b69dc5f1461025b5780631ec18ec0146102c657806322867d78146102d9578063234a14f9146102ee57600080fd5b8063028cc651146101ea578063118e31b71461022857806319089a0d1461023b575b600080fd5b6102156101f836600461220d565b600560209081526000928352604080842090915290825290205481565b6040519081526020015b60405180910390f35b61021561023636600461220d565b610572565b610215610249366004612240565b60046020526000908152604090205481565b61029c610269366004612240565b60026020819052600091825260409091208054600182015492820154600383015460049093015460ff9092169392909185565b6040805195151586526020860194909452928401919091526060830152608082015260a00161021f565b6102156102d436600461220d565b610587565b6102ec6102e736600461225b565b6106f9565b005b6102156102fc36600461220d565b600660209081526000928352604080842090915290825290205481565b610215610327366004612240565b610965565b61021561033a366004612240565b610a1c565b6102ec61034d36600461225b565b610a75565b6102ec61036036600461225b565b610b2e565b6102ec61037336600461225b565b610d2f565b6102ec610386366004612285565b611069565b6102ec6112c7565b6102156103a1366004612240565b6112db565b6000546001600160a01b03165b6040516001600160a01b03909116815260200161021f565b6104096103d9366004612240565b60036020819052600091825260409091208054600182015460028301549383015460049093015491939092909185565b604080519586526020860194909452928401919091526060830152608082015260a00161021f565b6102ec61043f366004612240565b6113af565b610215610452366004612240565b611413565b61046a610465366004612240565b6114b9565b604080519687526020870195909552938501929092526060840152608083015260a082015260c00161021f565b610215670de0b6b3a764000081565b6102156104b436600461220d565b6115a8565b6103b36104c73660046122cf565b6115b4565b6102156220148081565b6104de6115de565b60405161021f91906122e8565b610215600a81565b6102ec610501366004612240565b611640565b6102ec61051436600461225b565b61167b565b61052c61052736600461220d565b6118d4565b60408051948552602085019390935291830152606082015260800161021f565b61021561055a366004612240565b611a81565b61021561056d366004612240565b611b20565b600061057e8383611b58565b90505b92915050565b60008080805b600154811015610698576000600182815481106105ac576105ac612335565b60009182526020808320909101546001600160a01b031680835260049091526040822054909250906105de8984611bc1565b90508015610643576001600160a01b038316600090815260026020526040902060010154606490670de0b6b3a76400006106188585612361565b6106229190612378565b61062c9190612361565b6106369190612378565b610640908761239a565b95505b600061064f8a85611b58565b9050801561068157670de0b6b3a764000061066a8483612361565b6106749190612378565b61067e908761239a565b95505b505050508080610690906123ad565b91505061058d565b508082116106ab57600092505050610581565b60006106b782846123c6565b6001600160a01b0386166000908152600460205260409020549091506106e5670de0b6b3a764000083612361565b6106ef9190612378565b9695505050505050565b610701611c2b565b6000811161072a5760405162461bcd60e51b8152600401610721906123d9565b60405180910390fd5b61073382611c47565b600061073f3384611b58565b9050600081116107845760405162461bcd60e51b815260206004820152601060248201526f4e6f206465627420746f20726570617960801b6044820152606401610721565b6000198203610791578091505b60008183116107a057826107a2565b815b6040516323b872dd60e01b8152336004820152306024820152604481018290529091506001600160a01b038516906323b872dd906064016020604051808303816000875af11580156107f8573d6000803e3d6000fd5b505050506040513d601f19601f8201168201806040525081019061081c9190612405565b506001600160a01b03841660009081526003602052604081206002015461084b670de0b6b3a764000084612361565b6108559190612378565b3360009081526006602090815260408083206001600160a01b038a1684529091529020805491925090821061088b576000610898565b80546108989083906123c6565b81556001600160a01b03861660009081526003602052604090206001015482106108c35760006108ea565b6001600160a01b0386166000908152600360205260409020600101546108ea9083906123c6565b6001600160a01b0387166000818152600360205260409081902060010192909255905133907f05f2eeda0e08e4b437f487c8d7d29b14537d15e3488170dc3de5dbdf8dac46849061093e9087815260200190565b60405180910390a350505050610961600160008051602061244183398151915255565b5050565b600080610971836112db565b6001600160a01b038416600090815260026020818152604092839020835160a081018552815460ff16151581526001820154928101929092529182015492810192909252600381015460608301526004015460808201819052919250906064906109dc908490612361565b6109e69190612378565b6064670de0b6b3a76400008360600151610a009190612361565b610a0a9190612378565b610a14919061239a565b949350505050565b600080610a28836112db565b90506000610a3584610965565b90506064610a44600a826123c6565b670de0b6b3a7640000610a578585612361565b610a619190612378565b610a6b9190612361565b610a149190612378565b610a7d611ec1565b6001600160a01b03821660009081526002602052604090205460ff16610ad55760405162461bcd60e51b815260206004820152600d60248201526c139bdd081cdd5c1c1bdc9d1959609a1b6044820152606401610721565b6001600160a01b03821660008181526004602052604090819020839055517f0d86730737b142fc160892fa8a0f2db687a92a0e294d1ad70624cf5acef03b8490610b229084815260200190565b60405180910390a25050565b610b36611c2b565b6001600160a01b03821660009081526002602052604090205460ff16610b945760405162461bcd60e51b8152602060048201526013602482015272151bdad95b881b9bdd081cdd5c1c1bdc9d1959606a1b6044820152606401610721565b60008111610bb45760405162461bcd60e51b8152600401610721906123d9565b610bbd82611c47565b6040516323b872dd60e01b8152336004820152306024820152604481018290526001600160a01b038316906323b872dd906064016020604051808303816000875af1158015610c10573d6000803e3d6000fd5b505050506040513d601f19601f82011682018060405250810190610c349190612405565b506001600160a01b038216600090815260036020819052604082200154610c63670de0b6b3a764000084612361565b610c6d9190612378565b3360009081526005602090815260408083206001600160a01b0388168452909152812080549293508392909190610ca590849061239a565b90915550506001600160a01b03831660009081526003602052604081208054839290610cd290849061239a565b90915550506040518281526001600160a01b0384169033907f5548c837ab068cf56a2c2479df0882a4922fd203edb7517321831d95078c5f629060200160405180910390a350610961600160008051602061244183398151915255565b610d37611c2b565b6001600160a01b03821660009081526002602052604090205460ff16610d955760405162461bcd60e51b8152602060048201526013602482015272151bdad95b881b9bdd081cdd5c1c1bdc9d1959606a1b6044820152606401610721565b60008111610db55760405162461bcd60e51b8152600401610721906123d9565b610dbe82611c47565b6040516370a0823160e01b81523060048201526000906001600160a01b038416906370a0823190602401602060405180830381865afa158015610e05573d6000803e3d6000fd5b505050506040513d601f19601f82011682018060405250810190610e299190612427565b905081811015610e7b5760405162461bcd60e51b815260206004820152601b60248201527f496e73756666696369656e7420706f6f6c206c697175696469747900000000006044820152606401610721565b610e86338484611eee565b610ef85760405162461bcd60e51b815260206004820152603a60248201527f496e73756666696369656e7420636f6c6c61746572616c20284865616c74682060448201527f466163746f7220776f756c642064726f702062656c6f772031290000000000006064820152608401610721565b6001600160a01b038316600090815260036020526040812060020154610f26670de0b6b3a764000085612361565b610f309190612378565b3360009081526006602090815260408083206001600160a01b0389168452909152812080549293508392909190610f6890849061239a565b90915550506001600160a01b03841660009081526003602052604081206001018054839290610f9890849061239a565b909155505060405163a9059cbb60e01b8152336004820152602481018490526001600160a01b0385169063a9059cbb906044016020604051808303816000875af1158015610fea573d6000803e3d6000fd5b505050506040513d601f19601f8201168201806040525081019061100e9190612405565b506040518381526001600160a01b0385169033907f312a5e5e1079f5dda4e95dbbd0b908b291fd5b992ef22073643ab691572c5b52906020015b60405180910390a35050610961600160008051602061244183398151915255565b611071611ec1565b6001600160a01b0386166110b75760405162461bcd60e51b815260206004820152600d60248201526c24b73b30b634b2103a37b5b2b760991b6044820152606401610721565b6001600160a01b03861660009081526002602052604090205460ff16156111145760405162461bcd60e51b8152602060048201526011602482015270105b1c9958591e481cdd5c1c1bdc9d1959607a1b6044820152606401610721565b8385106111635760405162461bcd60e51b815260206004820152601b60248201527f4c5456206d757374206265203c206c6971207468726573686f6c6400000000006044820152606401610721565b605f8411156111ad5760405162461bcd60e51b8152602060048201526016602482015275098d2e240e8d0e4cae6d0ded8c840e8dede40d0d2ced60531b6044820152606401610721565b6040805160a0808201835260018083526020808401998a52838501988952606080850198895260808086019889526001600160a01b039c909c16600081815260028085528882209751885460ff19169015151788559c51878601559a51868d015598516003808701919091559751600495860155855193840186528984528382018a8152670de0b6b3a7640000858801818152928601908152439d86019d8e528a8c52898452878c209551865590518585015590519a84019a909a559851958201959095559751978101979097559590945293822092909255825480840184559290527fb10e2d527612073b26eecdfd717e6a320cf44b4afac2b0732d9fcbe2b7fa0cf690910180546001600160a01b0319169091179055565b6112cf611ec1565b6112d96000611f87565b565b6001600160a01b0381166000908152600360208181526040808420815160a08101835281548152600182015493810184905260028201549281018390529381015460608501526004015460808401528391670de0b6b3a76400009161133f91612361565b6113499190612378565b90506000670de0b6b3a76400008360600151846000015161136a9190612361565b6113749190612378565b90508060000361138957506000949350505050565b8061139c670de0b6b3a764000084612361565b6113a69190612378565b95945050505050565b6001600160a01b03811660009081526002602052604090205460ff166114075760405162461bcd60e51b815260206004820152600d60248201526c139bdd081cdd5c1c1bdc9d1959609a1b6044820152606401610721565b61141081611c47565b50565b600080805b6001548110156114b25760006001828154811061143757611437612335565b60009182526020822001546001600160a01b031691506114578683611b58565b6001600160a01b038316600090815260046020526040902054909150670de0b6b3a7640000906114879083612361565b6114919190612378565b61149b908561239a565b9350505080806114aa906123ad565b915050611418565b5092915050565b6001600160a01b0381166000908152600360208181526040808420815160a08101835281548082526001830154948201949094526002820154928101929092529283015460608201819052600490930154608082015283928392839283928392670de0b6b3a76400009161152c91612361565b6115369190612378565b9650670de0b6b3a7640000816040015182602001516115559190612361565b61155f9190612378565b955061156a886112db565b945061157588610a1c565b935061158088610965565b6001600160a01b03909816600090815260046020526040902054969895979496939592505050565b600061057e8383611bc1565b600181815481106115c457600080fd5b6000918252602090912001546001600160a01b0316905081565b6060600180548060200260200160405190810160405280929190818152602001828054801561163657602002820191906000526020600020905b81546001600160a01b03168152600190910190602001808311611618575b5050505050905090565b611648611ec1565b6001600160a01b03811661167257604051631e4fbdf760e01b815260006004820152602401610721565b61141081611f87565b611683611c2b565b600081116116a35760405162461bcd60e51b8152600401610721906123d9565b6116ac82611c47565b60006116b83384611bc1565b905060001982036116c7578091505b818110156117175760405162461bcd60e51b815260206004820152601b60248201527f496e73756666696369656e7420737570706c792062616c616e636500000000006044820152606401610721565b611722338484611fd7565b6117835760405162461bcd60e51b815260206004820152602c60248201527f5769746864726177616c20776f756c6420756e646572636f6c6c61746572616c60448201526b34bd32903837b9b4ba34b7b760a11b6064820152608401610721565b6001600160a01b0383166000908152600360208190526040822001546117b1670de0b6b3a764000085612361565b6117bb9190612378565b3360009081526005602090815260408083206001600160a01b03891684529091528120805492935083929091906117f39084906123c6565b90915550506001600160a01b038416600090815260036020526040812080548392906118209084906123c6565b909155505060405163a9059cbb60e01b8152336004820152602481018490526001600160a01b0385169063a9059cbb906044016020604051808303816000875af1158015611872573d6000803e3d6000fd5b505050506040513d601f19601f820116820180604052508101906118969190612405565b506040518381526001600160a01b0385169033907f9b1bfa7fa9ee420a16e124f794c35ac9f90472acc99140eb2f6447c714cad8eb90602001611048565b6000806000806118e48686611bc1565b93506118f08686611b58565b92506118fb86611b20565b915060008060005b600154811015611a235760006001828154811061192257611922612335565b60009182526020822001546001600160a01b031691506119428b83611bc1565b905080156119b5576001600160a01b03821660009081526002602090815260408083206001015460049092529091205460649190670de0b6b3a76400009061198a9085612361565b6119949190612378565b61199e9190612361565b6119a89190612378565b6119b2908661239a565b94505b60006119c18c84611b58565b90508015611a0d576001600160a01b038316600090815260046020526040902054670de0b6b3a7640000906119f69083612361565b611a009190612378565b611a0a908661239a565b94505b5050508080611a1b906123ad565b915050611903565b5080821115611a71576001600160a01b038716600090815260046020526040902054670de0b6b3a7640000611a5883856123c6565b611a629190612361565b611a6c9190612378565b611a74565b60005b9250505092959194509250565b600080805b6001548110156114b257600060018281548110611aa557611aa5612335565b60009182526020822001546001600160a01b03169150611ac58683611bc1565b6001600160a01b038316600090815260046020526040902054909150670de0b6b3a764000090611af59083612361565b611aff9190612378565b611b09908561239a565b935050508080611b18906123ad565b915050611a86565b6000806000611b2e846120a9565b9150915080600003611b4557506000199392505050565b80610a6b670de0b6b3a764000084612361565b6001600160a01b038083166000908152600660209081526040808320938516835292905290812054808203611b91576000915050610581565b6001600160a01b038316600090815260036020526040902060020154670de0b6b3a764000090610a6b9083612361565b6001600160a01b038083166000908152600560209081526040808320938516835292905290812054808203611bfa576000915050610581565b6001600160a01b03831660009081526003602081905260409091200154670de0b6b3a764000090610a6b9083612361565b611c336121c1565b600260008051602061244183398151915255565b6001600160a01b03811660009081526003602052604081206004810154909190611c7190436123c6565b905080600003611c8057505050565b6000670de0b6b3a764000083600201548460010154611c9f9190612361565b611ca99190612378565b90506000670de0b6b3a764000084600301548560000154611cca9190612361565b611cd49190612378565b905060008115611d005781611cf1670de0b6b3a764000085612361565b611cfb9190612378565b611d03565b60005b6001600160a01b0387166000908152600260208181526040808420815160a081018352815460ff16151581526001820154938101939093529283015490820152600382015460608201526004909101546080820181905292935091606490611d6c908590612361565b611d769190612378565b6064670de0b6b3a76400008460600151611d909190612361565b611d9a9190612378565b611da4919061239a565b90506000611db56220148083612378565b90506000611dc38883612361565b9050670de0b6b3a7640000818a60020154611dde9190612361565b611de89190612378565b8960020154611df7919061239a565b60028a01558615801590611e0b5750600086115b15611eac5760006064611e1f600a826123c6565b670de0b6b3a7640000611e328988612361565b611e3c9190612378565b611e469190612361565b611e509190612378565b90506000611e616220148083612378565b90506000611e6f8b83612361565b9050670de0b6b3a7640000818d60030154611e8a9190612361565b611e949190612378565b8c60030154611ea3919061239a565b60038d01555050505b43896004018190555050505050505050505050565b6000546001600160a01b031633146112d95760405163118cdaa760e01b8152336004820152602401610721565b6000806000611efc866120a9565b6001600160a01b03871660009081526004602052604081205492945090925090670de0b6b3a764000090611f309087612361565b611f3a9190612378565b611f44908361239a565b905080600003611f5a5760019350505050611f80565b670de0b6b3a764000081611f6e8286612361565b611f789190612378565b101593505050505b9392505050565b600080546001600160a01b038381166001600160a01b0319831681178455604051919092169283917f8be0079c531659141344cd1fd0a4f28419497f9722a3daafe3b4186f6b6457e09190a35050565b6000806000611fe5866120a9565b9150915080600003611ffc57600192505050611f80565b6001600160a01b03851660009081526002602081815260408084209092015460049091529082205460649190670de0b6b3a76400009061203c9089612361565b6120469190612378565b6120509190612361565b61205a9190612378565b905082811061206f5760009350505050611f80565b600061207b82856123c6565b9050670de0b6b3a7640000836120918284612361565b61209b9190612378565b101598975050505050505050565b60008060005b6001548110156121bb576000600182815481106120ce576120ce612335565b60009182526020808320909101546001600160a01b031680835260049091526040822054909250906121008784611bc1565b90508015612166576001600160a01b03831660009081526002602081905260409091200154606490670de0b6b3a764000061213b8585612361565b6121459190612378565b61214f9190612361565b6121599190612378565b612163908761239a565b95505b60006121728885611b58565b905080156121a457670de0b6b3a764000061218d8483612361565b6121979190612378565b6121a1908761239a565b95505b5050505080806121b3906123ad565b9150506120af565b50915091565b600080516020612441833981519152546002036112d957604051633ee5aeb560e01b815260040160405180910390fd5b80356001600160a01b038116811461220857600080fd5b919050565b6000806040838503121561222057600080fd5b612229836121f1565b9150612237602084016121f1565b90509250929050565b60006020828403121561225257600080fd5b61057e826121f1565b6000806040838503121561226e57600080fd5b612277836121f1565b946020939093013593505050565b60008060008060008060c0878903121561229e57600080fd5b6122a7876121f1565b9860208801359850604088013597606081013597506080810135965060a00135945092505050565b6000602082840312156122e157600080fd5b5035919050565b6020808252825182820181905260009190848201906040850190845b818110156123295783516001600160a01b031683529284019291840191600101612304565b50909695505050505050565b634e487b7160e01b600052603260045260246000fd5b634e487b7160e01b600052601160045260246000fd5b80820281158282048414176105815761058161234b565b60008261239557634e487b7160e01b600052601260045260246000fd5b500490565b808201808211156105815761058161234b565b6000600182016123bf576123bf61234b565b5060010190565b818103818111156105815761058161234b565b6020808252601290820152710416d6f756e74206d757374206265203e20360741b604082015260600190565b60006020828403121561241757600080fd5b81518015158114611f8057600080fd5b60006020828403121561243957600080fd5b505191905056fe9b779b17422d0df92223018b32b4d1fa46e071723d6817e2486d003becc55f00a26469706673582212201332d37c5b718473c7797b6ce839307f360f459e465d19a55149d66f06bf412264736f6c63430008140033","opcodes":"PUSH1 0x80 PUSH1 0x40 MSTORE CALLVALUE DUP1 ISZERO PUSH2 0x10 JUMPI PUSH1 0x0 DUP1 REVERT JUMPDEST POP CALLER DUP1 PUSH2 0x37 JUMPI PUSH1 0x40 MLOAD PUSH4 0x1E4FBDF7 PUSH1 0xE0 SHL DUP2 MSTORE PUSH1 0x0 PUSH1 0x4 DUP3 ADD MSTORE PUSH1 0x24 ADD PUSH1 0x40 MLOAD DUP1 SWAP2 SUB SWAP1 REVERT JUMPDEST PUSH2 0x40 DUP2 PUSH2 0x6A JUMP JUMPDEST POP PUSH1 0x1 PUSH32 0x9B779B17422D0DF92223018B32B4D1FA46E071723D6817E2486D003BECC55F00 SSTORE PUSH2 0xBA JUMP JUMPDEST PUSH1 0x0 DUP1 SLOAD PUSH1 0x1 PUSH1 0x1 PUSH1 0xA0 SHL SUB DUP4 DUP2 AND PUSH1 0x1 PUSH1 0x1 PUSH1 0xA0 SHL SUB NOT DUP4 AND DUP2 OR DUP5 SSTORE PUSH1 0x40 MLOAD SWAP2 SWAP1 SWAP3 AND SWAP3 DUP4 SWAP2 PUSH32 0x8BE0079C531659141344CD1FD0A4F28419497F9722A3DAAFE3B4186F6B6457E0 SWAP2 SWAP1 LOG3 POP POP JUMP JUMPDEST PUSH2 0x2496 DUP1 PUSH2 0xC9 PUSH1 0x0 CODECOPY PUSH1 0x0 RETURN INVALID PUSH1 0x80 PUSH1 0x40 MSTORE CALLVALUE DUP1 ISZERO PUSH2 0x10 JUMPI PUSH1 0x0 DUP1 REVERT JUMPDEST POP PUSH1 0x4 CALLDATASIZE LT PUSH2 0x1E5 JUMPI PUSH1 0x0 CALLDATALOAD PUSH1 0xE0 SHR DUP1 PUSH4 0x8DA5CB5B GT PUSH2 0x10F JUMPI DUP1 PUSH4 0xD37DB1D2 GT PUSH2 0xA2 JUMPI DUP1 PUSH4 0xF3FEF3A3 GT PUSH2 0x71 JUMPI DUP1 PUSH4 0xF3FEF3A3 EQ PUSH2 0x506 JUMPI DUP1 PUSH4 0xF4EEEFE9 EQ PUSH2 0x519 JUMPI DUP1 PUSH4 0xF91BFF57 EQ PUSH2 0x54C JUMPI DUP1 PUSH4 0xFE6BCD7C EQ PUSH2 0x55F JUMPI PUSH1 0x0 DUP1 REVERT JUMPDEST DUP1 PUSH4 0xD37DB1D2 EQ PUSH2 0x4CC JUMPI DUP1 PUSH4 0xD3C7C2C7 EQ PUSH2 0x4D6 JUMPI DUP1 PUSH4 0xEA32605B EQ PUSH2 0x4EB JUMPI DUP1 PUSH4 0xF2FDE38B EQ PUSH2 0x4F3 JUMPI PUSH1 0x0 DUP1 REVERT JUMPDEST DUP1 PUSH4 0xA30C302D GT PUSH2 0xDE JUMPI DUP1 PUSH4 0xA30C302D EQ PUSH2 0x457 JUMPI DUP1 PUSH4 0xAAF5EB68 EQ PUSH2 0x497 JUMPI DUP1 PUSH4 0xBA377731 EQ PUSH2 0x4A6 JUMPI DUP1 PUSH4 0xC6255626 EQ PUSH2 0x4B9 JUMPI PUSH1 0x0 DUP1 REVERT JUMPDEST DUP1 PUSH4 0x8DA5CB5B EQ PUSH2 0x3A6 JUMPI DUP1 PUSH4 0x8E8F294B EQ PUSH2 0x3CB JUMPI DUP1 PUSH4 0x9198E515 EQ PUSH2 0x431 JUMPI DUP1 PUSH4 0x91C39B51 EQ PUSH2 0x444 JUMPI PUSH1 0x0 DUP1 REVERT JUMPDEST DUP1 PUSH4 0x2D27B824 GT PUSH2 0x187 JUMPI DUP1 PUSH4 0x4B8A3529 GT PUSH2 0x156 JUMPI DUP1 PUSH4 0x4B8A3529 EQ PUSH2 0x365 JUMPI DUP1 PUSH4 0x4FE2CF90 EQ PUSH2 0x378 JUMPI DUP1 PUSH4 0x715018A6 EQ PUSH2 0x38B JUMPI DUP1 PUSH4 0x7B6AA8BD EQ PUSH2 0x393 JUMPI PUSH1 0x0 DUP1 REVERT JUMPDEST DUP1 PUSH4 0x2D27B824 EQ PUSH2 0x319 JUMPI DUP1 PUSH4 0x3842EA42 EQ PUSH2 0x32C JUMPI DUP1 PUSH4 0x431F63C9 EQ PUSH2 0x33F JUMPI DUP1 PUSH4 0x47E7EF24 EQ PUSH2 0x352 JUMPI PUSH1 0x0 DUP1 REVERT JUMPDEST DUP1 PUSH4 0x1B69DC5F GT PUSH2 0x1C3 JUMPI DUP1 PUSH4 0x1B69DC5F EQ PUSH2 0x25B JUMPI DUP1 PUSH4 0x1EC18EC0 EQ PUSH2 0x2C6 JUMPI DUP1 PUSH4 0x22867D78 EQ PUSH2 0x2D9 JUMPI DUP1 PUSH4 0x234A14F9 EQ PUSH2 0x2EE JUMPI PUSH1 0x0 DUP1 REVERT JUMPDEST DUP1 PUSH4 0x28CC651 EQ PUSH2 0x1EA JUMPI DUP1 PUSH4 0x118E31B7 EQ PUSH2 0x228 JUMPI DUP1 PUSH4 0x19089A0D EQ PUSH2 0x23B JUMPI JUMPDEST PUSH1 0x0 DUP1 REVERT JUMPDEST PUSH2 0x215 PUSH2 0x1F8 CALLDATASIZE PUSH1 0x4 PUSH2 0x220D JUMP JUMPDEST PUSH1 0x5 PUSH1 0x20 SWAP1 DUP2 MSTORE PUSH1 0x0 SWAP3 DUP4 MSTORE PUSH1 0x40 DUP1 DUP5 KECCAK256 SWAP1 SWAP2 MSTORE SWAP1 DUP3 MSTORE SWAP1 KECCAK256 SLOAD DUP2 JUMP JUMPDEST PUSH1 0x40 MLOAD SWAP1 DUP2 MSTORE PUSH1 0x20 ADD JUMPDEST PUSH1 0x40 MLOAD DUP1 SWAP2 SUB SWAP1 RETURN JUMPDEST PUSH2 0x215 PUSH2 0x236 CALLDATASIZE PUSH1 0x4 PUSH2 0x220D JUMP JUMPDEST PUSH2 0x572 JUMP JUMPDEST PUSH2 0x215 PUSH2 0x249 CALLDATASIZE PUSH1 0x4 PUSH2 0x2240 JUMP JUMPDEST PUSH1 0x4 PUSH1 0x20 MSTORE PUSH1 0x0 SWAP1 DUP2 MSTORE PUSH1 0x40 SWAP1 KECCAK256 SLOAD DUP2 JUMP JUMPDEST PUSH2 0x29C PUSH2 0x269 CALLDATASIZE PUSH1 0x4 PUSH2 0x2240 JUMP JUMPDEST PUSH1 0x2 PUSH1 0x20 DUP2 SWAP1 MSTORE PUSH1 0x0 SWAP2 DUP3 MSTORE PUSH1 0x40 SWAP1 SWAP2 KECCAK256 DUP1 SLOAD PUSH1 0x1 DUP3 ADD SLOAD SWAP3 DUP3 ADD SLOAD PUSH1 0x3 DUP4 ADD SLOAD PUSH1 0x4 SWAP1 SWAP4 ADD SLOAD PUSH1 0xFF SWAP1 SWAP3 AND SWAP4 SWAP3 SWAP1 SWAP2 DUP6 JUMP JUMPDEST PUSH1 0x40 DUP1 MLOAD SWAP6 ISZERO ISZERO DUP7 MSTORE PUSH1 0x20 DUP7 ADD SWAP5 SWAP1 SWAP5 MSTORE SWAP3 DUP5 ADD SWAP2 SWAP1 SWAP2 MSTORE PUSH1 0x60 DUP4 ADD MSTORE PUSH1 0x80 DUP3 ADD MSTORE PUSH1 0xA0 ADD PUSH2 0x21F JUMP JUMPDEST PUSH2 0x215 PUSH2 0x2D4 CALLDATASIZE PUSH1 0x4 PUSH2 0x220D JUMP JUMPDEST PUSH2 0x587 JUMP JUMPDEST PUSH2 0x2EC PUSH2 0x2E7 CALLDATASIZE PUSH1 0x4 PUSH2 0x225B JUMP JUMPDEST PUSH2 0x6F9 JUMP JUMPDEST STOP JUMPDEST PUSH2 0x215 PUSH2 0x2FC CALLDATASIZE PUSH1 0x4 PUSH2 0x220D JUMP JUMPDEST PUSH1 0x6 PUSH1 0x20 SWAP1 DUP2 MSTORE PUSH1 0x0 SWAP3 DUP4 MSTORE PUSH1 0x40 DUP1 DUP5 KECCAK256 SWAP1 SWAP2 MSTORE SWAP1 DUP3 MSTORE SWAP1 KECCAK256 SLOAD DUP2 JUMP JUMPDEST PUSH2 0x215 PUSH2 0x327 CALLDATASIZE PUSH1 0x4 PUSH2 0x2240 JUMP JUMPDEST PUSH2 0x965 JUMP JUMPDEST PUSH2 0x215 PUSH2 0x33A CALLDATASIZE PUSH1 0x4 PUSH2 0x2240 JUMP JUMPDEST PUSH2 0xA1C JUMP JUMPDEST PUSH2 0x2EC PUSH2 0x34D CALLDATASIZE PUSH1 0x4 PUSH2 0x225B JUMP JUMPDEST PUSH2 0xA75 JUMP JUMPDEST PUSH2 0x2EC PUSH2 0x360 CALLDATASIZE PUSH1 0x4 PUSH2 0x225B JUMP JUMPDEST PUSH2 0xB2E JUMP JUMPDEST PUSH2 0x2EC PUSH2 0x373 CALLDATASIZE PUSH1 0x4 PUSH2 0x225B JUMP JUMPDEST PUSH2 0xD2F JUMP JUMPDEST PUSH2 0x2EC PUSH2 0x386 CALLDATASIZE PUSH1 0x4 PUSH2 0x2285 JUMP JUMPDEST PUSH2 0x1069 JUMP JUMPDEST PUSH2 0x2EC PUSH2 0x12C7 JUMP JUMPDEST PUSH2 0x215 PUSH2 0x3A1 CALLDATASIZE PUSH1 0x4 PUSH2 0x2240 JUMP JUMPDEST PUSH2 0x12DB JUMP JUMPDEST PUSH1 0x0 SLOAD PUSH1 0x1 PUSH1 0x1 PUSH1 0xA0 SHL SUB AND JUMPDEST PUSH1 0x40 MLOAD PUSH1 0x1 PUSH1 0x1 PUSH1 0xA0 SHL SUB SWAP1 SWAP2 AND DUP2 MSTORE PUSH1 0x20 ADD PUSH2 0x21F JUMP JUMPDEST PUSH2 0x409 PUSH2 0x3D9 CALLDATASIZE PUSH1 0x4 PUSH2 0x2240 JUMP JUMPDEST PUSH1 0x3 PUSH1 0x20 DUP2 SWAP1 MSTORE PUSH1 0x0 SWAP2 DUP3 MSTORE PUSH1 0x40 SWAP1 SWAP2 KECCAK256 DUP1 SLOAD PUSH1 0x1 DUP3 ADD SLOAD PUSH1 0x2 DUP4 ADD SLOAD SWAP4 DUP4 ADD SLOAD PUSH1 0x4 SWAP1 SWAP4 ADD SLOAD SWAP2 SWAP4 SWAP1 SWAP3 SWAP1 SWAP2 DUP6 JUMP JUMPDEST PUSH1 0x40 DUP1 MLOAD SWAP6 DUP7 MSTORE PUSH1 0x20 DUP7 ADD SWAP5 SWAP1 SWAP5 MSTORE SWAP3 DUP5 ADD SWAP2 SWAP1 SWAP2 MSTORE PUSH1 0x60 DUP4 ADD MSTORE PUSH1 0x80 DUP3 ADD MSTORE PUSH1 0xA0 ADD PUSH2 0x21F JUMP JUMPDEST PUSH2 0x2EC PUSH2 0x43F CALLDATASIZE PUSH1 0x4 PUSH2 0x2240 JUMP JUMPDEST PUSH2 0x13AF JUMP JUMPDEST PUSH2 0x215 PUSH2 0x452 CALLDATASIZE PUSH1 0x4 PUSH2 0x2240 JUMP JUMPDEST PUSH2 0x1413 JUMP JUMPDEST PUSH2 0x46A PUSH2 0x465 CALLDATASIZE PUSH1 0x4 PUSH2 0x2240 JUMP JUMPDEST PUSH2 0x14B9 JUMP JUMPDEST PUSH1 0x40 DUP1 MLOAD SWAP7 DUP8 MSTORE PUSH1 0x20 DUP8 ADD SWAP6 SWAP1 SWAP6 MSTORE SWAP4 DUP6 ADD SWAP3 SWAP1 SWAP3 MSTORE PUSH1 0x60 DUP5 ADD MSTORE PUSH1 0x80 DUP4 ADD MSTORE PUSH1 0xA0 DUP3 ADD MSTORE PUSH1 0xC0 ADD PUSH2 0x21F JUMP JUMPDEST PUSH2 0x215 PUSH8 0xDE0B6B3A7640000 DUP2 JUMP JUMPDEST PUSH2 0x215 PUSH2 0x4B4 CALLDATASIZE PUSH1 0x4 PUSH2 0x220D JUMP JUMPDEST PUSH2 0x15A8 JUMP JUMPDEST PUSH2 0x3B3 PUSH2 0x4C7 CALLDATASIZE PUSH1 0x4 PUSH2 0x22CF JUMP JUMPDEST PUSH2 0x15B4 JUMP JUMPDEST PUSH2 0x215 PUSH3 0x201480 DUP2 JUMP JUMPDEST PUSH2 0x4DE PUSH2 0x15DE JUMP JUMPDEST PUSH1 0x40 MLOAD PUSH2 0x21F SWAP2 SWAP1 PUSH2 0x22E8 JUMP JUMPDEST PUSH2 0x215 PUSH1 0xA DUP2 JUMP JUMPDEST PUSH2 0x2EC PUSH2 0x501 CALLDATASIZE PUSH1 0x4 PUSH2 0x2240 JUMP JUMPDEST PUSH2 0x1640 JUMP JUMPDEST PUSH2 0x2EC PUSH2 0x514 CALLDATASIZE PUSH1 0x4 PUSH2 0x225B JUMP JUMPDEST PUSH2 0x167B JUMP JUMPDEST PUSH2 0x52C PUSH2 0x527 CALLDATASIZE PUSH1 0x4 PUSH2 0x220D JUMP JUMPDEST PUSH2 0x18D4 JUMP JUMPDEST PUSH1 0x40 DUP1 MLOAD SWAP5 DUP6 MSTORE PUSH1 0x20 DUP6 ADD SWAP4 SWAP1 SWAP4 MSTORE SWAP2 DUP4 ADD MSTORE PUSH1 0x60 DUP3 ADD MSTORE PUSH1 0x80 ADD PUSH2 0x21F JUMP JUMPDEST PUSH2 0x215 PUSH2 0x55A CALLDATASIZE PUSH1 0x4 PUSH2 0x2240 JUMP JUMPDEST PUSH2 0x1A81 JUMP JUMPDEST PUSH2 0x215 PUSH2 0x56D CALLDATASIZE PUSH1 0x4 PUSH2 0x2240 JUMP JUMPDEST PUSH2 0x1B20 JUMP JUMPDEST PUSH1 0x0 PUSH2 0x57E DUP4 DUP4 PUSH2 0x1B58 JUMP JUMPDEST SWAP1 POP JUMPDEST SWAP3 SWAP2 POP POP JUMP JUMPDEST PUSH1 0x0 DUP1 DUP1 DUP1 JUMPDEST PUSH1 0x1 SLOAD DUP2 LT ISZERO PUSH2 0x698 JUMPI PUSH1 0x0 PUSH1 0x1 DUP3 DUP2 SLOAD DUP2 LT PUSH2 0x5AC JUMPI PUSH2 0x5AC PUSH2 0x2335 JUMP JUMPDEST PUSH1 0x0 SWAP2 DUP3 MSTORE PUSH1 0x20 DUP1 DUP4 KECCAK256 SWAP1 SWAP2 ADD SLOAD PUSH1 0x1 PUSH1 0x1 PUSH1 0xA0 SHL SUB AND DUP1 DUP4 MSTORE PUSH1 0x4 SWAP1 SWAP2 MSTORE PUSH1 0x40 DUP3 KECCAK256 SLOAD SWAP1 SWAP3 POP SWAP1 PUSH2 0x5DE DUP10 DUP5 PUSH2 0x1BC1 JUMP JUMPDEST SWAP1 POP DUP1 ISZERO PUSH2 0x643 JUMPI PUSH1 0x1 PUSH1 0x1 PUSH1 0xA0 SHL SUB DUP4 AND PUSH1 0x0 SWAP1 DUP2 MSTORE PUSH1 0x2 PUSH1 0x20 MSTORE PUSH1 0x40 SWAP1 KECCAK256 PUSH1 0x1 ADD SLOAD PUSH1 0x64 SWAP1 PUSH8 0xDE0B6B3A7640000 PUSH2 0x618 DUP6 DUP6 PUSH2 0x2361 JUMP JUMPDEST PUSH2 0x622 SWAP2 SWAP1 PUSH2 0x2378 JUMP JUMPDEST PUSH2 0x62C SWAP2 SWAP1 PUSH2 0x2361 JUMP JUMPDEST PUSH2 0x636 SWAP2 SWAP1 PUSH2 0x2378 JUMP JUMPDEST PUSH2 0x640 SWAP1 DUP8 PUSH2 0x239A JUMP JUMPDEST SWAP6 POP JUMPDEST PUSH1 0x0 PUSH2 0x64F DUP11 DUP6 PUSH2 0x1B58 JUMP JUMPDEST SWAP1 POP DUP1 ISZERO PUSH2 0x681 JUMPI PUSH8 0xDE0B6B3A7640000 PUSH2 0x66A DUP5 DUP4 PUSH2 0x2361 JUMP JUMPDEST PUSH2 0x674 SWAP2 SWAP1 PUSH2 0x2378 JUMP JUMPDEST PUSH2 0x67E SWAP1 DUP8 PUSH2 0x239A JUMP JUMPDEST SWAP6 POP JUMPDEST POP POP POP POP DUP1 DUP1 PUSH2 0x690 SWAP1 PUSH2 0x23AD JUMP JUMPDEST SWAP2 POP POP PUSH2 0x58D JUMP JUMPDEST POP DUP1 DUP3 GT PUSH2 0x6AB JUMPI PUSH1 0x0 SWAP3 POP POP POP PUSH2 0x581 JUMP JUMPDEST PUSH1 0x0 PUSH2 0x6B7 DUP3 DUP5 PUSH2 0x23C6 JUMP JUMPDEST PUSH1 0x1 PUSH1 0x1 PUSH1 0xA0 SHL SUB DUP7 AND PUSH1 0x0 SWAP1 DUP2 MSTORE PUSH1 0x4 PUSH1 0x20 MSTORE PUSH1 0x40 SWAP1 KECCAK256 SLOAD SWAP1 SWAP2 POP PUSH2 0x6E5 PUSH8 0xDE0B6B3A7640000 DUP4 PUSH2 0x2361 JUMP JUMPDEST PUSH2 0x6EF SWAP2 SWAP1 PUSH2 0x2378 JUMP JUMPDEST SWAP7 SWAP6 POP POP POP POP POP POP JUMP JUMPDEST PUSH2 0x701 PUSH2 0x1C2B JUMP JUMPDEST PUSH1 0x0 DUP2 GT PUSH2 0x72A JUMPI PUSH1 0x40 MLOAD PUSH3 0x461BCD PUSH1 0xE5 SHL DUP2 MSTORE PUSH1 0x4 ADD PUSH2 0x721 SWAP1 PUSH2 0x23D9 JUMP JUMPDEST PUSH1 0x40 MLOAD DUP1 SWAP2 SUB SWAP1 REVERT JUMPDEST PUSH2 0x733 DUP3 PUSH2 0x1C47 JUMP JUMPDEST PUSH1 0x0 PUSH2 0x73F CALLER DUP5 PUSH2 0x1B58 JUMP JUMPDEST SWAP1 POP PUSH1 0x0 DUP2 GT PUSH2 0x784 JUMPI PUSH1 0x40 MLOAD PUSH3 0x461BCD PUSH1 0xE5 SHL DUP2 MSTORE PUSH1 0x20 PUSH1 0x4 DUP3 ADD MSTORE PUSH1 0x10 PUSH1 0x24 DUP3 ADD MSTORE PUSH16 0x4E6F206465627420746F207265706179 PUSH1 0x80 SHL PUSH1 0x44 DUP3 ADD MSTORE PUSH1 0x64 ADD PUSH2 0x721 JUMP JUMPDEST PUSH1 0x0 NOT DUP3 SUB PUSH2 0x791 JUMPI DUP1 SWAP2 POP JUMPDEST PUSH1 0x0 DUP2 DUP4 GT PUSH2 0x7A0 JUMPI DUP3 PUSH2 0x7A2 JUMP JUMPDEST DUP2 JUMPDEST PUSH1 0x40 MLOAD PUSH4 0x23B872DD PUSH1 0xE0 SHL DUP2 MSTORE CALLER PUSH1 0x4 DUP3 ADD MSTORE ADDRESS PUSH1 0x24 DUP3 ADD MSTORE PUSH1 0x44 DUP2 ADD DUP3 SWAP1 MSTORE SWAP1 SWAP2 POP PUSH1 0x1 PUSH1 0x1 PUSH1 0xA0 SHL SUB DUP6 AND SWAP1 PUSH4 0x23B872DD SWAP1 PUSH1 0x64 ADD PUSH1 0x20 PUSH1 0x40 MLOAD DUP1 DUP4 SUB DUP2 PUSH1 0x0 DUP8 GAS CALL ISZERO DUP1 ISZERO PUSH2 0x7F8 JUMPI RETURNDATASIZE PUSH1 0x0 DUP1 RETURNDATACOPY RETURNDATASIZE PUSH1 0x0 REVERT JUMPDEST POP POP POP POP PUSH1 0x40 MLOAD RETURNDATASIZE PUSH1 0x1F NOT PUSH1 0x1F DUP3 ADD AND DUP3 ADD DUP1 PUSH1 0x40 MSTORE POP DUP2 ADD SWAP1 PUSH2 0x81C SWAP2 SWAP1 PUSH2 0x2405 JUMP JUMPDEST POP PUSH1 0x1 PUSH1 0x1 PUSH1 0xA0 SHL SUB DUP5 AND PUSH1 0x0 SWAP1 DUP2 MSTORE PUSH1 0x3 PUSH1 0x20 MSTORE PUSH1 0x40 DUP2 KECCAK256 PUSH1 0x2 ADD SLOAD PUSH2 0x84B PUSH8 0xDE0B6B3A7640000 DUP5 PUSH2 0x2361 JUMP JUMPDEST PUSH2 0x855 SWAP2 SWAP1 PUSH2 0x2378 JUMP JUMPDEST CALLER PUSH1 0x0 SWAP1 DUP2 MSTORE PUSH1 0x6 PUSH1 0x20 SWAP1 DUP2 MSTORE PUSH1 0x40 DUP1 DUP4 KECCAK256 PUSH1 0x1 PUSH1 0x1 PUSH1 0xA0 SHL SUB DUP11 AND DUP5 MSTORE SWAP1 SWAP2 MSTORE SWAP1 KECCAK256 DUP1 SLOAD SWAP2 SWAP3 POP SWAP1 DUP3 LT PUSH2 0x88B JUMPI PUSH1 0x0 PUSH2 0x898 JUMP JUMPDEST DUP1 SLOAD PUSH2 0x898 SWAP1 DUP4 SWAP1 PUSH2 0x23C6 JUMP JUMPDEST DUP2 SSTORE PUSH1 0x1 PUSH1 0x1 PUSH1 0xA0 SHL SUB DUP7 AND PUSH1 0x0 SWAP1 DUP2 MSTORE PUSH1 0x3 PUSH1 0x20 MSTORE PUSH1 0x40 SWAP1 KECCAK256 PUSH1 0x1 ADD SLOAD DUP3 LT PUSH2 0x8C3 JUMPI PUSH1 0x0 PUSH2 0x8EA JUMP JUMPDEST PUSH1 0x1 PUSH1 0x1 PUSH1 0xA0 SHL SUB DUP7 AND PUSH1 0x0 SWAP1 DUP2 MSTORE PUSH1 0x3 PUSH1 0x20 MSTORE PUSH1 0x40 SWAP1 KECCAK256 PUSH1 0x1 ADD SLOAD PUSH2 0x8EA SWAP1 DUP4 SWAP1 PUSH2 0x23C6 JUMP JUMPDEST PUSH1 0x1 PUSH1 0x1 PUSH1 0xA0 SHL SUB DUP8 AND PUSH1 0x0 DUP2 DUP2 MSTORE PUSH1 0x3 PUSH1 0x20 MSTORE PUSH1 0x40 SWAP1 DUP2 SWAP1 KECCAK256 PUSH1 0x1 ADD SWAP3 SWAP1 SWAP3 SSTORE SWAP1 MLOAD CALLER SWAP1 PUSH32 0x5F2EEDA0E08E4B437F487C8D7D29B14537D15E3488170DC3DE5DBDF8DAC4684 SWAP1 PUSH2 0x93E SWAP1 DUP8 DUP2 MSTORE PUSH1 0x20 ADD SWAP1 JUMP JUMPDEST PUSH1 0x40 MLOAD DUP1 SWAP2 SUB SWAP1 LOG3 POP POP POP POP PUSH2 0x961 PUSH1 0x1 PUSH1 0x0 DUP1 MLOAD PUSH1 0x20 PUSH2 0x2441 DUP4 CODECOPY DUP2 MLOAD SWAP2 MSTORE SSTORE JUMP JUMPDEST POP POP JUMP JUMPDEST PUSH1 0x0 DUP1 PUSH2 0x971 DUP4 PUSH2 0x12DB JUMP JUMPDEST PUSH1 0x1 PUSH1 0x1 PUSH1 0xA0 SHL SUB DUP5 AND PUSH1 0x0 SWAP1 DUP2 MSTORE PUSH1 0x2 PUSH1 0x20 DUP2 DUP2 MSTORE PUSH1 0x40 SWAP3 DUP4 SWAP1 KECCAK256 DUP4 MLOAD PUSH1 0xA0 DUP2 ADD DUP6 MSTORE DUP2 SLOAD PUSH1 0xFF AND ISZERO ISZERO DUP2 MSTORE PUSH1 0x1 DUP3 ADD SLOAD SWAP3 DUP2 ADD SWAP3 SWAP1 SWAP3 MSTORE SWAP2 DUP3 ADD SLOAD SWAP3 DUP2 ADD SWAP3 SWAP1 SWAP3 MSTORE PUSH1 0x3 DUP2 ADD SLOAD PUSH1 0x60 DUP4 ADD MSTORE PUSH1 0x4 ADD SLOAD PUSH1 0x80 DUP3 ADD DUP2 SWAP1 MSTORE SWAP2 SWAP3 POP SWAP1 PUSH1 0x64 SWAP1 PUSH2 0x9DC SWAP1 DUP5 SWAP1 PUSH2 0x2361 JUMP JUMPDEST PUSH2 0x9E6 SWAP2 SWAP1 PUSH2 0x2378 JUMP JUMPDEST PUSH1 0x64 PUSH8 0xDE0B6B3A7640000 DUP4 PUSH1 0x60 ADD MLOAD PUSH2 0xA00 SWAP2 SWAP1 PUSH2 0x2361 JUMP JUMPDEST PUSH2 0xA0A SWAP2 SWAP1 PUSH2 0x2378 JUMP JUMPDEST PUSH2 0xA14 SWAP2 SWAP1 PUSH2 0x239A JUMP JUMPDEST SWAP5 SWAP4 POP POP POP POP JUMP JUMPDEST PUSH1 0x0 DUP1 PUSH2 0xA28 DUP4 PUSH2 0x12DB JUMP JUMPDEST SWAP1 POP PUSH1 0x0 PUSH2 0xA35 DUP5 PUSH2 0x965 JUMP JUMPDEST SWAP1 POP PUSH1 0x64 PUSH2 0xA44 PUSH1 0xA DUP3 PUSH2 0x23C6 JUMP JUMPDEST PUSH8 0xDE0B6B3A7640000 PUSH2 0xA57 DUP6 DUP6 PUSH2 0x2361 JUMP JUMPDEST PUSH2 0xA61 SWAP2 SWAP1 PUSH2 0x2378 JUMP JUMPDEST PUSH2 0xA6B SWAP2 SWAP1 PUSH2 0x2361 JUMP JUMPDEST PUSH2 0xA14 SWAP2 SWAP1 PUSH2 0x2378 JUMP JUMPDEST PUSH2 0xA7D PUSH2 0x1EC1 JUMP JUMPDEST PUSH1 0x1 PUSH1 0x1 PUSH1 0xA0 SHL SUB DUP3 AND PUSH1 0x0 SWAP1 DUP2 MSTORE PUSH1 0x2 PUSH1 0x20 MSTORE PUSH1 0x40 SWAP1 KECCAK256 SLOAD PUSH1 0xFF AND PUSH2 0xAD5 JUMPI PUSH1 0x40 MLOAD PUSH3 0x461BCD PUSH1 0xE5 SHL DUP2 MSTORE PUSH1 0x20 PUSH1 0x4 DUP3 ADD MSTORE PUSH1 0xD PUSH1 0x24 DUP3 ADD MSTORE PUSH13 0x139BDD081CDD5C1C1BDC9D1959 PUSH1 0x9A SHL PUSH1 0x44 DUP3 ADD MSTORE PUSH1 0x64 ADD PUSH2 0x721 JUMP JUMPDEST PUSH1 0x1 PUSH1 0x1 PUSH1 0xA0 SHL SUB DUP3 AND PUSH1 0x0 DUP2 DUP2 MSTORE PUSH1 0x4 PUSH1 0x20 MSTORE PUSH1 0x40 SWAP1 DUP2 SWAP1 KECCAK256 DUP4 SWAP1 SSTORE MLOAD PUSH32 0xD86730737B142FC160892FA8A0F2DB687A92A0E294D1AD70624CF5ACEF03B84 SWAP1 PUSH2 0xB22 SWAP1 DUP5 DUP2 MSTORE PUSH1 0x20 ADD SWAP1 JUMP JUMPDEST PUSH1 0x40 MLOAD DUP1 SWAP2 SUB SWAP1 LOG2 POP POP JUMP JUMPDEST PUSH2 0xB36 PUSH2 0x1C2B JUMP JUMPDEST PUSH1 0x1 PUSH1 0x1 PUSH1 0xA0 SHL SUB DUP3 AND PUSH1 0x0 SWAP1 DUP2 MSTORE PUSH1 0x2 PUSH1 0x20 MSTORE PUSH1 0x40 SWAP1 KECCAK256 SLOAD PUSH1 0xFF AND PUSH2 0xB94 JUMPI PUSH1 0x40 MLOAD PUSH3 0x461BCD PUSH1 0xE5 SHL DUP2 MSTORE PUSH1 0x20 PUSH1 0x4 DUP3 ADD MSTORE PUSH1 0x13 PUSH1 0x24 DUP3 ADD MSTORE PUSH19 0x151BDAD95B881B9BDD081CDD5C1C1BDC9D1959 PUSH1 0x6A SHL PUSH1 0x44 DUP3 ADD MSTORE PUSH1 0x64 ADD PUSH2 0x721 JUMP JUMPDEST PUSH1 0x0 DUP2 GT PUSH2 0xBB4 JUMPI PUSH1 0x40 MLOAD PUSH3 0x461BCD PUSH1 0xE5 SHL DUP2 MSTORE PUSH1 0x4 ADD PUSH2 0x721 SWAP1 PUSH2 0x23D9 JUMP JUMPDEST PUSH2 0xBBD DUP3 PUSH2 0x1C47 JUMP JUMPDEST PUSH1 0x40 MLOAD PUSH4 0x23B872DD PUSH1 0xE0 SHL DUP2 MSTORE CALLER PUSH1 0x4 DUP3 ADD MSTORE ADDRESS PUSH1 0x24 DUP3 ADD MSTORE PUSH1 0x44 DUP2 ADD DUP3 SWAP1 MSTORE PUSH1 0x1 PUSH1 0x1 PUSH1 0xA0 SHL SUB DUP4 AND SWAP1 PUSH4 0x23B872DD SWAP1 PUSH1 0x64 ADD PUSH1 0x20 PUSH1 0x40 MLOAD DUP1 DUP4 SUB DUP2 PUSH1 0x0 DUP8 GAS CALL ISZERO DUP1 ISZERO PUSH2 0xC10 JUMPI RETURNDATASIZE PUSH1 0x0 DUP1 RETURNDATACOPY RETURNDATASIZE PUSH1 0x0 REVERT JUMPDEST POP POP POP POP PUSH1 0x40 MLOAD RETURNDATASIZE PUSH1 0x1F NOT PUSH1 0x1F DUP3 ADD AND DUP3 ADD DUP1 PUSH1 0x40 MSTORE POP DUP2 ADD SWAP1 PUSH2 0xC34 SWAP2 SWAP1 PUSH2 0x2405 JUMP JUMPDEST POP PUSH1 0x1 PUSH1 0x1 PUSH1 0xA0 SHL SUB DUP3 AND PUSH1 0x0 SWAP1 DUP2 MSTORE PUSH1 0x3 PUSH1 0x20 DUP2 SWAP1 MSTORE PUSH1 0x40 DUP3 KECCAK256 ADD SLOAD PUSH2 0xC63 PUSH8 0xDE0B6B3A7640000 DUP5 PUSH2 0x2361 JUMP JUMPDEST PUSH2 0xC6D SWAP2 SWAP1 PUSH2 0x2378 JUMP JUMPDEST CALLER PUSH1 0x0 SWAP1 DUP2 MSTORE PUSH1 0x5 PUSH1 0x20 SWAP1 DUP2 MSTORE PUSH1 0x40 DUP1 DUP4 KECCAK256 PUSH1 0x1 PUSH1 0x1 PUSH1 0xA0 SHL SUB DUP9 AND DUP5 MSTORE SWAP1 SWAP2 MSTORE DUP2 KECCAK256 DUP1 SLOAD SWAP3 SWAP4 POP DUP4 SWAP3 SWAP1 SWAP2 SWAP1 PUSH2 0xCA5 SWAP1 DUP5 SWAP1 PUSH2 0x239A JUMP JUMPDEST SWAP1 SWAP2 SSTORE POP POP PUSH1 0x1 PUSH1 0x1 PUSH1 0xA0 SHL SUB DUP4 AND PUSH1 0x0 SWAP1 DUP2 MSTORE PUSH1 0x3 PUSH1 0x20 MSTORE PUSH1 0x40 DUP2 KECCAK256 DUP1 SLOAD DUP4 SWAP3 SWAP1 PUSH2 0xCD2 SWAP1 DUP5 SWAP1 PUSH2 0x239A JUMP JUMPDEST SWAP1 SWAP2 SSTORE POP POP PUSH1 0x40 MLOAD DUP3 DUP2 MSTORE PUSH1 0x1 PUSH1 0x1 PUSH1 0xA0 SHL SUB DUP5 AND SWAP1 CALLER SWAP1 PUSH32 0x5548C837AB068CF56A2C2479DF0882A4922FD203EDB7517321831D95078C5F62 SWAP1 PUSH1 0x20 ADD PUSH1 0x40 MLOAD DUP1 SWAP2 SUB SWAP1 LOG3 POP PUSH2 0x961 PUSH1 0x1 PUSH1 0x0 DUP1 MLOAD PUSH1 0x20 PUSH2 0x2441 DUP4 CODECOPY DUP2 MLOAD SWAP2 MSTORE SSTORE JUMP JUMPDEST PUSH2 0xD37 PUSH2 0x1C2B JUMP JUMPDEST PUSH1 0x1 PUSH1 0x1 PUSH1 0xA0 SHL SUB DUP3 AND PUSH1 0x0 SWAP1 DUP2 MSTORE PUSH1 0x2 PUSH1 0x20 MSTORE PUSH1 0x40 SWAP1 KECCAK256 SLOAD PUSH1 0xFF AND PUSH2 0xD95 JUMPI PUSH1 0x40 MLOAD PUSH3 0x461BCD PUSH1 0xE5 SHL DUP2 MSTORE PUSH1 0x20 PUSH1 0x4 DUP3 ADD MSTORE PUSH1 0x13 PUSH1 0x24 DUP3 ADD MSTORE PUSH19 0x151BDAD95B881B9BDD081CDD5C1C1BDC9D1959 PUSH1 0x6A SHL PUSH1 0x44 DUP3 ADD MSTORE PUSH1 0x64 ADD PUSH2 0x721 JUMP JUMPDEST PUSH1 0x0 DUP2 GT PUSH2 0xDB5 JUMPI PUSH1 0x40 MLOAD PUSH3 0x461BCD PUSH1 0xE5 SHL DUP2 MSTORE PUSH1 0x4 ADD PUSH2 0x721 SWAP1 PUSH2 0x23D9 JUMP JUMPDEST PUSH2 0xDBE DUP3 PUSH2 0x1C47 JUMP JUMPDEST PUSH1 0x40 MLOAD PUSH4 0x70A08231 PUSH1 0xE0 SHL DUP2 MSTORE ADDRESS PUSH1 0x4 DUP3 ADD MSTORE PUSH1 0x0 SWAP1 PUSH1 0x1 PUSH1 0x1 PUSH1 0xA0 SHL SUB DUP5 AND SWAP1 PUSH4 0x70A08231 SWAP1 PUSH1 0x24 ADD PUSH1 0x20 PUSH1 0x40 MLOAD DUP1 DUP4 SUB DUP2 DUP7 GAS STATICCALL ISZERO DUP1 ISZERO PUSH2 0xE05 JUMPI RETURNDATASIZE PUSH1 0x0 DUP1 RETURNDATACOPY RETURNDATASIZE PUSH1 0x0 REVERT JUMPDEST POP POP POP POP PUSH1 0x40 MLOAD RETURNDATASIZE PUSH1 0x1F NOT PUSH1 0x1F DUP3 ADD AND DUP3 ADD DUP1 PUSH1 0x40 MSTORE POP DUP2 ADD SWAP1 PUSH2 0xE29 SWAP2 SWAP1 PUSH2 0x2427 JUMP JUMPDEST SWAP1 POP DUP2 DUP2 LT ISZERO PUSH2 0xE7B JUMPI PUSH1 0x40 MLOAD PUSH3 0x461BCD PUSH1 0xE5 SHL DUP2 MSTORE PUSH1 0x20 PUSH1 0x4 DUP3 ADD MSTORE PUSH1 0x1B PUSH1 0x24 DUP3 ADD MSTORE PUSH32 0x496E73756666696369656E7420706F6F6C206C69717569646974790000000000 PUSH1 0x44 DUP3 ADD MSTORE PUSH1 0x64 ADD PUSH2 0x721 JUMP JUMPDEST PUSH2 0xE86 CALLER DUP5 DUP5 PUSH2 0x1EEE JUMP JUMPDEST PUSH2 0xEF8 JUMPI PUSH1 0x40 MLOAD PUSH3 0x461BCD PUSH1 0xE5 SHL DUP2 MSTORE PUSH1 0x20 PUSH1 0x4 DUP3 ADD MSTORE PUSH1 0x3A PUSH1 0x24 DUP3 ADD MSTORE PUSH32 0x496E73756666696369656E7420636F6C6C61746572616C20284865616C746820 PUSH1 0x44 DUP3 ADD MSTORE PUSH32 0x466163746F7220776F756C642064726F702062656C6F77203129000000000000 PUSH1 0x64 DUP3 ADD MSTORE PUSH1 0x84 ADD PUSH2 0x721 JUMP JUMPDEST PUSH1 0x1 PUSH1 0x1 PUSH1 0xA0 SHL SUB DUP4 AND PUSH1 0x0 SWAP1 DUP2 MSTORE PUSH1 0x3 PUSH1 0x20 MSTORE PUSH1 0x40 DUP2 KECCAK256 PUSH1 0x2 ADD SLOAD PUSH2 0xF26 PUSH8 0xDE0B6B3A7640000 DUP6 PUSH2 0x2361 JUMP JUMPDEST PUSH2 0xF30 SWAP2 SWAP1 PUSH2 0x2378 JUMP JUMPDEST CALLER PUSH1 0x0 SWAP1 DUP2 MSTORE PUSH1 0x6 PUSH1 0x20 SWAP1 DUP2 MSTORE PUSH1 0x40 DUP1 DUP4 KECCAK256 PUSH1 0x1 PUSH1 0x1 PUSH1 0xA0 SHL SUB DUP10 AND DUP5 MSTORE SWAP1 SWAP2 MSTORE DUP2 KECCAK256 DUP1 SLOAD SWAP3 SWAP4 POP DUP4 SWAP3 SWAP1 SWAP2 SWAP1 PUSH2 0xF68 SWAP1 DUP5 SWAP1 PUSH2 0x239A JUMP JUMPDEST SWAP1 SWAP2 SSTORE POP POP PUSH1 0x1 PUSH1 0x1 PUSH1 0xA0 SHL SUB DUP5 AND PUSH1 0x0 SWAP1 DUP2 MSTORE PUSH1 0x3 PUSH1 0x20 MSTORE PUSH1 0x40 DUP2 KECCAK256 PUSH1 0x1 ADD DUP1 SLOAD DUP4 SWAP3 SWAP1 PUSH2 0xF98 SWAP1 DUP5 SWAP1 PUSH2 0x239A JUMP JUMPDEST SWAP1 SWAP2 SSTORE POP POP PUSH1 0x40 MLOAD PUSH4 0xA9059CBB PUSH1 0xE0 SHL DUP2 MSTORE CALLER PUSH1 0x4 DUP3 ADD MSTORE PUSH1 0x24 DUP2 ADD DUP5 SWAP1 MSTORE PUSH1 0x1 PUSH1 0x1 PUSH1 0xA0 SHL SUB DUP6 AND SWAP1 PUSH4 0xA9059CBB SWAP1 PUSH1 0x44 ADD PUSH1 0x20 PUSH1 0x40 MLOAD DUP1 DUP4 SUB DUP2 PUSH1 0x0 DUP8 GAS CALL ISZERO DUP1 ISZERO PUSH2 0xFEA JUMPI RETURNDATASIZE PUSH1 0x0 DUP1 RETURNDATACOPY RETURNDATASIZE PUSH1 0x0 REVERT JUMPDEST POP POP POP POP PUSH1 0x40 MLOAD RETURNDATASIZE PUSH1 0x1F NOT PUSH1 0x1F DUP3 ADD AND DUP3 ADD DUP1 PUSH1 0x40 MSTORE POP DUP2 ADD SWAP1 PUSH2 0x100E SWAP2 SWAP1 PUSH2 0x2405 JUMP JUMPDEST POP PUSH1 0x40 MLOAD DUP4 DUP2 MSTORE PUSH1 0x1 PUSH1 0x1 PUSH1 0xA0 SHL SUB DUP6 AND SWAP1 CALLER SWAP1 PUSH32 0x312A5E5E1079F5DDA4E95DBBD0B908B291FD5B992EF22073643AB691572C5B52 SWAP1 PUSH1 0x20 ADD JUMPDEST PUSH1 0x40 MLOAD DUP1 SWAP2 SUB SWAP1 LOG3 POP POP PUSH2 0x961 PUSH1 0x1 PUSH1 0x0 DUP1 MLOAD PUSH1 0x20 PUSH2 0x2441 DUP4 CODECOPY DUP2 MLOAD SWAP2 MSTORE SSTORE JUMP JUMPDEST PUSH2 0x1071 PUSH2 0x1EC1 JUMP JUMPDEST PUSH1 0x1 PUSH1 0x1 PUSH1 0xA0 SHL SUB DUP7 AND PUSH2 0x10B7 JUMPI PUSH1 0x40 MLOAD PUSH3 0x461BCD PUSH1 0xE5 SHL DUP2 MSTORE PUSH1 0x20 PUSH1 0x4 DUP3 ADD MSTORE PUSH1 0xD PUSH1 0x24 DUP3 ADD MSTORE PUSH13 0x24B73B30B634B2103A37B5B2B7 PUSH1 0x99 SHL PUSH1 0x44 DUP3 ADD MSTORE PUSH1 0x64 ADD PUSH2 0x721 JUMP JUMPDEST PUSH1 0x1 PUSH1 0x1 PUSH1 0xA0 SHL SUB DUP7 AND PUSH1 0x0 SWAP1 DUP2 MSTORE PUSH1 0x2 PUSH1 0x20 MSTORE PUSH1 0x40 SWAP1 KECCAK256 SLOAD PUSH1 0xFF AND ISZERO PUSH2 0x1114 JUMPI PUSH1 0x40 MLOAD PUSH3 0x461BCD PUSH1 0xE5 SHL DUP2 MSTORE PUSH1 0x20 PUSH1 0x4 DUP3 ADD MSTORE PUSH1 0x11 PUSH1 0x24 DUP3 ADD MSTORE PUSH17 0x105B1C9958591E481CDD5C1C1BDC9D1959 PUSH1 0x7A SHL PUSH1 0x44 DUP3 ADD MSTORE PUSH1 0x64 ADD PUSH2 0x721 JUMP JUMPDEST DUP4 DUP6 LT PUSH2 0x1163 JUMPI PUSH1 0x40 MLOAD PUSH3 0x461BCD PUSH1 0xE5 SHL DUP2 MSTORE PUSH1 0x20 PUSH1 0x4 DUP3 ADD MSTORE PUSH1 0x1B PUSH1 0x24 DUP3 ADD MSTORE PUSH32 0x4C5456206D757374206265203C206C6971207468726573686F6C640000000000 PUSH1 0x44 DUP3 ADD MSTORE PUSH1 0x64 ADD PUSH2 0x721 JUMP JUMPDEST PUSH1 0x5F DUP5 GT ISZERO PUSH2 0x11AD JUMPI PUSH1 0x40 MLOAD PUSH3 0x461BCD PUSH1 0xE5 SHL DUP2 MSTORE PUSH1 0x20 PUSH1 0x4 DUP3 ADD MSTORE PUSH1 0x16 PUSH1 0x24 DUP3 ADD MSTORE PUSH22 0x98D2E240E8D0E4CAE6D0DED8C840E8DEDE40D0D2CED PUSH1 0x53 SHL PUSH1 0x44 DUP3 ADD MSTORE PUSH1 0x64 ADD PUSH2 0x721 JUMP JUMPDEST PUSH1 0x40 DUP1 MLOAD PUSH1 0xA0 DUP1 DUP3 ADD DUP4 MSTORE PUSH1 0x1 DUP1 DUP4 MSTORE PUSH1 0x20 DUP1 DUP5 ADD SWAP10 DUP11 MSTORE DUP4 DUP6 ADD SWAP9 DUP10 MSTORE PUSH1 0x60 DUP1 DUP6 ADD SWAP9 DUP10 MSTORE PUSH1 0x80 DUP1 DUP7 ADD SWAP9 DUP10 MSTORE PUSH1 0x1 PUSH1 0x1 PUSH1 0xA0 SHL SUB SWAP13 SWAP1 SWAP13 AND PUSH1 0x0 DUP2 DUP2 MSTORE PUSH1 0x2 DUP1 DUP6 MSTORE DUP9 DUP3 KECCAK256 SWAP8 MLOAD DUP9 SLOAD PUSH1 0xFF NOT AND SWAP1 ISZERO ISZERO OR DUP9 SSTORE SWAP13 MLOAD DUP8 DUP7 ADD SSTORE SWAP11 MLOAD DUP7 DUP14 ADD SSTORE SWAP9 MLOAD PUSH1 0x3 DUP1 DUP8 ADD SWAP2 SWAP1 SWAP2 SSTORE SWAP8 MLOAD PUSH1 0x4 SWAP6 DUP7 ADD SSTORE DUP6 MLOAD SWAP4 DUP5 ADD DUP7 MSTORE DUP10 DUP5 MSTORE DUP4 DUP3 ADD DUP11 DUP2 MSTORE PUSH8 0xDE0B6B3A7640000 DUP6 DUP9 ADD DUP2 DUP2 MSTORE SWAP3 DUP7 ADD SWAP1 DUP2 MSTORE NUMBER SWAP14 DUP7 ADD SWAP14 DUP15 MSTORE DUP11 DUP13 MSTORE DUP10 DUP5 MSTORE DUP8 DUP13 KECCAK256 SWAP6 MLOAD DUP7 SSTORE SWAP1 MLOAD DUP6 DUP6 ADD SSTORE SWAP1 MLOAD SWAP11 DUP5 ADD SWAP11 SWAP1 SWAP11 SSTORE SWAP9 MLOAD SWAP6 DUP3 ADD SWAP6 SWAP1 SWAP6 SSTORE SWAP8 MLOAD SWAP8 DUP2 ADD SWAP8 SWAP1 SWAP8 SSTORE SWAP6 SWAP1 SWAP5 MSTORE SWAP4 DUP3 KECCAK256 SWAP3 SWAP1 SWAP3 SSTORE DUP3 SLOAD DUP1 DUP5 ADD DUP5 SSTORE SWAP3 SWAP1 MSTORE PUSH32 0xB10E2D527612073B26EECDFD717E6A320CF44B4AFAC2B0732D9FCBE2B7FA0CF6 SWAP1 SWAP2 ADD DUP1 SLOAD PUSH1 0x1 PUSH1 0x1 PUSH1 0xA0 SHL SUB NOT AND SWAP1 SWAP2 OR SWAP1 SSTORE JUMP JUMPDEST PUSH2 0x12CF PUSH2 0x1EC1 JUMP JUMPDEST PUSH2 0x12D9 PUSH1 0x0 PUSH2 0x1F87 JUMP JUMPDEST JUMP JUMPDEST PUSH1 0x1 PUSH1 0x1 PUSH1 0xA0 SHL SUB DUP2 AND PUSH1 0x0 SWAP1 DUP2 MSTORE PUSH1 0x3 PUSH1 0x20 DUP2 DUP2 MSTORE PUSH1 0x40 DUP1 DUP5 KECCAK256 DUP2 MLOAD PUSH1 0xA0 DUP2 ADD DUP4 MSTORE DUP2 SLOAD DUP2 MSTORE PUSH1 0x1 DUP3 ADD SLOAD SWAP4 DUP2 ADD DUP5 SWAP1 MSTORE PUSH1 0x2 DUP3 ADD SLOAD SWAP3 DUP2 ADD DUP4 SWAP1 MSTORE SWAP4 DUP2 ADD SLOAD PUSH1 0x60 DUP6 ADD MSTORE PUSH1 0x4 ADD SLOAD PUSH1 0x80 DUP5 ADD MSTORE DUP4 SWAP2 PUSH8 0xDE0B6B3A7640000 SWAP2 PUSH2 0x133F SWAP2 PUSH2 0x2361 JUMP JUMPDEST PUSH2 0x1349 SWAP2 SWAP1 PUSH2 0x2378 JUMP JUMPDEST SWAP1 POP PUSH1 0x0 PUSH8 0xDE0B6B3A7640000 DUP4 PUSH1 0x60 ADD MLOAD DUP5 PUSH1 0x0 ADD MLOAD PUSH2 0x136A SWAP2 SWAP1 PUSH2 0x2361 JUMP JUMPDEST PUSH2 0x1374 SWAP2 SWAP1 PUSH2 0x2378 JUMP JUMPDEST SWAP1 POP DUP1 PUSH1 0x0 SUB PUSH2 0x1389 JUMPI POP PUSH1 0x0 SWAP5 SWAP4 POP POP POP POP JUMP JUMPDEST DUP1 PUSH2 0x139C PUSH8 0xDE0B6B3A7640000 DUP5 PUSH2 0x2361 JUMP JUMPDEST PUSH2 0x13A6 SWAP2 SWAP1 PUSH2 0x2378 JUMP JUMPDEST SWAP6 SWAP5 POP POP POP POP POP JUMP JUMPDEST PUSH1 0x1 PUSH1 0x1 PUSH1 0xA0 SHL SUB DUP2 AND PUSH1 0x0 SWAP1 DUP2 MSTORE PUSH1 0x2 PUSH1 0x20 MSTORE PUSH1 0x40 SWAP1 KECCAK256 SLOAD PUSH1 0xFF AND PUSH2 0x1407 JUMPI PUSH1 0x40 MLOAD PUSH3 0x461BCD PUSH1 0xE5 SHL DUP2 MSTORE PUSH1 0x20 PUSH1 0x4 DUP3 ADD MSTORE PUSH1 0xD PUSH1 0x24 DUP3 ADD MSTORE PUSH13 0x139BDD081CDD5C1C1BDC9D1959 PUSH1 0x9A SHL PUSH1 0x44 DUP3 ADD MSTORE PUSH1 0x64 ADD PUSH2 0x721 JUMP JUMPDEST PUSH2 0x1410 DUP2 PUSH2 0x1C47 JUMP JUMPDEST POP JUMP JUMPDEST PUSH1 0x0 DUP1 DUP1 JUMPDEST PUSH1 0x1 SLOAD DUP2 LT ISZERO PUSH2 0x14B2 JUMPI PUSH1 0x0 PUSH1 0x1 DUP3 DUP2 SLOAD DUP2 LT PUSH2 0x1437 JUMPI PUSH2 0x1437 PUSH2 0x2335 JUMP JUMPDEST PUSH1 0x0 SWAP2 DUP3 MSTORE PUSH1 0x20 DUP3 KECCAK256 ADD SLOAD PUSH1 0x1 PUSH1 0x1 PUSH1 0xA0 SHL SUB AND SWAP2 POP PUSH2 0x1457 DUP7 DUP4 PUSH2 0x1B58 JUMP JUMPDEST PUSH1 0x1 PUSH1 0x1 PUSH1 0xA0 SHL SUB DUP4 AND PUSH1 0x0 SWAP1 DUP2 MSTORE PUSH1 0x4 PUSH1 0x20 MSTORE PUSH1 0x40 SWAP1 KECCAK256 SLOAD SWAP1 SWAP2 POP PUSH8 0xDE0B6B3A7640000 SWAP1 PUSH2 0x1487 SWAP1 DUP4 PUSH2 0x2361 JUMP JUMPDEST PUSH2 0x1491 SWAP2 SWAP1 PUSH2 0x2378 JUMP JUMPDEST PUSH2 0x149B SWAP1 DUP6 PUSH2 0x239A JUMP JUMPDEST SWAP4 POP POP POP DUP1 DUP1 PUSH2 0x14AA SWAP1 PUSH2 0x23AD JUMP JUMPDEST SWAP2 POP POP PUSH2 0x1418 JUMP JUMPDEST POP SWAP3 SWAP2 POP POP JUMP JUMPDEST PUSH1 0x1 PUSH1 0x1 PUSH1 0xA0 SHL SUB DUP2 AND PUSH1 0x0 SWAP1 DUP2 MSTORE PUSH1 0x3 PUSH1 0x20 DUP2 DUP2 MSTORE PUSH1 0x40 DUP1 DUP5 KECCAK256 DUP2 MLOAD PUSH1 0xA0 DUP2 ADD DUP4 MSTORE DUP2 SLOAD DUP1 DUP3 MSTORE PUSH1 0x1 DUP4 ADD SLOAD SWAP5 DUP3 ADD SWAP5 SWAP1 SWAP5 MSTORE PUSH1 0x2 DUP3 ADD SLOAD SWAP3 DUP2 ADD SWAP3 SWAP1 SWAP3 MSTORE SWAP3 DUP4 ADD SLOAD PUSH1 0x60 DUP3 ADD DUP2 SWAP1 MSTORE PUSH1 0x4 SWAP1 SWAP4 ADD SLOAD PUSH1 0x80 DUP3 ADD MSTORE DUP4 SWAP3 DUP4 SWAP3 DUP4 SWAP3 DUP4 SWAP3 DUP4 SWAP3 PUSH8 0xDE0B6B3A7640000 SWAP2 PUSH2 0x152C SWAP2 PUSH2 0x2361 JUMP JUMPDEST PUSH2 0x1536 SWAP2 SWAP1 PUSH2 0x2378 JUMP JUMPDEST SWAP7 POP PUSH8 0xDE0B6B3A7640000 DUP2 PUSH1 0x40 ADD MLOAD DUP3 PUSH1 0x20 ADD MLOAD PUSH2 0x1555 SWAP2 SWAP1 PUSH2 0x2361 JUMP JUMPDEST PUSH2 0x155F SWAP2 SWAP1 PUSH2 0x2378 JUMP JUMPDEST SWAP6 POP PUSH2 0x156A DUP9 PUSH2 0x12DB JUMP JUMPDEST SWAP5 POP PUSH2 0x1575 DUP9 PUSH2 0xA1C JUMP JUMPDEST SWAP4 POP PUSH2 0x1580 DUP9 PUSH2 0x965 JUMP JUMPDEST PUSH1 0x1 PUSH1 0x1 PUSH1 0xA0 SHL SUB SWAP1 SWAP9 AND PUSH1 0x0 SWAP1 DUP2 MSTORE PUSH1 0x4 PUSH1 0x20 MSTORE PUSH1 0x40 SWAP1 KECCAK256 SLOAD SWAP7 SWAP9 SWAP6 SWAP8 SWAP5 SWAP7 SWAP4 SWAP6 SWAP3 POP POP POP JUMP JUMPDEST PUSH1 0x0 PUSH2 0x57E DUP4 DUP4 PUSH2 0x1BC1 JUMP JUMPDEST PUSH1 0x1 DUP2 DUP2 SLOAD DUP2 LT PUSH2 0x15C4 JUMPI PUSH1 0x0 DUP1 REVERT JUMPDEST PUSH1 0x0 SWAP2 DUP3 MSTORE PUSH1 0x20 SWAP1 SWAP2 KECCAK256 ADD SLOAD PUSH1 0x1 PUSH1 0x1 PUSH1 0xA0 SHL SUB AND SWAP1 POP DUP2 JUMP JUMPDEST PUSH1 0x60 PUSH1 0x1 DUP1 SLOAD DUP1 PUSH1 0x20 MUL PUSH1 0x20 ADD PUSH1 0x40 MLOAD SWAP1 DUP2 ADD PUSH1 0x40 MSTORE DUP1 SWAP3 SWAP2 SWAP1 DUP2 DUP2 MSTORE PUSH1 0x20 ADD DUP3 DUP1 SLOAD DUP1 ISZERO PUSH2 0x1636 JUMPI PUSH1 0x20 MUL DUP3 ADD SWAP2 SWAP1 PUSH1 0x0 MSTORE PUSH1 0x20 PUSH1 0x0 KECCAK256 SWAP1 JUMPDEST DUP2 SLOAD PUSH1 0x1 PUSH1 0x1 PUSH1 0xA0 SHL SUB AND DUP2 MSTORE PUSH1 0x1 SWAP1 SWAP2 ADD SWAP1 PUSH1 0x20 ADD DUP1 DUP4 GT PUSH2 0x1618 JUMPI JUMPDEST POP POP POP POP POP SWAP1 POP SWAP1 JUMP JUMPDEST PUSH2 0x1648 PUSH2 0x1EC1 JUMP JUMPDEST PUSH1 0x1 PUSH1 0x1 PUSH1 0xA0 SHL SUB DUP2 AND PUSH2 0x1672 JUMPI PUSH1 0x40 MLOAD PUSH4 0x1E4FBDF7 PUSH1 0xE0 SHL DUP2 MSTORE PUSH1 0x0 PUSH1 0x4 DUP3 ADD MSTORE PUSH1 0x24 ADD PUSH2 0x721 JUMP JUMPDEST PUSH2 0x1410 DUP2 PUSH2 0x1F87 JUMP JUMPDEST PUSH2 0x1683 PUSH2 0x1C2B JUMP JUMPDEST PUSH1 0x0 DUP2 GT PUSH2 0x16A3 JUMPI PUSH1 0x40 MLOAD PUSH3 0x461BCD PUSH1 0xE5 SHL DUP2 MSTORE PUSH1 0x4 ADD PUSH2 0x721 SWAP1 PUSH2 0x23D9 JUMP JUMPDEST PUSH2 0x16AC DUP3 PUSH2 0x1C47 JUMP JUMPDEST PUSH1 0x0 PUSH2 0x16B8 CALLER DUP5 PUSH2 0x1BC1 JUMP JUMPDEST SWAP1 POP PUSH1 0x0 NOT DUP3 SUB PUSH2 0x16C7 JUMPI DUP1 SWAP2 POP JUMPDEST DUP2 DUP2 LT ISZERO PUSH2 0x1717 JUMPI PUSH1 0x40 MLOAD PUSH3 0x461BCD PUSH1 0xE5 SHL DUP2 MSTORE PUSH1 0x20 PUSH1 0x4 DUP3 ADD MSTORE PUSH1 0x1B PUSH1 0x24 DUP3 ADD MSTORE PUSH32 0x496E73756666696369656E7420737570706C792062616C616E63650000000000 PUSH1 0x44 DUP3 ADD MSTORE PUSH1 0x64 ADD PUSH2 0x721 JUMP JUMPDEST PUSH2 0x1722 CALLER DUP5 DUP5 PUSH2 0x1FD7 JUMP JUMPDEST PUSH2 0x1783 JUMPI PUSH1 0x40 MLOAD PUSH3 0x461BCD PUSH1 0xE5 SHL DUP2 MSTORE PUSH1 0x20 PUSH1 0x4 DUP3 ADD MSTORE PUSH1 0x2C PUSH1 0x24 DUP3 ADD MSTORE PUSH32 0x5769746864726177616C20776F756C6420756E646572636F6C6C61746572616C PUSH1 0x44 DUP3 ADD MSTORE PUSH12 0x34BD32903837B9B4BA34B7B7 PUSH1 0xA1 SHL PUSH1 0x64 DUP3 ADD MSTORE PUSH1 0x84 ADD PUSH2 0x721 JUMP JUMPDEST PUSH1 0x1 PUSH1 0x1 PUSH1 0xA0 SHL SUB DUP4 AND PUSH1 0x0 SWAP1 DUP2 MSTORE PUSH1 0x3 PUSH1 0x20 DUP2 SWAP1 MSTORE PUSH1 0x40 DUP3 KECCAK256 ADD SLOAD PUSH2 0x17B1 PUSH8 0xDE0B6B3A7640000 DUP6 PUSH2 0x2361 JUMP JUMPDEST PUSH2 0x17BB SWAP2 SWAP1 PUSH2 0x2378 JUMP JUMPDEST CALLER PUSH1 0x0 SWAP1 DUP2 MSTORE PUSH1 0x5 PUSH1 0x20 SWAP1 DUP2 MSTORE PUSH1 0x40 DUP1 DUP4 KECCAK256 PUSH1 0x1 PUSH1 0x1 PUSH1 0xA0 SHL SUB DUP10 AND DUP5 MSTORE SWAP1 SWAP2 MSTORE DUP2 KECCAK256 DUP1 SLOAD SWAP3 SWAP4 POP DUP4 SWAP3 SWAP1 SWAP2 SWAP1 PUSH2 0x17F3 SWAP1 DUP5 SWAP1 PUSH2 0x23C6 JUMP JUMPDEST SWAP1 SWAP2 SSTORE POP POP PUSH1 0x1 PUSH1 0x1 PUSH1 0xA0 SHL SUB DUP5 AND PUSH1 0x0 SWAP1 DUP2 MSTORE PUSH1 0x3 PUSH1 0x20 MSTORE PUSH1 0x40 DUP2 KECCAK256 DUP1 SLOAD DUP4 SWAP3 SWAP1 PUSH2 0x1820 SWAP1 DUP5 SWAP1 PUSH2 0x23C6 JUMP JUMPDEST SWAP1 SWAP2 SSTORE POP POP PUSH1 0x40 MLOAD PUSH4 0xA9059CBB PUSH1 0xE0 SHL DUP2 MSTORE CALLER PUSH1 0x4 DUP3 ADD MSTORE PUSH1 0x24 DUP2 ADD DUP5 SWAP1 MSTORE PUSH1 0x1 PUSH1 0x1 PUSH1 0xA0 SHL SUB DUP6 AND SWAP1 PUSH4 0xA9059CBB SWAP1 PUSH1 0x44 ADD PUSH1 0x20 PUSH1 0x40 MLOAD DUP1 DUP4 SUB DUP2 PUSH1 0x0 DUP8 GAS CALL ISZERO DUP1 ISZERO PUSH2 0x1872 JUMPI RETURNDATASIZE PUSH1 0x0 DUP1 RETURNDATACOPY RETURNDATASIZE PUSH1 0x0 REVERT JUMPDEST POP POP POP POP PUSH1 0x40 MLOAD RETURNDATASIZE PUSH1 0x1F NOT PUSH1 0x1F DUP3 ADD AND DUP3 ADD DUP1 PUSH1 0x40 MSTORE POP DUP2 ADD SWAP1 PUSH2 0x1896 SWAP2 SWAP1 PUSH2 0x2405 JUMP JUMPDEST POP PUSH1 0x40 MLOAD DUP4 DUP2 MSTORE PUSH1 0x1 PUSH1 0x1 PUSH1 0xA0 SHL SUB DUP6 AND SWAP1 CALLER SWAP1 PUSH32 0x9B1BFA7FA9EE420A16E124F794C35AC9F90472ACC99140EB2F6447C714CAD8EB SWAP1 PUSH1 0x20 ADD PUSH2 0x1048 JUMP JUMPDEST PUSH1 0x0 DUP1 PUSH1 0x0 DUP1 PUSH2 0x18E4 DUP7 DUP7 PUSH2 0x1BC1 JUMP JUMPDEST SWAP4 POP PUSH2 0x18F0 DUP7 DUP7 PUSH2 0x1B58 JUMP JUMPDEST SWAP3 POP PUSH2 0x18FB DUP7 PUSH2 0x1B20 JUMP JUMPDEST SWAP2 POP PUSH1 0x0 DUP1 PUSH1 0x0 JUMPDEST PUSH1 0x1 SLOAD DUP2 LT ISZERO PUSH2 0x1A23 JUMPI PUSH1 0x0 PUSH1 0x1 DUP3 DUP2 SLOAD DUP2 LT PUSH2 0x1922 JUMPI PUSH2 0x1922 PUSH2 0x2335 JUMP JUMPDEST PUSH1 0x0 SWAP2 DUP3 MSTORE PUSH1 0x20 DUP3 KECCAK256 ADD SLOAD PUSH1 0x1 PUSH1 0x1 PUSH1 0xA0 SHL SUB AND SWAP2 POP PUSH2 0x1942 DUP12 DUP4 PUSH2 0x1BC1 JUMP JUMPDEST SWAP1 POP DUP1 ISZERO PUSH2 0x19B5 JUMPI PUSH1 0x1 PUSH1 0x1 PUSH1 0xA0 SHL SUB DUP3 AND PUSH1 0x0 SWAP1 DUP2 MSTORE PUSH1 0x2 PUSH1 0x20 SWAP1 DUP2 MSTORE PUSH1 0x40 DUP1 DUP4 KECCAK256 PUSH1 0x1 ADD SLOAD PUSH1 0x4 SWAP1 SWAP3 MSTORE SWAP1 SWAP2 KECCAK256 SLOAD PUSH1 0x64 SWAP2 SWAP1 PUSH8 0xDE0B6B3A7640000 SWAP1 PUSH2 0x198A SWAP1 DUP6 PUSH2 0x2361 JUMP JUMPDEST PUSH2 0x1994 SWAP2 SWAP1 PUSH2 0x2378 JUMP JUMPDEST PUSH2 0x199E SWAP2 SWAP1 PUSH2 0x2361 JUMP JUMPDEST PUSH2 0x19A8 SWAP2 SWAP1 PUSH2 0x2378 JUMP JUMPDEST PUSH2 0x19B2 SWAP1 DUP7 PUSH2 0x239A JUMP JUMPDEST SWAP5 POP JUMPDEST PUSH1 0x0 PUSH2 0x19C1 DUP13 DUP5 PUSH2 0x1B58 JUMP JUMPDEST SWAP1 POP DUP1 ISZERO PUSH2 0x1A0D JUMPI PUSH1 0x1 PUSH1 0x1 PUSH1 0xA0 SHL SUB DUP4 AND PUSH1 0x0 SWAP1 DUP2 MSTORE PUSH1 0x4 PUSH1 0x20 MSTORE PUSH1 0x40 SWAP1 KECCAK256 SLOAD PUSH8 0xDE0B6B3A7640000 SWAP1 PUSH2 0x19F6 SWAP1 DUP4 PUSH2 0x2361 JUMP JUMPDEST PUSH2 0x1A00 SWAP2 SWAP1 PUSH2 0x2378 JUMP JUMPDEST PUSH2 0x1A0A SWAP1 DUP7 PUSH2 0x239A JUMP JUMPDEST SWAP5 POP JUMPDEST POP POP POP DUP1 DUP1 PUSH2 0x1A1B SWAP1 PUSH2 0x23AD JUMP JUMPDEST SWAP2 POP POP PUSH2 0x1903 JUMP JUMPDEST POP DUP1 DUP3 GT ISZERO PUSH2 0x1A71 JUMPI PUSH1 0x1 PUSH1 0x1 PUSH1 0xA0 SHL SUB DUP8 AND PUSH1 0x0 SWAP1 DUP2 MSTORE PUSH1 0x4 PUSH1 0x20 MSTORE PUSH1 0x40 SWAP1 KECCAK256 SLOAD PUSH8 0xDE0B6B3A7640000 PUSH2 0x1A58 DUP4 DUP6 PUSH2 0x23C6 JUMP JUMPDEST PUSH2 0x1A62 SWAP2 SWAP1 PUSH2 0x2361 JUMP JUMPDEST PUSH2 0x1A6C SWAP2 SWAP1 PUSH2 0x2378 JUMP JUMPDEST PUSH2 0x1A74 JUMP JUMPDEST PUSH1 0x0 JUMPDEST SWAP3 POP POP POP SWAP3 SWAP6 SWAP2 SWAP5 POP SWAP3 POP JUMP JUMPDEST PUSH1 0x0 DUP1 DUP1 JUMPDEST PUSH1 0x1 SLOAD DUP2 LT ISZERO PUSH2 0x14B2 JUMPI PUSH1 0x0 PUSH1 0x1 DUP3 DUP2 SLOAD DUP2 LT PUSH2 0x1AA5 JUMPI PUSH2 0x1AA5 PUSH2 0x2335 JUMP JUMPDEST PUSH1 0x0 SWAP2 DUP3 MSTORE PUSH1 0x20 DUP3 KECCAK256 ADD SLOAD PUSH1 0x1 PUSH1 0x1 PUSH1 0xA0 SHL SUB AND SWAP2 POP PUSH2 0x1AC5 DUP7 DUP4 PUSH2 0x1BC1 JUMP JUMPDEST PUSH1 0x1 PUSH1 0x1 PUSH1 0xA0 SHL SUB DUP4 AND PUSH1 0x0 SWAP1 DUP2 MSTORE PUSH1 0x4 PUSH1 0x20 MSTORE PUSH1 0x40 SWAP1 KECCAK256 SLOAD SWAP1 SWAP2 POP PUSH8 0xDE0B6B3A7640000 SWAP1 PUSH2 0x1AF5 SWAP1 DUP4 PUSH2 0x2361 JUMP JUMPDEST PUSH2 0x1AFF SWAP2 SWAP1 PUSH2 0x2378 JUMP JUMPDEST PUSH2 0x1B09 SWAP1 DUP6 PUSH2 0x239A JUMP JUMPDEST SWAP4 POP POP POP DUP1 DUP1 PUSH2 0x1B18 SWAP1 PUSH2 0x23AD JUMP JUMPDEST SWAP2 POP POP PUSH2 0x1A86 JUMP JUMPDEST PUSH1 0x0 DUP1 PUSH1 0x0 PUSH2 0x1B2E DUP5 PUSH2 0x20A9 JUMP JUMPDEST SWAP2 POP SWAP2 POP DUP1 PUSH1 0x0 SUB PUSH2 0x1B45 JUMPI POP PUSH1 0x0 NOT SWAP4 SWAP3 POP POP POP JUMP JUMPDEST DUP1 PUSH2 0xA6B PUSH8 0xDE0B6B3A7640000 DUP5 PUSH2 0x2361 JUMP JUMPDEST PUSH1 0x1 PUSH1 0x1 PUSH1 0xA0 SHL SUB DUP1 DUP4 AND PUSH1 0x0 SWAP1 DUP2 MSTORE PUSH1 0x6 PUSH1 0x20 SWAP1 DUP2 MSTORE PUSH1 0x40 DUP1 DUP4 KECCAK256 SWAP4 DUP6 AND DUP4 MSTORE SWAP3 SWAP1 MSTORE SWAP1 DUP2 KECCAK256 SLOAD DUP1 DUP3 SUB PUSH2 0x1B91 JUMPI PUSH1 0x0 SWAP2 POP POP PUSH2 0x581 JUMP JUMPDEST PUSH1 0x1 PUSH1 0x1 PUSH1 0xA0 SHL SUB DUP4 AND PUSH1 0x0 SWAP1 DUP2 MSTORE PUSH1 0x3 PUSH1 0x20 MSTORE PUSH1 0x40 SWAP1 KECCAK256 PUSH1 0x2 ADD SLOAD PUSH8 0xDE0B6B3A7640000 SWAP1 PUSH2 0xA6B SWAP1 DUP4 PUSH2 0x2361 JUMP JUMPDEST PUSH1 0x1 PUSH1 0x1 PUSH1 0xA0 SHL SUB DUP1 DUP4 AND PUSH1 0x0 SWAP1 DUP2 MSTORE PUSH1 0x5 PUSH1 0x20 SWAP1 DUP2 MSTORE PUSH1 0x40 DUP1 DUP4 KECCAK256 SWAP4 DUP6 AND DUP4 MSTORE SWAP3 SWAP1 MSTORE SWAP1 DUP2 KECCAK256 SLOAD DUP1 DUP3 SUB PUSH2 0x1BFA JUMPI PUSH1 0x0 SWAP2 POP POP PUSH2 0x581 JUMP JUMPDEST PUSH1 0x1 PUSH1 0x1 PUSH1 0xA0 SHL SUB DUP4 AND PUSH1 0x0 SWAP1 DUP2 MSTORE PUSH1 0x3 PUSH1 0x20 DUP2 SWAP1 MSTORE PUSH1 0x40 SWAP1 SWAP2 KECCAK256 ADD SLOAD PUSH8 0xDE0B6B3A7640000 SWAP1 PUSH2 0xA6B SWAP1 DUP4 PUSH2 0x2361 JUMP JUMPDEST PUSH2 0x1C33 PUSH2 0x21C1 JUMP JUMPDEST PUSH1 0x2 PUSH1 0x0 DUP1 MLOAD PUSH1 0x20 PUSH2 0x2441 DUP4 CODECOPY DUP2 MLOAD SWAP2 MSTORE SSTORE JUMP JUMPDEST PUSH1 0x1 PUSH1 0x1 PUSH1 0xA0 SHL SUB DUP2 AND PUSH1 0x0 SWAP1 DUP2 MSTORE PUSH1 0x3 PUSH1 0x20 MSTORE PUSH1 0x40 DUP2 KECCAK256 PUSH1 0x4 DUP2 ADD SLOAD SWAP1 SWAP2 SWAP1 PUSH2 0x1C71 SWAP1 NUMBER PUSH2 0x23C6 JUMP JUMPDEST SWAP1 POP DUP1 PUSH1 0x0 SUB PUSH2 0x1C80 JUMPI POP POP POP JUMP JUMPDEST PUSH1 0x0 PUSH8 0xDE0B6B3A7640000 DUP4 PUSH1 0x2 ADD SLOAD DUP5 PUSH1 0x1 ADD SLOAD PUSH2 0x1C9F SWAP2 SWAP1 PUSH2 0x2361 JUMP JUMPDEST PUSH2 0x1CA9 SWAP2 SWAP1 PUSH2 0x2378 JUMP JUMPDEST SWAP1 POP PUSH1 0x0 PUSH8 0xDE0B6B3A7640000 DUP5 PUSH1 0x3 ADD SLOAD DUP6 PUSH1 0x0 ADD SLOAD PUSH2 0x1CCA SWAP2 SWAP1 PUSH2 0x2361 JUMP JUMPDEST PUSH2 0x1CD4 SWAP2 SWAP1 PUSH2 0x2378 JUMP JUMPDEST SWAP1 POP PUSH1 0x0 DUP2 ISZERO PUSH2 0x1D00 JUMPI DUP2 PUSH2 0x1CF1 PUSH8 0xDE0B6B3A7640000 DUP6 PUSH2 0x2361 JUMP JUMPDEST PUSH2 0x1CFB SWAP2 SWAP1 PUSH2 0x2378 JUMP JUMPDEST PUSH2 0x1D03 JUMP JUMPDEST PUSH1 0x0 JUMPDEST PUSH1 0x1 PUSH1 0x1 PUSH1 0xA0 SHL SUB DUP8 AND PUSH1 0x0 SWAP1 DUP2 MSTORE PUSH1 0x2 PUSH1 0x20 DUP2 DUP2 MSTORE PUSH1 0x40 DUP1 DUP5 KECCAK256 DUP2 MLOAD PUSH1 0xA0 DUP2 ADD DUP4 MSTORE DUP2 SLOAD PUSH1 0xFF AND ISZERO ISZERO DUP2 MSTORE PUSH1 0x1 DUP3 ADD SLOAD SWAP4 DUP2 ADD SWAP4 SWAP1 SWAP4 MSTORE SWAP3 DUP4 ADD SLOAD SWAP1 DUP3 ADD MSTORE PUSH1 0x3 DUP3 ADD SLOAD PUSH1 0x60 DUP3 ADD MSTORE PUSH1 0x4 SWAP1 SWAP2 ADD SLOAD PUSH1 0x80 DUP3 ADD DUP2 SWAP1 MSTORE SWAP3 SWAP4 POP SWAP2 PUSH1 0x64 SWAP1 PUSH2 0x1D6C SWAP1 DUP6 SWAP1 PUSH2 0x2361 JUMP JUMPDEST PUSH2 0x1D76 SWAP2 SWAP1 PUSH2 0x2378 JUMP JUMPDEST PUSH1 0x64 PUSH8 0xDE0B6B3A7640000 DUP5 PUSH1 0x60 ADD MLOAD PUSH2 0x1D90 SWAP2 SWAP1 PUSH2 0x2361 JUMP JUMPDEST PUSH2 0x1D9A SWAP2 SWAP1 PUSH2 0x2378 JUMP JUMPDEST PUSH2 0x1DA4 SWAP2 SWAP1 PUSH2 0x239A JUMP JUMPDEST SWAP1 POP PUSH1 0x0 PUSH2 0x1DB5 PUSH3 0x201480 DUP4 PUSH2 0x2378 JUMP JUMPDEST SWAP1 POP PUSH1 0x0 PUSH2 0x1DC3 DUP9 DUP4 PUSH2 0x2361 JUMP JUMPDEST SWAP1 POP PUSH8 0xDE0B6B3A7640000 DUP2 DUP11 PUSH1 0x2 ADD SLOAD PUSH2 0x1DDE SWAP2 SWAP1 PUSH2 0x2361 JUMP JUMPDEST PUSH2 0x1DE8 SWAP2 SWAP1 PUSH2 0x2378 JUMP JUMPDEST DUP10 PUSH1 0x2 ADD SLOAD PUSH2 0x1DF7 SWAP2 SWAP1 PUSH2 0x239A JUMP JUMPDEST PUSH1 0x2 DUP11 ADD SSTORE DUP7 ISZERO DUP1 ISZERO SWAP1 PUSH2 0x1E0B JUMPI POP PUSH1 0x0 DUP7 GT JUMPDEST ISZERO PUSH2 0x1EAC JUMPI PUSH1 0x0 PUSH1 0x64 PUSH2 0x1E1F PUSH1 0xA DUP3 PUSH2 0x23C6 JUMP JUMPDEST PUSH8 0xDE0B6B3A7640000 PUSH2 0x1E32 DUP10 DUP9 PUSH2 0x2361 JUMP JUMPDEST PUSH2 0x1E3C SWAP2 SWAP1 PUSH2 0x2378 JUMP JUMPDEST PUSH2 0x1E46 SWAP2 SWAP1 PUSH2 0x2361 JUMP JUMPDEST PUSH2 0x1E50 SWAP2 SWAP1 PUSH2 0x2378 JUMP JUMPDEST SWAP1 POP PUSH1 0x0 PUSH2 0x1E61 PUSH3 0x201480 DUP4 PUSH2 0x2378 JUMP JUMPDEST SWAP1 POP PUSH1 0x0 PUSH2 0x1E6F DUP12 DUP4 PUSH2 0x2361 JUMP JUMPDEST SWAP1 POP PUSH8 0xDE0B6B3A7640000 DUP2 DUP14 PUSH1 0x3 ADD SLOAD PUSH2 0x1E8A SWAP2 SWAP1 PUSH2 0x2361 JUMP JUMPDEST PUSH2 0x1E94 SWAP2 SWAP1 PUSH2 0x2378 JUMP JUMPDEST DUP13 PUSH1 0x3 ADD SLOAD PUSH2 0x1EA3 SWAP2 SWAP1 PUSH2 0x239A JUMP JUMPDEST PUSH1 0x3 DUP14 ADD SSTORE POP POP POP JUMPDEST NUMBER DUP10 PUSH1 0x4 ADD DUP2 SWAP1 SSTORE POP POP POP POP POP POP POP POP POP POP POP JUMP JUMPDEST PUSH1 0x0 SLOAD PUSH1 0x1 PUSH1 0x1 PUSH1 0xA0 SHL SUB AND CALLER EQ PUSH2 0x12D9 JUMPI PUSH1 0x40 MLOAD PUSH4 0x118CDAA7 PUSH1 0xE0 SHL DUP2 MSTORE CALLER PUSH1 0x4 DUP3 ADD MSTORE PUSH1 0x24 ADD PUSH2 0x721 JUMP JUMPDEST PUSH1 0x0 DUP1 PUSH1 0x0 PUSH2 0x1EFC DUP7 PUSH2 0x20A9 JUMP JUMPDEST PUSH1 0x1 PUSH1 0x1 PUSH1 0xA0 SHL SUB DUP8 AND PUSH1 0x0 SWAP1 DUP2 MSTORE PUSH1 0x4 PUSH1 0x20 MSTORE PUSH1 0x40 DUP2 KECCAK256 SLOAD SWAP3 SWAP5 POP SWAP1 SWAP3 POP SWAP1 PUSH8 0xDE0B6B3A7640000 SWAP1 PUSH2 0x1F30 SWAP1 DUP8 PUSH2 0x2361 JUMP JUMPDEST PUSH2 0x1F3A SWAP2 SWAP1 PUSH2 0x2378 JUMP JUMPDEST PUSH2 0x1F44 SWAP1 DUP4 PUSH2 0x239A JUMP JUMPDEST SWAP1 POP DUP1 PUSH1 0x0 SUB PUSH2 0x1F5A JUMPI PUSH1 0x1 SWAP4 POP POP POP POP PUSH2 0x1F80 JUMP JUMPDEST PUSH8 0xDE0B6B3A7640000 DUP2 PUSH2 0x1F6E DUP3 DUP7 PUSH2 0x2361 JUMP JUMPDEST PUSH2 0x1F78 SWAP2 SWAP1 PUSH2 0x2378 JUMP JUMPDEST LT ISZERO SWAP4 POP POP POP POP JUMPDEST SWAP4 SWAP3 POP POP POP JUMP JUMPDEST PUSH1 0x0 DUP1 SLOAD PUSH1 0x1 PUSH1 0x1 PUSH1 0xA0 SHL SUB DUP4 DUP2 AND PUSH1 0x1 PUSH1 0x1 PUSH1 0xA0 SHL SUB NOT DUP4 AND DUP2 OR DUP5 SSTORE PUSH1 0x40 MLOAD SWAP2 SWAP1 SWAP3 AND SWAP3 DUP4 SWAP2 PUSH32 0x8BE0079C531659141344CD1FD0A4F28419497F9722A3DAAFE3B4186F6B6457E0 SWAP2 SWAP1 LOG3 POP POP JUMP JUMPDEST PUSH1 0x0 DUP1 PUSH1 0x0 PUSH2 0x1FE5 DUP7 PUSH2 0x20A9 JUMP JUMPDEST SWAP2 POP SWAP2 POP DUP1 PUSH1 0x0 SUB PUSH2 0x1FFC JUMPI PUSH1 0x1 SWAP3 POP POP POP PUSH2 0x1F80 JUMP JUMPDEST PUSH1 0x1 PUSH1 0x1 PUSH1 0xA0 SHL SUB DUP6 AND PUSH1 0x0 SWAP1 DUP2 MSTORE PUSH1 0x2 PUSH1 0x20 DUP2 DUP2 MSTORE PUSH1 0x40 DUP1 DUP5 KECCAK256 SWAP1 SWAP3 ADD SLOAD PUSH1 0x4 SWAP1 SWAP2 MSTORE SWAP1 DUP3 KECCAK256 SLOAD PUSH1 0x64 SWAP2 SWAP1 PUSH8 0xDE0B6B3A7640000 SWAP1 PUSH2 0x203C SWAP1 DUP10 PUSH2 0x2361 JUMP JUMPDEST PUSH2 0x2046 SWAP2 SWAP1 PUSH2 0x2378 JUMP JUMPDEST PUSH2 0x2050 SWAP2 SWAP1 PUSH2 0x2361 JUMP JUMPDEST PUSH2 0x205A SWAP2 SWAP1 PUSH2 0x2378 JUMP JUMPDEST SWAP1 POP DUP3 DUP2 LT PUSH2 0x206F JUMPI PUSH1 0x0 SWAP4 POP POP POP POP PUSH2 0x1F80 JUMP JUMPDEST PUSH1 0x0 PUSH2 0x207B DUP3 DUP6 PUSH2 0x23C6 JUMP JUMPDEST SWAP1 POP PUSH8 0xDE0B6B3A7640000 DUP4 PUSH2 0x2091 DUP3 DUP5 PUSH2 0x2361 JUMP JUMPDEST PUSH2 0x209B SWAP2 SWAP1 PUSH2 0x2378 JUMP JUMPDEST LT ISZERO SWAP9 SWAP8 POP POP POP POP POP POP POP POP JUMP JUMPDEST PUSH1 0x0 DUP1 PUSH1 0x0 JUMPDEST PUSH1 0x1 SLOAD DUP2 LT ISZERO PUSH2 0x21BB JUMPI PUSH1 0x0 PUSH1 0x1 DUP3 DUP2 SLOAD DUP2 LT PUSH2 0x20CE JUMPI PUSH2 0x20CE PUSH2 0x2335 JUMP JUMPDEST PUSH1 0x0 SWAP2 DUP3 MSTORE PUSH1 0x20 DUP1 DUP4 KECCAK256 SWAP1 SWAP2 ADD SLOAD PUSH1 0x1 PUSH1 0x1 PUSH1 0xA0 SHL SUB AND DUP1 DUP4 MSTORE PUSH1 0x4 SWAP1 SWAP2 MSTORE PUSH1 0x40 DUP3 KECCAK256 SLOAD SWAP1 SWAP3 POP SWAP1 PUSH2 0x2100 DUP8 DUP5 PUSH2 0x1BC1 JUMP JUMPDEST SWAP1 POP DUP1 ISZERO PUSH2 0x2166 JUMPI PUSH1 0x1 PUSH1 0x1 PUSH1 0xA0 SHL SUB DUP4 AND PUSH1 0x0 SWAP1 DUP2 MSTORE PUSH1 0x2 PUSH1 0x20 DUP2 SWAP1 MSTORE PUSH1 0x40 SWAP1 SWAP2 KECCAK256 ADD SLOAD PUSH1 0x64 SWAP1 PUSH8 0xDE0B6B3A7640000 PUSH2 0x213B DUP6 DUP6 PUSH2 0x2361 JUMP JUMPDEST PUSH2 0x2145 SWAP2 SWAP1 PUSH2 0x2378 JUMP JUMPDEST PUSH2 0x214F SWAP2 SWAP1 PUSH2 0x2361 JUMP JUMPDEST PUSH2 0x2159 SWAP2 SWAP1 PUSH2 0x2378 JUMP JUMPDEST PUSH2 0x2163 SWAP1 DUP8 PUSH2 0x239A JUMP JUMPDEST SWAP6 POP JUMPDEST PUSH1 0x0 PUSH2 0x2172 DUP9 DUP6 PUSH2 0x1B58 JUMP JUMPDEST SWAP1 POP DUP1 ISZERO PUSH2 0x21A4 JUMPI PUSH8 0xDE0B6B3A7640000 PUSH2 0x218D DUP5 DUP4 PUSH2 0x2361 JUMP JUMPDEST PUSH2 0x2197 SWAP2 SWAP1 PUSH2 0x2378 JUMP JUMPDEST PUSH2 0x21A1 SWAP1 DUP8 PUSH2 0x239A JUMP JUMPDEST SWAP6 POP JUMPDEST POP POP POP POP DUP1 DUP1 PUSH2 0x21B3 SWAP1 PUSH2 0x23AD JUMP JUMPDEST SWAP2 POP POP PUSH2 0x20AF JUMP JUMPDEST POP SWAP2 POP SWAP2 JUMP JUMPDEST PUSH1 0x0 DUP1 MLOAD PUSH1 0x20 PUSH2 0x2441 DUP4 CODECOPY DUP2 MLOAD SWAP2 MSTORE SLOAD PUSH1 0x2 SUB PUSH2 0x12D9 JUMPI PUSH1 0x40 MLOAD PUSH4 0x3EE5AEB5 PUSH1 0xE0 SHL DUP2 MSTORE PUSH1 0x4 ADD PUSH1 0x40 MLOAD DUP1 SWAP2 SUB SWAP1 REVERT JUMPDEST DUP1 CALLDATALOAD PUSH1 0x1 PUSH1 0x1 PUSH1 0xA0 SHL SUB DUP2 AND DUP2 EQ PUSH2 0x2208 JUMPI PUSH1 0x0 DUP1 REVERT JUMPDEST SWAP2 SWAP1 POP JUMP JUMPDEST PUSH1 0x0 DUP1 PUSH1 0x40 DUP4 DUP6 SUB SLT ISZERO PUSH2 0x2220 JUMPI PUSH1 0x0 DUP1 REVERT JUMPDEST PUSH2 0x2229 DUP4 PUSH2 0x21F1 JUMP JUMPDEST SWAP2 POP PUSH2 0x2237 PUSH1 0x20 DUP5 ADD PUSH2 0x21F1 JUMP JUMPDEST SWAP1 POP SWAP3 POP SWAP3 SWAP1 POP JUMP JUMPDEST PUSH1 0x0 PUSH1 0x20 DUP3 DUP5 SUB SLT ISZERO PUSH2 0x2252 JUMPI PUSH1 0x0 DUP1 REVERT JUMPDEST PUSH2 0x57E DUP3 PUSH2 0x21F1 JUMP JUMPDEST PUSH1 0x0 DUP1 PUSH1 0x40 DUP4 DUP6 SUB SLT ISZERO PUSH2 0x226E JUMPI PUSH1 0x0 DUP1 REVERT JUMPDEST PUSH2 0x2277 DUP4 PUSH2 0x21F1 JUMP JUMPDEST SWAP5 PUSH1 0x20 SWAP4 SWAP1 SWAP4 ADD CALLDATALOAD SWAP4 POP POP POP JUMP JUMPDEST PUSH1 0x0 DUP1 PUSH1 0x0 DUP1 PUSH1 0x0 DUP1 PUSH1 0xC0 DUP8 DUP10 SUB SLT ISZERO PUSH2 0x229E JUMPI PUSH1 0x0 DUP1 REVERT JUMPDEST PUSH2 0x22A7 DUP8 PUSH2 0x21F1 JUMP JUMPDEST SWAP9 PUSH1 0x20 DUP9 ADD CALLDATALOAD SWAP9 POP PUSH1 0x40 DUP9 ADD CALLDATALOAD SWAP8 PUSH1 0x60 DUP2 ADD CALLDATALOAD SWAP8 POP PUSH1 0x80 DUP2 ADD CALLDATALOAD SWAP7 POP PUSH1 0xA0 ADD CALLDATALOAD SWAP5 POP SWAP3 POP POP POP JUMP JUMPDEST PUSH1 0x0 PUSH1 0x20 DUP3 DUP5 SUB SLT ISZERO PUSH2 0x22E1 JUMPI PUSH1 0x0 DUP1 REVERT JUMPDEST POP CALLDATALOAD SWAP2 SWAP1 POP JUMP JUMPDEST PUSH1 0x20 DUP1 DUP3 MSTORE DUP3 MLOAD DUP3 DUP3 ADD DUP2 SWAP1 MSTORE PUSH1 0x0 SWAP2 SWAP1 DUP5 DUP3 ADD SWAP1 PUSH1 0x40 DUP6 ADD SWAP1 DUP5 JUMPDEST DUP2 DUP2 LT ISZERO PUSH2 0x2329 JUMPI DUP4 MLOAD PUSH1 0x1 PUSH1 0x1 PUSH1 0xA0 SHL SUB AND DUP4 MSTORE SWAP3 DUP5 ADD SWAP3 SWAP2 DUP5 ADD SWAP2 PUSH1 0x1 ADD PUSH2 0x2304 JUMP JUMPDEST POP SWAP1 SWAP7 SWAP6 POP POP POP POP POP POP JUMP JUMPDEST PUSH4 0x4E487B71 PUSH1 0xE0 SHL PUSH1 0x0 MSTORE PUSH1 0x32 PUSH1 0x4 MSTORE PUSH1 0x24 PUSH1 0x0 REVERT JUMPDEST PUSH4 0x4E487B71 PUSH1 0xE0 SHL PUSH1 0x0 MSTORE PUSH1 0x11 PUSH1 0x4 MSTORE PUSH1 0x24 PUSH1 0x0 REVERT JUMPDEST DUP1 DUP3 MUL DUP2 ISZERO DUP3 DUP3 DIV DUP5 EQ OR PUSH2 0x581 JUMPI PUSH2 0x581 PUSH2 0x234B JUMP JUMPDEST PUSH1 0x0 DUP3 PUSH2 0x2395 JUMPI PUSH4 0x4E487B71 PUSH1 0xE0 SHL PUSH1 0x0 MSTORE PUSH1 0x12 PUSH1 0x4 MSTORE PUSH1 0x24 PUSH1 0x0 REVERT JUMPDEST POP DIV SWAP1 JUMP JUMPDEST DUP1 DUP3 ADD DUP1 DUP3 GT ISZERO PUSH2 0x581 JUMPI PUSH2 0x581 PUSH2 0x234B JUMP JUMPDEST PUSH1 0x0 PUSH1 0x1 DUP3 ADD PUSH2 0x23BF JUMPI PUSH2 0x23BF PUSH2 0x234B JUMP JUMPDEST POP PUSH1 0x1 ADD SWAP1 JUMP JUMPDEST DUP2 DUP2 SUB DUP2 DUP2 GT ISZERO PUSH2 0x581 JUMPI PUSH2 0x581 PUSH2 0x234B JUMP JUMPDEST PUSH1 0x20 DUP1 DUP3 MSTORE PUSH1 0x12 SWAP1 DUP3 ADD MSTORE PUSH18 0x416D6F756E74206D757374206265203E203 PUSH1 0x74 SHL PUSH1 0x40 DUP3 ADD MSTORE PUSH1 0x60 ADD SWAP1 JUMP JUMPDEST PUSH1 0x0 PUSH1 0x20 DUP3 DUP5 SUB SLT ISZERO PUSH2 0x2417 JUMPI PUSH1 0x0 DUP1 REVERT JUMPDEST DUP2 MLOAD DUP1 ISZERO ISZERO DUP2 EQ PUSH2 0x1F80 JUMPI PUSH1 0x0 DUP1 REVERT JUMPDEST PUSH1 0x0 PUSH1 0x20 DUP3 DUP5 SUB SLT ISZERO PUSH2 0x2439 JUMPI PUSH1 0x0 DUP1 REVERT JUMPDEST POP MLOAD SWAP2 SWAP1 POP JUMP INVALID SWAP12 PUSH24 0x9B17422D0DF92223018B32B4D1FA46E071723D6817E2486D STOP EXTCODESIZE 0xEC 0xC5 PUSH0 STOP LOG2 PUSH5 0x6970667358 0x22 SLT KECCAK256 SGT ORIGIN 0xD3 PUSH29 0x5B718473C7797B6CE839307F360F459E465D19A55149D66F06BF412264 PUSH20 0x6F6C634300081400330000000000000000000000 "},"methodIdentifiers":{"BLOCKS_PER_YEAR()":"d37db1d2","PRECISION()":"aaf5eb68","RESERVE_FACTOR()":"ea32605b","accrueInterest(address)":"9198e515","addSupportedToken(address,uint256,uint256,uint256,uint256,uint256)":"4fe2cf90","borrow(address,uint256)":"4b8a3529","deposit(address,uint256)":"47e7ef24","getBorrowAPY(address)":"2d27b824","getBorrowBalance(address,address)":"118e31b7","getHealthFactor(address)":"fe6bcd7c","getMarketData(address)":"a30c302d","getMaxBorrow(address,address)":"1ec18ec0","getSupplyAPY(address)":"3842ea42","getSupplyBalance(address,address)":"ba377731","getSupportedTokens()":"d3c7c2c7","getTotalCollateralUSD(address)":"f91bff57","getTotalDebtUSD(address)":"91c39b51","getUserData(address,address)":"f4eeefe9","getUtilizationRate(address)":"7b6aa8bd","markets(address)":"8e8f294b","owner()":"8da5cb5b","renounceOwnership()":"715018a6","repay(address,uint256)":"22867d78","setTokenPrice(address,uint256)":"431f63c9","supportedTokens(uint256)":"c6255626","tokenConfigs(address)":"1b69dc5f","tokenPricesUSD(address)":"19089a0d","transferOwnership(address)":"f2fde38b","userBorrows(address,address)":"234a14f9","userSupplies(address,address)":"028cc651","withdraw(address,uint256)":"f3fef3a3"}}}}}