{
  "_format": "hh-sol-artifact-1",
  "contractName": "MockWETH",
  "sourceName": "contracts/MockWETH.sol",
  "abi": [
    {
      "inputs": [],
      "stateMutability": "nonpayable",
      "type": "constructor"
    },
    {
      "inputs": [
        {
          "internalType": "address",
          "name": "spender",
          "type": "address"
        },
        {
          "internalType": "uint256",
          "name": "allowance",
          "type": "uint256"
        },
        {
          "internalType": "uint256",
          "name": "needed",
          "type": "uint256"
        }
      ],
      "name": "ERC20InsufficientAllowance",
      "type": "error"
    },
    {
      "inputs": [
        {
          "internalType": "address",
          "name": "sender",
          "type": "address"
        },
        {
          "internalType": "uint256",
          "name": "balance",
          "type": "uint256"
        },
        {
          "internalType": "uint256",
          "name": "needed",
          "type": "uint256"
        }
      ],
      "name": "ERC20InsufficientBalance",
      "type": "error"
    },
    {
      "inputs": [
        {
          "internalType": "address",
          "name": "approver",
          "type": "address"
        }
      ],
      "name": "ERC20InvalidApprover",
      "type": "error"
    },
    {
      "inputs": [
        {
          "internalType": "address",
          "name": "receiver",
          "type": "address"
        }
      ],
      "name": "ERC20InvalidReceiver",
      "type": "error"
    },
    {
      "inputs": [
        {
          "internalType": "address",
          "name": "sender",
          "type": "address"
        }
      ],
      "name": "ERC20InvalidSender",
      "type": "error"
    },
    {
      "inputs": [
        {
          "internalType": "address",
          "name": "spender",
          "type": "address"
        }
      ],
      "name": "ERC20InvalidSpender",
      "type": "error"
    },
    {
      "inputs": [
        {
          "internalType": "address",
          "name": "owner",
          "type": "address"
        }
      ],
      "name": "OwnableInvalidOwner",
      "type": "error"
    },
    {
      "inputs": [
        {
          "internalType": "address",
          "name": "account",
          "type": "address"
        }
      ],
      "name": "OwnableUnauthorizedAccount",
      "type": "error"
    },
    {
      "anonymous": false,
      "inputs": [
        {
          "indexed": true,
          "internalType": "address",
          "name": "owner",
          "type": "address"
        },
        {
          "indexed": true,
          "internalType": "address",
          "name": "spender",
          "type": "address"
        },
        {
          "indexed": false,
          "internalType": "uint256",
          "name": "value",
          "type": "uint256"
        }
      ],
      "name": "Approval",
      "type": "event"
    },
    {
      "anonymous": false,
      "inputs": [
        {
          "indexed": true,
          "internalType": "address",
          "name": "previousOwner",
          "type": "address"
        },
        {
          "indexed": true,
          "internalType": "address",
          "name": "newOwner",
          "type": "address"
        }
      ],
      "name": "OwnershipTransferred",
      "type": "event"
    },
    {
      "anonymous": false,
      "inputs": [
        {
          "indexed": true,
          "internalType": "address",
          "name": "from",
          "type": "address"
        },
        {
          "indexed": true,
          "internalType": "address",
          "name": "to",
          "type": "address"
        },
        {
          "indexed": false,
          "internalType": "uint256",
          "name": "value",
          "type": "uint256"
        }
      ],
      "name": "Transfer",
      "type": "event"
    },
    {
      "inputs": [],
      "name": "FAUCET_AMOUNT",
      "outputs": [
        {
          "internalType": "uint256",
          "name": "",
          "type": "uint256"
        }
      ],
      "stateMutability": "view",
      "type": "function"
    },
    {
      "inputs": [
        {
          "internalType": "address",
          "name": "owner",
          "type": "address"
        },
        {
          "internalType": "address",
          "name": "spender",
          "type": "address"
        }
      ],
      "name": "allowance",
      "outputs": [
        {
          "internalType": "uint256",
          "name": "",
          "type": "uint256"
        }
      ],
      "stateMutability": "view",
      "type": "function"
    },
    {
      "inputs": [
        {
          "internalType": "address",
          "name": "spender",
          "type": "address"
        },
        {
          "internalType": "uint256",
          "name": "value",
          "type": "uint256"
        }
      ],
      "name": "approve",
      "outputs": [
        {
          "internalType": "bool",
          "name": "",
          "type": "bool"
        }
      ],
      "stateMutability": "nonpayable",
      "type": "function"
    },
    {
      "inputs": [
        {
          "internalType": "address",
          "name": "account",
          "type": "address"
        }
      ],
      "name": "balanceOf",
      "outputs": [
        {
          "internalType": "uint256",
          "name": "",
          "type": "uint256"
        }
      ],
      "stateMutability": "view",
      "type": "function"
    },
    {
      "inputs": [],
      "name": "decimals",
      "outputs": [
        {
          "internalType": "uint8",
          "name": "",
          "type": "uint8"
        }
      ],
      "stateMutability": "view",
      "type": "function"
    },
    {
      "inputs": [],
      "name": "faucet",
      "outputs": [],
      "stateMutability": "nonpayable",
      "type": "function"
    },
    {
      "inputs": [
        {
          "internalType": "address",
          "name": "to",
          "type": "address"
        },
        {
          "internalType": "uint256",
          "name": "amount",
          "type": "uint256"
        }
      ],
      "name": "mint",
      "outputs": [],
      "stateMutability": "nonpayable",
      "type": "function"
    },
    {
      "inputs": [],
      "name": "name",
      "outputs": [
        {
          "internalType": "string",
          "name": "",
          "type": "string"
        }
      ],
      "stateMutability": "view",
      "type": "function"
    },
    {
      "inputs": [],
      "name": "owner",
      "outputs": [
        {
          "internalType": "address",
          "name": "",
          "type": "address"
        }
      ],
      "stateMutability": "view",
      "type": "function"
    },
    {
      "inputs": [],
      "name": "renounceOwnership",
      "outputs": [],
      "stateMutability": "nonpayable",
      "type": "function"
    },
    {
      "inputs": [],
      "name": "symbol",
      "outputs": [
        {
          "internalType": "string",
          "name": "",
          "type": "string"
        }
      ],
      "stateMutability": "view",
      "type": "function"
    },
    {
      "inputs": [],
      "name": "totalSupply",
      "outputs": [
        {
          "internalType": "uint256",
          "name": "",
          "type": "uint256"
        }
      ],
      "stateMutability": "view",
      "type": "function"
    },
    {
      "inputs": [
        {
          "internalType": "address",
          "name": "to",
          "type": "address"
        },
        {
          "internalType": "uint256",
          "name": "value",
          "type": "uint256"
        }
      ],
      "name": "transfer",
      "outputs": [
        {
          "internalType": "bool",
          "name": "",
          "type": "bool"
        }
      ],
      "stateMutability": "nonpayable",
      "type": "function"
    },
    {
      "inputs": [
        {
          "internalType": "address",
          "name": "from",
          "type": "address"
        },
        {
          "internalType": "address",
          "name": "to",
          "type": "address"
        },
        {
          "internalType": "uint256",
          "name": "value",
          "type": "uint256"
        }
      ],
      "name": "transferFrom",
      "outputs": [
        {
          "internalType": "bool",
          "name": "",
          "type": "bool"
        }
      ],
      "stateMutability": "nonpayable",
      "type": "function"
    },
    {
      "inputs": [
        {
          "internalType": "address",
          "name": "newOwner",
          "type": "address"
        }
      ],
      "name": "transferOwnership",
      "outputs": [],
      "stateMutability": "nonpayable",
      "type": "function"
    }
  ],
  "bytecode": "0x608060405234801561001057600080fd5b50336040518060400160405280600b81526020016a0aee4c2e0e0cac8408aa8960ab1b815250604051806040016040528060048152602001630ae8aa8960e31b815250816003908161006291906101a0565b50600461006f82826101a0565b5050506001600160a01b0381166100a057604051631e4fbdf760e01b81526000600482015260240160405180910390fd5b6100a9816100af565b5061025f565b600580546001600160a01b038381166001600160a01b0319831681179093556040519116919082907f8be0079c531659141344cd1fd0a4f28419497f9722a3daafe3b4186f6b6457e090600090a35050565b634e487b7160e01b600052604160045260246000fd5b600181811c9082168061012b57607f821691505b60208210810361014b57634e487b7160e01b600052602260045260246000fd5b50919050565b601f82111561019b57600081815260208120601f850160051c810160208610156101785750805b601f850160051c820191505b8181101561019757828155600101610184565b5050505b505050565b81516001600160401b038111156101b9576101b9610101565b6101cd816101c78454610117565b84610151565b602080601f83116001811461020257600084156101ea5750858301515b600019600386901b1c1916600185901b178555610197565b600085815260208120601f198616915b8281101561023157888601518255948401946001909101908401610212565b508582101561024f5787850151600019600388901b60f8161c191681555b5050505050600190811b01905550565b610914806200026f6000396000f3fe608060405234801561001057600080fd5b50600436106100f55760003560e01c8063715018a611610097578063a9059cbb11610066578063a9059cbb146101e7578063dd62ed3e146101fa578063de5f72fd14610233578063f2fde38b1461023b57600080fd5b8063715018a6146101ad57806376697640146101b55780638da5cb5b146101c457806395d89b41146101df57600080fd5b806323b872dd116100d357806323b872dd1461014d578063313ce5671461016057806340c10f191461016f57806370a082311461018457600080fd5b806306fdde03146100fa578063095ea7b31461011857806318160ddd1461013b575b600080fd5b61010261024e565b60405161010f919061075e565b60405180910390f35b61012b6101263660046107c8565b6102e0565b604051901515815260200161010f565b6002545b60405190815260200161010f565b61012b61015b3660046107f2565b6102fa565b6040516012815260200161010f565b61018261017d3660046107c8565b61031e565b005b61013f61019236600461082e565b6001600160a01b031660009081526020819052604090205490565b610182610334565b61013f678ac7230489e8000081565b6005546040516001600160a01b03909116815260200161010f565b610102610348565b61012b6101f53660046107c8565b610357565b61013f610208366004610850565b6001600160a01b03918216600090815260016020908152604080832093909416825291909152205490565b610182610365565b61018261024936600461082e565b610377565b60606003805461025d90610883565b80601f016020809104026020016040519081016040528092919081815260200182805461028990610883565b80156102d65780601f106102ab576101008083540402835291602001916102d6565b820191906000526020600020905b8154815290600101906020018083116102b957829003601f168201915b5050505050905090565b6000336102ee8185856103ba565b60019150505b92915050565b6000336103088582856103cc565b61031385858561044b565b506001949350505050565b6103266104aa565b61033082826104d7565b5050565b61033c6104aa565b610346600061050d565b565b60606004805461025d90610883565b6000336102ee81858561044b565b61034633678ac7230489e800006104d7565b61037f6104aa565b6001600160a01b0381166103ae57604051631e4fbdf760e01b8152600060048201526024015b60405180910390fd5b6103b78161050d565b50565b6103c7838383600161055f565b505050565b6001600160a01b03838116600090815260016020908152604080832093861683529290522054600019811015610445578181101561043657604051637dc7a0d960e11b81526001600160a01b038416600482015260248101829052604481018390526064016103a5565b6104458484848403600061055f565b50505050565b6001600160a01b03831661047557604051634b637e8f60e11b8152600060048201526024016103a5565b6001600160a01b03821661049f5760405163ec442f0560e01b8152600060048201526024016103a5565b6103c7838383610634565b6005546001600160a01b031633146103465760405163118cdaa760e01b81523360048201526024016103a5565b6001600160a01b0382166105015760405163ec442f0560e01b8152600060048201526024016103a5565b61033060008383610634565b600580546001600160a01b038381166001600160a01b0319831681179093556040519116919082907f8be0079c531659141344cd1fd0a4f28419497f9722a3daafe3b4186f6b6457e090600090a35050565b6001600160a01b0384166105895760405163e602df0560e01b8152600060048201526024016103a5565b6001600160a01b0383166105b357604051634a1406b160e11b8152600060048201526024016103a5565b6001600160a01b038085166000908152600160209081526040808320938716835292905220829055801561044557826001600160a01b0316846001600160a01b03167f8c5be1e5ebec7d5bd14f71427d1e84f3dd0314c0f7b2291e5b200ac8c7c3b9258460405161062691815260200190565b60405180910390a350505050565b6001600160a01b03831661065f57806002600082825461065491906108bd565b909155506106d19050565b6001600160a01b038316600090815260208190526040902054818110156106b25760405163391434e360e21b81526001600160a01b038516600482015260248101829052604481018390526064016103a5565b6001600160a01b03841660009081526020819052604090209082900390555b6001600160a01b0382166106ed5760028054829003905561070c565b6001600160a01b03821660009081526020819052604090208054820190555b816001600160a01b0316836001600160a01b03167fddf252ad1be2c89b69c2b068fc378daa952ba7f163c4a11628f55a4df523b3ef8360405161075191815260200190565b60405180910390a3505050565b600060208083528351808285015260005b8181101561078b5785810183015185820160400152820161076f565b506000604082860101526040601f19601f8301168501019250505092915050565b80356001600160a01b03811681146107c357600080fd5b919050565b600080604083850312156107db57600080fd5b6107e4836107ac565b946020939093013593505050565b60008060006060848603121561080757600080fd5b610810846107ac565b925061081e602085016107ac565b9150604084013590509250925092565b60006020828403121561084057600080fd5b610849826107ac565b9392505050565b6000806040838503121561086357600080fd5b61086c836107ac565b915061087a602084016107ac565b90509250929050565b600181811c9082168061089757607f821691505b6020821081036108b757634e487b7160e01b600052602260045260246000fd5b50919050565b808201808211156102f457634e487b7160e01b600052601160045260246000fdfea264697066735822122029890f25dd5aa1382d949b7eec9e63a360a20e9dad99c44119477312e710b68c64736f6c63430008140033",
  "linkReferences": {},
  "deployedLinkReferences": {}
}