{
  "_format": "hh-sol-artifact-1",
  "contractName": "LendingPool",
  "sourceName": "contracts/LendingPool.sol",
  "abi": [
    {
      "inputs": [],
      "stateMutability": "nonpayable",
      "type": "constructor"
    },
    {
      "inputs": [
        {
          "internalType": "address",
          "name": "owner",
          "type": "address"
        }
      ],
      "name": "OwnableInvalidOwner",
      "type": "error"
    },
    {
      "inputs": [
        {
          "internalType": "address",
          "name": "account",
          "type": "address"
        }
      ],
      "name": "OwnableUnauthorizedAccount",
      "type": "error"
    },
    {
      "inputs": [],
      "name": "ReentrancyGuardReentrantCall",
      "type": "error"
    },
    {
      "anonymous": false,
      "inputs": [
        {
          "indexed": true,
          "internalType": "address",
          "name": "user",
          "type": "address"
        },
        {
          "indexed": true,
          "internalType": "address",
          "name": "token",
          "type": "address"
        },
        {
          "indexed": false,
          "internalType": "uint256",
          "name": "amount",
          "type": "uint256"
        }
      ],
      "name": "Borrow",
      "type": "event"
    },
    {
      "anonymous": false,
      "inputs": [
        {
          "indexed": true,
          "internalType": "address",
          "name": "user",
          "type": "address"
        },
        {
          "indexed": true,
          "internalType": "address",
          "name": "token",
          "type": "address"
        },
        {
          "indexed": false,
          "internalType": "uint256",
          "name": "amount",
          "type": "uint256"
        }
      ],
      "name": "Deposit",
      "type": "event"
    },
    {
      "anonymous": false,
      "inputs": [
        {
          "indexed": true,
          "internalType": "address",
          "name": "previousOwner",
          "type": "address"
        },
        {
          "indexed": true,
          "internalType": "address",
          "name": "newOwner",
          "type": "address"
        }
      ],
      "name": "OwnershipTransferred",
      "type": "event"
    },
    {
      "anonymous": false,
      "inputs": [
        {
          "indexed": true,
          "internalType": "address",
          "name": "token",
          "type": "address"
        },
        {
          "indexed": false,
          "internalType": "uint256",
          "name": "newPrice",
          "type": "uint256"
        }
      ],
      "name": "PriceUpdated",
      "type": "event"
    },
    {
      "anonymous": false,
      "inputs": [
        {
          "indexed": true,
          "internalType": "address",
          "name": "user",
          "type": "address"
        },
        {
          "indexed": true,
          "internalType": "address",
          "name": "token",
          "type": "address"
        },
        {
          "indexed": false,
          "internalType": "uint256",
          "name": "amount",
          "type": "uint256"
        }
      ],
      "name": "Repay",
      "type": "event"
    },
    {
      "anonymous": false,
      "inputs": [
        {
          "indexed": true,
          "internalType": "address",
          "name": "user",
          "type": "address"
        },
        {
          "indexed": true,
          "internalType": "address",
          "name": "token",
          "type": "address"
        },
        {
          "indexed": false,
          "internalType": "uint256",
          "name": "amount",
          "type": "uint256"
        }
      ],
      "name": "Withdraw",
      "type": "event"
    },
    {
      "inputs": [],
      "name": "BLOCKS_PER_YEAR",
      "outputs": [
        {
          "internalType": "uint256",
          "name": "",
          "type": "uint256"
        }
      ],
      "stateMutability": "view",
      "type": "function"
    },
    {
      "inputs": [],
      "name": "PRECISION",
      "outputs": [
        {
          "internalType": "uint256",
          "name": "",
          "type": "uint256"
        }
      ],
      "stateMutability": "view",
      "type": "function"
    },
    {
      "inputs": [],
      "name": "RESERVE_FACTOR",
      "outputs": [
        {
          "internalType": "uint256",
          "name": "",
          "type": "uint256"
        }
      ],
      "stateMutability": "view",
      "type": "function"
    },
    {
      "inputs": [
        {
          "internalType": "address",
          "name": "token",
          "type": "address"
        }
      ],
      "name": "accrueInterest",
      "outputs": [],
      "stateMutability": "nonpayable",
      "type": "function"
    },
    {
      "inputs": [
        {
          "internalType": "address",
          "name": "token",
          "type": "address"
        },
        {
          "internalType": "uint256",
          "name": "ltv",
          "type": "uint256"
        },
        {
          "internalType": "uint256",
          "name": "liquidationThreshold",
          "type": "uint256"
        },
        {
          "internalType": "uint256",
          "name": "baseRatePerYear",
          "type": "uint256"
        },
        {
          "internalType": "uint256",
          "name": "slopePerYear",
          "type": "uint256"
        },
        {
          "internalType": "uint256",
          "name": "initialPriceUSD",
          "type": "uint256"
        }
      ],
      "name": "addSupportedToken",
      "outputs": [],
      "stateMutability": "nonpayable",
      "type": "function"
    },
    {
      "inputs": [
        {
          "internalType": "address",
          "name": "token",
          "type": "address"
        },
        {
          "internalType": "uint256",
          "name": "amount",
          "type": "uint256"
        }
      ],
      "name": "borrow",
      "outputs": [],
      "stateMutability": "nonpayable",
      "type": "function"
    },
    {
      "inputs": [
        {
          "internalType": "address",
          "name": "token",
          "type": "address"
        },
        {
          "internalType": "uint256",
          "name": "amount",
          "type": "uint256"
        }
      ],
      "name": "deposit",
      "outputs": [],
      "stateMutability": "nonpayable",
      "type": "function"
    },
    {
      "inputs": [
        {
          "internalType": "address",
          "name": "token",
          "type": "address"
        }
      ],
      "name": "getBorrowAPY",
      "outputs": [
        {
          "internalType": "uint256",
          "name": "",
          "type": "uint256"
        }
      ],
      "stateMutability": "view",
      "type": "function"
    },
    {
      "inputs": [
        {
          "internalType": "address",
          "name": "user",
          "type": "address"
        },
        {
          "internalType": "address",
          "name": "token",
          "type": "address"
        }
      ],
      "name": "getBorrowBalance",
      "outputs": [
        {
          "internalType": "uint256",
          "name": "",
          "type": "uint256"
        }
      ],
      "stateMutability": "view",
      "type": "function"
    },
    {
      "inputs": [
        {
          "internalType": "address",
          "name": "user",
          "type": "address"
        }
      ],
      "name": "getHealthFactor",
      "outputs": [
        {
          "internalType": "uint256",
          "name": "",
          "type": "uint256"
        }
      ],
      "stateMutability": "view",
      "type": "function"
    },
    {
      "inputs": [
        {
          "internalType": "address",
          "name": "token",
          "type": "address"
        }
      ],
      "name": "getMarketData",
      "outputs": [
        {
          "internalType": "uint256",
          "name": "totalSupplied",
          "type": "uint256"
        },
        {
          "internalType": "uint256",
          "name": "totalBorrowed",
          "type": "uint256"
        },
        {
          "internalType": "uint256",
          "name": "utilizationRate",
          "type": "uint256"
        },
        {
          "internalType": "uint256",
          "name": "supplyAPY",
          "type": "uint256"
        },
        {
          "internalType": "uint256",
          "name": "borrowAPY",
          "type": "uint256"
        },
        {
          "internalType": "uint256",
          "name": "price",
          "type": "uint256"
        }
      ],
      "stateMutability": "view",
      "type": "function"
    },
    {
      "inputs": [
        {
          "internalType": "address",
          "name": "user",
          "type": "address"
        },
        {
          "internalType": "address",
          "name": "borrowToken",
          "type": "address"
        }
      ],
      "name": "getMaxBorrow",
      "outputs": [
        {
          "internalType": "uint256",
          "name": "",
          "type": "uint256"
        }
      ],
      "stateMutability": "view",
      "type": "function"
    },
    {
      "inputs": [
        {
          "internalType": "address",
          "name": "token",
          "type": "address"
        }
      ],
      "name": "getSupplyAPY",
      "outputs": [
        {
          "internalType": "uint256",
          "name": "",
          "type": "uint256"
        }
      ],
      "stateMutability": "view",
      "type": "function"
    },
    {
      "inputs": [
        {
          "internalType": "address",
          "name": "user",
          "type": "address"
        },
        {
          "internalType": "address",
          "name": "token",
          "type": "address"
        }
      ],
      "name": "getSupplyBalance",
      "outputs": [
        {
          "internalType": "uint256",
          "name": "",
          "type": "uint256"
        }
      ],
      "stateMutability": "view",
      "type": "function"
    },
    {
      "inputs": [],
      "name": "getSupportedTokens",
      "outputs": [
        {
          "internalType": "address[]",
          "name": "",
          "type": "address[]"
        }
      ],
      "stateMutability": "view",
      "type": "function"
    },
    {
      "inputs": [
        {
          "internalType": "address",
          "name": "user",
          "type": "address"
        }
      ],
      "name": "getTotalCollateralUSD",
      "outputs": [
        {
          "internalType": "uint256",
          "name": "",
          "type": "uint256"
        }
      ],
      "stateMutability": "view",
      "type": "function"
    },
    {
      "inputs": [
        {
          "internalType": "address",
          "name": "user",
          "type": "address"
        }
      ],
      "name": "getTotalDebtUSD",
      "outputs": [
        {
          "internalType": "uint256",
          "name": "",
          "type": "uint256"
        }
      ],
      "stateMutability": "view",
      "type": "function"
    },
    {
      "inputs": [
        {
          "internalType": "address",
          "name": "user",
          "type": "address"
        },
        {
          "internalType": "address",
          "name": "token",
          "type": "address"
        }
      ],
      "name": "getUserData",
      "outputs": [
        {
          "internalType": "uint256",
          "name": "supplyBalance",
          "type": "uint256"
        },
        {
          "internalType": "uint256",
          "name": "borrowBalance",
          "type": "uint256"
        },
        {
          "internalType": "uint256",
          "name": "healthFactor",
          "type": "uint256"
        },
        {
          "internalType": "uint256",
          "name": "maxBorrow",
          "type": "uint256"
        }
      ],
      "stateMutability": "view",
      "type": "function"
    },
    {
      "inputs": [
        {
          "internalType": "address",
          "name": "token",
          "type": "address"
        }
      ],
      "name": "getUtilizationRate",
      "outputs": [
        {
          "internalType": "uint256",
          "name": "",
          "type": "uint256"
        }
      ],
      "stateMutability": "view",
      "type": "function"
    },
    {
      "inputs": [
        {
          "internalType": "address",
          "name": "",
          "type": "address"
        }
      ],
      "name": "markets",
      "outputs": [
        {
          "internalType": "uint256",
          "name": "totalScaledSupply",
          "type": "uint256"
        },
        {
          "internalType": "uint256",
          "name": "totalScaledBorrow",
          "type": "uint256"
        },
        {
          "internalType": "uint256",
          "name": "borrowIndex",
          "type": "uint256"
        },
        {
          "internalType": "uint256",
          "name": "supplyIndex",
          "type": "uint256"
        },
        {
          "internalType": "uint256",
          "name": "lastUpdateBlock",
          "type": "uint256"
        }
      ],
      "stateMutability": "view",
      "type": "function"
    },
    {
      "inputs": [],
      "name": "owner",
      "outputs": [
        {
          "internalType": "address",
          "name": "",
          "type": "address"
        }
      ],
      "stateMutability": "view",
      "type": "function"
    },
    {
      "inputs": [],
      "name": "renounceOwnership",
      "outputs": [],
      "stateMutability": "nonpayable",
      "type": "function"
    },
    {
      "inputs": [
        {
          "internalType": "address",
          "name": "token",
          "type": "address"
        },
        {
          "internalType": "uint256",
          "name": "amount",
          "type": "uint256"
        }
      ],
      "name": "repay",
      "outputs": [],
      "stateMutability": "nonpayable",
      "type": "function"
    },
    {
      "inputs": [
        {
          "internalType": "address",
          "name": "token",
          "type": "address"
        },
        {
          "internalType": "uint256",
          "name": "priceUSD",
          "type": "uint256"
        }
      ],
      "name": "setTokenPrice",
      "outputs": [],
      "stateMutability": "nonpayable",
      "type": "function"
    },
    {
      "inputs": [
        {
          "internalType": "uint256",
          "name": "",
          "type": "uint256"
        }
      ],
      "name": "supportedTokens",
      "outputs": [
        {
          "internalType": "address",
          "name": "",
          "type": "address"
        }
      ],
      "stateMutability": "view",
      "type": "function"
    },
    {
      "inputs": [
        {
          "internalType": "address",
          "name": "",
          "type": "address"
        }
      ],
      "name": "tokenConfigs",
      "outputs": [
        {
          "internalType": "bool",
          "name": "supported",
          "type": "bool"
        },
        {
          "internalType": "uint256",
          "name": "ltv",
          "type": "uint256"
        },
        {
          "internalType": "uint256",
          "name": "liquidationThreshold",
          "type": "uint256"
        },
        {
          "internalType": "uint256",
          "name": "baseRatePerYear",
          "type": "uint256"
        },
        {
          "internalType": "uint256",
          "name": "slopePerYear",
          "type": "uint256"
        }
      ],
      "stateMutability": "view",
      "type": "function"
    },
    {
      "inputs": [
        {
          "internalType": "address",
          "name": "",
          "type": "address"
        }
      ],
      "name": "tokenPricesUSD",
      "outputs": [
        {
          "internalType": "uint256",
          "name": "",
          "type": "uint256"
        }
      ],
      "stateMutability": "view",
      "type": "function"
    },
    {
      "inputs": [
        {
          "internalType": "address",
          "name": "newOwner",
          "type": "address"
        }
      ],
      "name": "transferOwnership",
      "outputs": [],
      "stateMutability": "nonpayable",
      "type": "function"
    },
    {
      "inputs": [
        {
          "internalType": "address",
          "name": "",
          "type": "address"
        },
        {
          "internalType": "address",
          "name": "",
          "type": "address"
        }
      ],
      "name": "userBorrows",
      "outputs": [
        {
          "internalType": "uint256",
          "name": "scaledAmount",
          "type": "uint256"
        }
      ],
      "stateMutability": "view",
      "type": "function"
    },
    {
      "inputs": [
        {
          "internalType": "address",
          "name": "",
          "type": "address"
        },
        {
          "internalType": "address",
          "name": "",
          "type": "address"
        }
      ],
      "name": "userSupplies",
      "outputs": [
        {
          "internalType": "uint256",
          "name": "scaledAmount",
          "type": "uint256"
        }
      ],
      "stateMutability": "view",
      "type": "function"
    },
    {
      "inputs": [
        {
          "internalType": "address",
          "name": "token",
          "type": "address"
        },
        {
          "internalType": "uint256",
          "name": "amount",
          "type": "uint256"
        }
      ],
      "name": "withdraw",
      "outputs": [],
      "stateMutability": "nonpayable",
      "type": "function"
    }
  ],
  "bytecode": "0x608060405234801561001057600080fd5b50338061003757604051631e4fbdf760e01b81526000600482015260240160405180910390fd5b6100408161006a565b5060017f9b779b17422d0df92223018b32b4d1fa46e071723d6817e2486d003becc55f00556100ba565b600080546001600160a01b038381166001600160a01b0319831681178455604051919092169283917f8be0079c531659141344cd1fd0a4f28419497f9722a3daafe3b4186f6b6457e09190a35050565b612496806100c96000396000f3fe608060405234801561001057600080fd5b50600436106101e55760003560e01c80638da5cb5b1161010f578063d37db1d2116100a2578063f3fef3a311610071578063f3fef3a314610506578063f4eeefe914610519578063f91bff571461054c578063fe6bcd7c1461055f57600080fd5b8063d37db1d2146104cc578063d3c7c2c7146104d6578063ea32605b146104eb578063f2fde38b146104f357600080fd5b8063a30c302d116100de578063a30c302d14610457578063aaf5eb6814610497578063ba377731146104a6578063c6255626146104b957600080fd5b80638da5cb5b146103a65780638e8f294b146103cb5780639198e5151461043157806391c39b511461044457600080fd5b80632d27b824116101875780634b8a3529116101565780634b8a3529146103655780634fe2cf9014610378578063715018a61461038b5780637b6aa8bd1461039357600080fd5b80632d27b824146103195780633842ea421461032c578063431f63c91461033f57806347e7ef241461035257600080fd5b80631b69dc5f116101c35780631b69dc5f1461025b5780631ec18ec0146102c657806322867d78146102d9578063234a14f9146102ee57600080fd5b8063028cc651146101ea578063118e31b71461022857806319089a0d1461023b575b600080fd5b6102156101f836600461220d565b600560209081526000928352604080842090915290825290205481565b6040519081526020015b60405180910390f35b61021561023636600461220d565b610572565b610215610249366004612240565b60046020526000908152604090205481565b61029c610269366004612240565b60026020819052600091825260409091208054600182015492820154600383015460049093015460ff9092169392909185565b6040805195151586526020860194909452928401919091526060830152608082015260a00161021f565b6102156102d436600461220d565b610587565b6102ec6102e736600461225b565b6106f9565b005b6102156102fc36600461220d565b600660209081526000928352604080842090915290825290205481565b610215610327366004612240565b610965565b61021561033a366004612240565b610a1c565b6102ec61034d36600461225b565b610a75565b6102ec61036036600461225b565b610b2e565b6102ec61037336600461225b565b610d2f565b6102ec610386366004612285565b611069565b6102ec6112c7565b6102156103a1366004612240565b6112db565b6000546001600160a01b03165b6040516001600160a01b03909116815260200161021f565b6104096103d9366004612240565b60036020819052600091825260409091208054600182015460028301549383015460049093015491939092909185565b604080519586526020860194909452928401919091526060830152608082015260a00161021f565b6102ec61043f366004612240565b6113af565b610215610452366004612240565b611413565b61046a610465366004612240565b6114b9565b604080519687526020870195909552938501929092526060840152608083015260a082015260c00161021f565b610215670de0b6b3a764000081565b6102156104b436600461220d565b6115a8565b6103b36104c73660046122cf565b6115b4565b6102156220148081565b6104de6115de565b60405161021f91906122e8565b610215600a81565b6102ec610501366004612240565b611640565b6102ec61051436600461225b565b61167b565b61052c61052736600461220d565b6118d4565b60408051948552602085019390935291830152606082015260800161021f565b61021561055a366004612240565b611a81565b61021561056d366004612240565b611b20565b600061057e8383611b58565b90505b92915050565b60008080805b600154811015610698576000600182815481106105ac576105ac612335565b60009182526020808320909101546001600160a01b031680835260049091526040822054909250906105de8984611bc1565b90508015610643576001600160a01b038316600090815260026020526040902060010154606490670de0b6b3a76400006106188585612361565b6106229190612378565b61062c9190612361565b6106369190612378565b610640908761239a565b95505b600061064f8a85611b58565b9050801561068157670de0b6b3a764000061066a8483612361565b6106749190612378565b61067e908761239a565b95505b505050508080610690906123ad565b91505061058d565b508082116106ab57600092505050610581565b60006106b782846123c6565b6001600160a01b0386166000908152600460205260409020549091506106e5670de0b6b3a764000083612361565b6106ef9190612378565b9695505050505050565b610701611c2b565b6000811161072a5760405162461bcd60e51b8152600401610721906123d9565b60405180910390fd5b61073382611c47565b600061073f3384611b58565b9050600081116107845760405162461bcd60e51b815260206004820152601060248201526f4e6f206465627420746f20726570617960801b6044820152606401610721565b6000198203610791578091505b60008183116107a057826107a2565b815b6040516323b872dd60e01b8152336004820152306024820152604481018290529091506001600160a01b038516906323b872dd906064016020604051808303816000875af11580156107f8573d6000803e3d6000fd5b505050506040513d601f19601f8201168201806040525081019061081c9190612405565b506001600160a01b03841660009081526003602052604081206002015461084b670de0b6b3a764000084612361565b6108559190612378565b3360009081526006602090815260408083206001600160a01b038a1684529091529020805491925090821061088b576000610898565b80546108989083906123c6565b81556001600160a01b03861660009081526003602052604090206001015482106108c35760006108ea565b6001600160a01b0386166000908152600360205260409020600101546108ea9083906123c6565b6001600160a01b0387166000818152600360205260409081902060010192909255905133907f05f2eeda0e08e4b437f487c8d7d29b14537d15e3488170dc3de5dbdf8dac46849061093e9087815260200190565b60405180910390a350505050610961600160008051602061244183398151915255565b5050565b600080610971836112db565b6001600160a01b038416600090815260026020818152604092839020835160a081018552815460ff16151581526001820154928101929092529182015492810192909252600381015460608301526004015460808201819052919250906064906109dc908490612361565b6109e69190612378565b6064670de0b6b3a76400008360600151610a009190612361565b610a0a9190612378565b610a14919061239a565b949350505050565b600080610a28836112db565b90506000610a3584610965565b90506064610a44600a826123c6565b670de0b6b3a7640000610a578585612361565b610a619190612378565b610a6b9190612361565b610a149190612378565b610a7d611ec1565b6001600160a01b03821660009081526002602052604090205460ff16610ad55760405162461bcd60e51b815260206004820152600d60248201526c139bdd081cdd5c1c1bdc9d1959609a1b6044820152606401610721565b6001600160a01b03821660008181526004602052604090819020839055517f0d86730737b142fc160892fa8a0f2db687a92a0e294d1ad70624cf5acef03b8490610b229084815260200190565b60405180910390a25050565b610b36611c2b565b6001600160a01b03821660009081526002602052604090205460ff16610b945760405162461bcd60e51b8152602060048201526013602482015272151bdad95b881b9bdd081cdd5c1c1bdc9d1959606a1b6044820152606401610721565b60008111610bb45760405162461bcd60e51b8152600401610721906123d9565b610bbd82611c47565b6040516323b872dd60e01b8152336004820152306024820152604481018290526001600160a01b038316906323b872dd906064016020604051808303816000875af1158015610c10573d6000803e3d6000fd5b505050506040513d601f19601f82011682018060405250810190610c349190612405565b506001600160a01b038216600090815260036020819052604082200154610c63670de0b6b3a764000084612361565b610c6d9190612378565b3360009081526005602090815260408083206001600160a01b0388168452909152812080549293508392909190610ca590849061239a565b90915550506001600160a01b03831660009081526003602052604081208054839290610cd290849061239a565b90915550506040518281526001600160a01b0384169033907f5548c837ab068cf56a2c2479df0882a4922fd203edb7517321831d95078c5f629060200160405180910390a350610961600160008051602061244183398151915255565b610d37611c2b565b6001600160a01b03821660009081526002602052604090205460ff16610d955760405162461bcd60e51b8152602060048201526013602482015272151bdad95b881b9bdd081cdd5c1c1bdc9d1959606a1b6044820152606401610721565b60008111610db55760405162461bcd60e51b8152600401610721906123d9565b610dbe82611c47565b6040516370a0823160e01b81523060048201526000906001600160a01b038416906370a0823190602401602060405180830381865afa158015610e05573d6000803e3d6000fd5b505050506040513d601f19601f82011682018060405250810190610e299190612427565b905081811015610e7b5760405162461bcd60e51b815260206004820152601b60248201527f496e73756666696369656e7420706f6f6c206c697175696469747900000000006044820152606401610721565b610e86338484611eee565b610ef85760405162461bcd60e51b815260206004820152603a60248201527f496e73756666696369656e7420636f6c6c61746572616c20284865616c74682060448201527f466163746f7220776f756c642064726f702062656c6f772031290000000000006064820152608401610721565b6001600160a01b038316600090815260036020526040812060020154610f26670de0b6b3a764000085612361565b610f309190612378565b3360009081526006602090815260408083206001600160a01b0389168452909152812080549293508392909190610f6890849061239a565b90915550506001600160a01b03841660009081526003602052604081206001018054839290610f9890849061239a565b909155505060405163a9059cbb60e01b8152336004820152602481018490526001600160a01b0385169063a9059cbb906044016020604051808303816000875af1158015610fea573d6000803e3d6000fd5b505050506040513d601f19601f8201168201806040525081019061100e9190612405565b506040518381526001600160a01b0385169033907f312a5e5e1079f5dda4e95dbbd0b908b291fd5b992ef22073643ab691572c5b52906020015b60405180910390a35050610961600160008051602061244183398151915255565b611071611ec1565b6001600160a01b0386166110b75760405162461bcd60e51b815260206004820152600d60248201526c24b73b30b634b2103a37b5b2b760991b6044820152606401610721565b6001600160a01b03861660009081526002602052604090205460ff16156111145760405162461bcd60e51b8152602060048201526011602482015270105b1c9958591e481cdd5c1c1bdc9d1959607a1b6044820152606401610721565b8385106111635760405162461bcd60e51b815260206004820152601b60248201527f4c5456206d757374206265203c206c6971207468726573686f6c6400000000006044820152606401610721565b605f8411156111ad5760405162461bcd60e51b8152602060048201526016602482015275098d2e240e8d0e4cae6d0ded8c840e8dede40d0d2ced60531b6044820152606401610721565b6040805160a0808201835260018083526020808401998a52838501988952606080850198895260808086019889526001600160a01b039c909c16600081815260028085528882209751885460ff19169015151788559c51878601559a51868d015598516003808701919091559751600495860155855193840186528984528382018a8152670de0b6b3a7640000858801818152928601908152439d86019d8e528a8c52898452878c209551865590518585015590519a84019a909a559851958201959095559751978101979097559590945293822092909255825480840184559290527fb10e2d527612073b26eecdfd717e6a320cf44b4afac2b0732d9fcbe2b7fa0cf690910180546001600160a01b0319169091179055565b6112cf611ec1565b6112d96000611f87565b565b6001600160a01b0381166000908152600360208181526040808420815160a08101835281548152600182015493810184905260028201549281018390529381015460608501526004015460808401528391670de0b6b3a76400009161133f91612361565b6113499190612378565b90506000670de0b6b3a76400008360600151846000015161136a9190612361565b6113749190612378565b90508060000361138957506000949350505050565b8061139c670de0b6b3a764000084612361565b6113a69190612378565b95945050505050565b6001600160a01b03811660009081526002602052604090205460ff166114075760405162461bcd60e51b815260206004820152600d60248201526c139bdd081cdd5c1c1bdc9d1959609a1b6044820152606401610721565b61141081611c47565b50565b600080805b6001548110156114b25760006001828154811061143757611437612335565b60009182526020822001546001600160a01b031691506114578683611b58565b6001600160a01b038316600090815260046020526040902054909150670de0b6b3a7640000906114879083612361565b6114919190612378565b61149b908561239a565b9350505080806114aa906123ad565b915050611418565b5092915050565b6001600160a01b0381166000908152600360208181526040808420815160a08101835281548082526001830154948201949094526002820154928101929092529283015460608201819052600490930154608082015283928392839283928392670de0b6b3a76400009161152c91612361565b6115369190612378565b9650670de0b6b3a7640000816040015182602001516115559190612361565b61155f9190612378565b955061156a886112db565b945061157588610a1c565b935061158088610965565b6001600160a01b03909816600090815260046020526040902054969895979496939592505050565b600061057e8383611bc1565b600181815481106115c457600080fd5b6000918252602090912001546001600160a01b0316905081565b6060600180548060200260200160405190810160405280929190818152602001828054801561163657602002820191906000526020600020905b81546001600160a01b03168152600190910190602001808311611618575b5050505050905090565b611648611ec1565b6001600160a01b03811661167257604051631e4fbdf760e01b815260006004820152602401610721565b61141081611f87565b611683611c2b565b600081116116a35760405162461bcd60e51b8152600401610721906123d9565b6116ac82611c47565b60006116b83384611bc1565b905060001982036116c7578091505b818110156117175760405162461bcd60e51b815260206004820152601b60248201527f496e73756666696369656e7420737570706c792062616c616e636500000000006044820152606401610721565b611722338484611fd7565b6117835760405162461bcd60e51b815260206004820152602c60248201527f5769746864726177616c20776f756c6420756e646572636f6c6c61746572616c60448201526b34bd32903837b9b4ba34b7b760a11b6064820152608401610721565b6001600160a01b0383166000908152600360208190526040822001546117b1670de0b6b3a764000085612361565b6117bb9190612378565b3360009081526005602090815260408083206001600160a01b03891684529091528120805492935083929091906117f39084906123c6565b90915550506001600160a01b038416600090815260036020526040812080548392906118209084906123c6565b909155505060405163a9059cbb60e01b8152336004820152602481018490526001600160a01b0385169063a9059cbb906044016020604051808303816000875af1158015611872573d6000803e3d6000fd5b505050506040513d601f19601f820116820180604052508101906118969190612405565b506040518381526001600160a01b0385169033907f9b1bfa7fa9ee420a16e124f794c35ac9f90472acc99140eb2f6447c714cad8eb90602001611048565b6000806000806118e48686611bc1565b93506118f08686611b58565b92506118fb86611b20565b915060008060005b600154811015611a235760006001828154811061192257611922612335565b60009182526020822001546001600160a01b031691506119428b83611bc1565b905080156119b5576001600160a01b03821660009081526002602090815260408083206001015460049092529091205460649190670de0b6b3a76400009061198a9085612361565b6119949190612378565b61199e9190612361565b6119a89190612378565b6119b2908661239a565b94505b60006119c18c84611b58565b90508015611a0d576001600160a01b038316600090815260046020526040902054670de0b6b3a7640000906119f69083612361565b611a009190612378565b611a0a908661239a565b94505b5050508080611a1b906123ad565b915050611903565b5080821115611a71576001600160a01b038716600090815260046020526040902054670de0b6b3a7640000611a5883856123c6565b611a629190612361565b611a6c9190612378565b611a74565b60005b9250505092959194509250565b600080805b6001548110156114b257600060018281548110611aa557611aa5612335565b60009182526020822001546001600160a01b03169150611ac58683611bc1565b6001600160a01b038316600090815260046020526040902054909150670de0b6b3a764000090611af59083612361565b611aff9190612378565b611b09908561239a565b935050508080611b18906123ad565b915050611a86565b6000806000611b2e846120a9565b9150915080600003611b4557506000199392505050565b80610a6b670de0b6b3a764000084612361565b6001600160a01b038083166000908152600660209081526040808320938516835292905290812054808203611b91576000915050610581565b6001600160a01b038316600090815260036020526040902060020154670de0b6b3a764000090610a6b9083612361565b6001600160a01b038083166000908152600560209081526040808320938516835292905290812054808203611bfa576000915050610581565b6001600160a01b03831660009081526003602081905260409091200154670de0b6b3a764000090610a6b9083612361565b611c336121c1565b600260008051602061244183398151915255565b6001600160a01b03811660009081526003602052604081206004810154909190611c7190436123c6565b905080600003611c8057505050565b6000670de0b6b3a764000083600201548460010154611c9f9190612361565b611ca99190612378565b90506000670de0b6b3a764000084600301548560000154611cca9190612361565b611cd49190612378565b905060008115611d005781611cf1670de0b6b3a764000085612361565b611cfb9190612378565b611d03565b60005b6001600160a01b0387166000908152600260208181526040808420815160a081018352815460ff16151581526001820154938101939093529283015490820152600382015460608201526004909101546080820181905292935091606490611d6c908590612361565b611d769190612378565b6064670de0b6b3a76400008460600151611d909190612361565b611d9a9190612378565b611da4919061239a565b90506000611db56220148083612378565b90506000611dc38883612361565b9050670de0b6b3a7640000818a60020154611dde9190612361565b611de89190612378565b8960020154611df7919061239a565b60028a01558615801590611e0b5750600086115b15611eac5760006064611e1f600a826123c6565b670de0b6b3a7640000611e328988612361565b611e3c9190612378565b611e469190612361565b611e509190612378565b90506000611e616220148083612378565b90506000611e6f8b83612361565b9050670de0b6b3a7640000818d60030154611e8a9190612361565b611e949190612378565b8c60030154611ea3919061239a565b60038d01555050505b43896004018190555050505050505050505050565b6000546001600160a01b031633146112d95760405163118cdaa760e01b8152336004820152602401610721565b6000806000611efc866120a9565b6001600160a01b03871660009081526004602052604081205492945090925090670de0b6b3a764000090611f309087612361565b611f3a9190612378565b611f44908361239a565b905080600003611f5a5760019350505050611f80565b670de0b6b3a764000081611f6e8286612361565b611f789190612378565b101593505050505b9392505050565b600080546001600160a01b038381166001600160a01b0319831681178455604051919092169283917f8be0079c531659141344cd1fd0a4f28419497f9722a3daafe3b4186f6b6457e09190a35050565b6000806000611fe5866120a9565b9150915080600003611ffc57600192505050611f80565b6001600160a01b03851660009081526002602081815260408084209092015460049091529082205460649190670de0b6b3a76400009061203c9089612361565b6120469190612378565b6120509190612361565b61205a9190612378565b905082811061206f5760009350505050611f80565b600061207b82856123c6565b9050670de0b6b3a7640000836120918284612361565b61209b9190612378565b101598975050505050505050565b60008060005b6001548110156121bb576000600182815481106120ce576120ce612335565b60009182526020808320909101546001600160a01b031680835260049091526040822054909250906121008784611bc1565b90508015612166576001600160a01b03831660009081526002602081905260409091200154606490670de0b6b3a764000061213b8585612361565b6121459190612378565b61214f9190612361565b6121599190612378565b612163908761239a565b95505b60006121728885611b58565b905080156121a457670de0b6b3a764000061218d8483612361565b6121979190612378565b6121a1908761239a565b95505b5050505080806121b3906123ad565b9150506120af565b50915091565b600080516020612441833981519152546002036112d957604051633ee5aeb560e01b815260040160405180910390fd5b80356001600160a01b038116811461220857600080fd5b919050565b6000806040838503121561222057600080fd5b612229836121f1565b9150612237602084016121f1565b90509250929050565b60006020828403121561225257600080fd5b61057e826121f1565b6000806040838503121561226e57600080fd5b612277836121f1565b946020939093013593505050565b60008060008060008060c0878903121561229e57600080fd5b6122a7876121f1565b9860208801359850604088013597606081013597506080810135965060a00135945092505050565b6000602082840312156122e157600080fd5b5035919050565b6020808252825182820181905260009190848201906040850190845b818110156123295783516001600160a01b031683529284019291840191600101612304565b50909695505050505050565b634e487b7160e01b600052603260045260246000fd5b634e487b7160e01b600052601160045260246000fd5b80820281158282048414176105815761058161234b565b60008261239557634e487b7160e01b600052601260045260246000fd5b500490565b808201808211156105815761058161234b565b6000600182016123bf576123bf61234b565b5060010190565b818103818111156105815761058161234b565b6020808252601290820152710416d6f756e74206d757374206265203e20360741b604082015260600190565b60006020828403121561241757600080fd5b81518015158114611f8057600080fd5b60006020828403121561243957600080fd5b505191905056fe9b779b17422d0df92223018b32b4d1fa46e071723d6817e2486d003becc55f00a26469706673582212201332d37c5b718473c7797b6ce839307f360f459e465d19a55149d66f06bf412264736f6c63430008140033",
  "linkReferences": {},
  "deployedLinkReferences": {}
}